{
  "address": "0xf61574D1Fd7852A01b30f29aa31B8ECd6821e948",
  "abi": [
    {
      "inputs": [],
      "name": "AccessControlBadConfirmation",
      "type": "error"
    },
    {
      "inputs": [
        {
          "internalType": "address",
          "name": "account",
          "type": "address"
        },
        {
          "internalType": "bytes32",
          "name": "neededRole",
          "type": "bytes32"
        }
      ],
      "name": "AccessControlUnauthorizedAccount",
      "type": "error"
    },
    {
      "inputs": [],
      "name": "InvalidInitialization",
      "type": "error"
    },
    {
      "inputs": [],
      "name": "NotInitializing",
      "type": "error"
    },
    {
      "anonymous": false,
      "inputs": [
        {
          "indexed": false,
          "internalType": "bool",
          "name": "isWhitelistRegistry",
          "type": "bool"
        },
        {
          "indexed": false,
          "internalType": "bytes",
          "name": "data",
          "type": "bytes"
        },
        {
          "indexed": false,
          "internalType": "bytes32",
          "name": "networkHash",
          "type": "bytes32"
        }
      ],
      "name": "AddProposalToAnotherNetworkList",
      "type": "event"
    },
    {
      "anonymous": false,
      "inputs": [
        {
          "indexed": false,
          "internalType": "uint64",
          "name": "version",
          "type": "uint64"
        }
      ],
      "name": "Initialized",
      "type": "event"
    },
    {
      "anonymous": false,
      "inputs": [
        {
          "indexed": true,
          "internalType": "bytes32",
          "name": "role",
          "type": "bytes32"
        },
        {
          "indexed": true,
          "internalType": "bytes32",
          "name": "previousAdminRole",
          "type": "bytes32"
        },
        {
          "indexed": true,
          "internalType": "bytes32",
          "name": "newAdminRole",
          "type": "bytes32"
        }
      ],
      "name": "RoleAdminChanged",
      "type": "event"
    },
    {
      "anonymous": false,
      "inputs": [
        {
          "indexed": true,
          "internalType": "bytes32",
          "name": "role",
          "type": "bytes32"
        },
        {
          "indexed": true,
          "internalType": "address",
          "name": "account",
          "type": "address"
        },
        {
          "indexed": true,
          "internalType": "address",
          "name": "sender",
          "type": "address"
        }
      ],
      "name": "RoleGranted",
      "type": "event"
    },
    {
      "anonymous": false,
      "inputs": [
        {
          "indexed": true,
          "internalType": "bytes32",
          "name": "role",
          "type": "bytes32"
        },
        {
          "indexed": true,
          "internalType": "address",
          "name": "account",
          "type": "address"
        },
        {
          "indexed": true,
          "internalType": "address",
          "name": "sender",
          "type": "address"
        }
      ],
      "name": "RoleRevoked",
      "type": "event"
    },
    {
      "inputs": [],
      "name": "ADMIN_ROLE",
      "outputs": [
        {
          "internalType": "bytes32",
          "name": "",
          "type": "bytes32"
        }
      ],
      "stateMutability": "view",
      "type": "function"
    },
    {
      "inputs": [],
      "name": "COMPLIANCE_REGISTRY_STUB_ROLE",
      "outputs": [
        {
          "internalType": "bytes32",
          "name": "",
          "type": "bytes32"
        }
      ],
      "stateMutability": "view",
      "type": "function"
    },
    {
      "inputs": [],
      "name": "DEFAULT_ADMIN_ROLE",
      "outputs": [
        {
          "internalType": "bytes32",
          "name": "",
          "type": "bytes32"
        }
      ],
      "stateMutability": "view",
      "type": "function"
    },
    {
      "inputs": [
        {
          "components": [
            {
              "internalType": "bytes32",
              "name": "id",
              "type": "bytes32"
            },
            {
              "internalType": "address",
              "name": "author",
              "type": "address"
            },
            {
              "internalType": "bytes[]",
              "name": "targets",
              "type": "bytes[]"
            },
            {
              "internalType": "bool",
              "name": "isWhitelist",
              "type": "bool"
            },
            {
              "internalType": "string",
              "name": "description",
              "type": "string"
            },
            {
              "internalType": "string",
              "name": "region",
              "type": "string"
            },
            {
              "internalType": "uint256",
              "name": "timestamp",
              "type": "uint256"
            },
            {
              "internalType": "enum ProposalCommon.ProposalStatus",
              "name": "status",
              "type": "uint8"
            },
            {
              "internalType": "bytes",
              "name": "signature",
              "type": "bytes"
            },
            {
              "internalType": "uint256",
              "name": "voters",
              "type": "uint256"
            },
            {
              "internalType": "uint256",
              "name": "activeNodes",
              "type": "uint256"
            }
          ],
          "internalType": "struct ProposalCommon.Proposal",
          "name": "proposal",
          "type": "tuple"
        }
      ],
      "name": "addProposalToList",
      "outputs": [],
      "stateMutability": "nonpayable",
      "type": "function"
    },
    {
      "inputs": [
        {
          "internalType": "address",
          "name": "account",
          "type": "address"
        }
      ],
      "name": "checkAddress",
      "outputs": [
        {
          "internalType": "bool",
          "name": "",
          "type": "bool"
        }
      ],
      "stateMutability": "view",
      "type": "function"
    },
    {
      "inputs": [
        {
          "internalType": "bytes32",
          "name": "",
          "type": "bytes32"
        }
      ],
      "name": "complianceList",
      "outputs": [
        {
          "internalType": "bytes32",
          "name": "proposalId",
          "type": "bytes32"
        },
        {
          "internalType": "address",
          "name": "target",
          "type": "address"
        },
        {
          "internalType": "address",
          "name": "author",
          "type": "address"
        },
        {
          "internalType": "bool",
          "name": "isInList",
          "type": "bool"
        }
      ],
      "stateMutability": "view",
      "type": "function"
    },
    {
      "inputs": [
        {
          "internalType": "bytes",
          "name": "data",
          "type": "bytes"
        }
      ],
      "name": "decodeBytes",
      "outputs": [
        {
          "internalType": "address",
          "name": "",
          "type": "address"
        },
        {
          "internalType": "bytes32",
          "name": "",
          "type": "bytes32"
        }
      ],
      "stateMutability": "view",
      "type": "function"
    },
    {
      "inputs": [
        {
          "internalType": "address",
          "name": "account",
          "type": "address"
        }
      ],
      "name": "getAddressKey",
      "outputs": [
        {
          "internalType": "bytes32",
          "name": "",
          "type": "bytes32"
        }
      ],
      "stateMutability": "pure",
      "type": "function"
    },
    {
      "inputs": [
        {
          "internalType": "bytes32",
          "name": "role",
          "type": "bytes32"
        }
      ],
      "name": "getRoleAdmin",
      "outputs": [
        {
          "internalType": "bytes32",
          "name": "",
          "type": "bytes32"
        }
      ],
      "stateMutability": "view",
      "type": "function"
    },
    {
      "inputs": [
        {
          "internalType": "bytes32",
          "name": "role",
          "type": "bytes32"
        },
        {
          "internalType": "address",
          "name": "account",
          "type": "address"
        }
      ],
      "name": "grantRole",
      "outputs": [],
      "stateMutability": "nonpayable",
      "type": "function"
    },
    {
      "inputs": [
        {
          "internalType": "bytes32",
          "name": "role",
          "type": "bytes32"
        },
        {
          "internalType": "address",
          "name": "account",
          "type": "address"
        }
      ],
      "name": "hasRole",
      "outputs": [
        {
          "internalType": "bool",
          "name": "",
          "type": "bool"
        }
      ],
      "stateMutability": "view",
      "type": "function"
    },
    {
      "inputs": [
        {
          "internalType": "address",
          "name": "_admin",
          "type": "address"
        },
        {
          "internalType": "bool",
          "name": "_isWhitelistRegistry",
          "type": "bool"
        },
        {
          "internalType": "address",
          "name": "_networkRegistry",
          "type": "address"
        }
      ],
      "name": "initialize",
      "outputs": [],
      "stateMutability": "nonpayable",
      "type": "function"
    },
    {
      "inputs": [],
      "name": "isWhitelistRegistry",
      "outputs": [
        {
          "internalType": "bool",
          "name": "",
          "type": "bool"
        }
      ],
      "stateMutability": "view",
      "type": "function"
    },
    {
      "inputs": [],
      "name": "networkRegistry",
      "outputs": [
        {
          "internalType": "contract INetworkSupportedRegistry",
          "name": "",
          "type": "address"
        }
      ],
      "stateMutability": "view",
      "type": "function"
    },
    {
      "inputs": [
        {
          "internalType": "bytes32",
          "name": "role",
          "type": "bytes32"
        },
        {
          "internalType": "address",
          "name": "callerConfirmation",
          "type": "address"
        }
      ],
      "name": "renounceRole",
      "outputs": [],
      "stateMutability": "nonpayable",
      "type": "function"
    },
    {
      "inputs": [
        {
          "internalType": "bytes32",
          "name": "role",
          "type": "bytes32"
        },
        {
          "internalType": "address",
          "name": "account",
          "type": "address"
        }
      ],
      "name": "revokeRole",
      "outputs": [],
      "stateMutability": "nonpayable",
      "type": "function"
    },
    {
      "inputs": [
        {
          "internalType": "bytes4",
          "name": "interfaceId",
          "type": "bytes4"
        }
      ],
      "name": "supportsInterface",
      "outputs": [
        {
          "internalType": "bool",
          "name": "",
          "type": "bool"
        }
      ],
      "stateMutability": "view",
      "type": "function"
    }
  ],
  "transactionHash": "0x0f11f25f643a2699d4c3edda5124e19360f4a52c6c90c0d8ddd9c8d1504ce6d2",
  "args": [],
  "numDeployments": 1,
  "solcInputHash": "c884cdc654775e9c68d95b2b19054b18",
  "bytecode": "0x608060405234801561001057600080fd5b506112d1806100206000396000f3fe608060405234801561001057600080fd5b506004361061010b5760003560e01c80634888a7d1116100a2578063a217fddf11610071578063a217fddf14610279578063a641c95d14610281578063d547741f14610294578063e45f40be146102a7578063ef14981b146102c757600080fd5b80634888a7d11461021957806375b238fc1461022c57806387e71b901461025357806391d148541461026657600080fd5b8063197621ce116100de578063197621ce146101b0578063248a9ca3146101d15780632f2ff15d146101f157806336568abe1461020657600080fd5b806301ffc9a71461011057806302522cd3146101395780630ddcfe8e1461014657806310096ca414610159575b600080fd5b61012361011e366004610aab565b6102ee565b6040516101309190610ade565b60405180910390f35b6000546101239060ff1681565b610123610154366004610b11565b610325565b6101a0610167366004610b43565b60016020819052600091825260409091208054918101546002909101546001600160a01b0391821691811690600160a01b900460ff1684565b6040516101309493929190610b73565b6101c36101be366004610caa565b610358565b604051610130929190610ce4565b6101e46101df366004610b43565b61041a565b6040516101309190610d06565b6102046101ff366004610d14565b61043c565b005b610204610214366004610d14565b61045e565b610204610227366004610d64565b610496565b6101e47fa49807205ce4d355092ef5a8a18f56e8913cf4a201fbe287825b095693c2177581565b610204610261366004610ff8565b610648565b610123610274366004610d14565b6107e9565b6101e4600081565b6101e461028f366004610b11565b610821565b6102046102a2366004610d14565b610851565b6002546102ba906001600160a01b031681565b6040516101309190611051565b6101e47f0b3e7944028b9137b341d05bbbc77e68d5b96e4d5186467e8afc61f9897ee55181565b60006001600160e01b03198216637965db0b60e01b148061031f57506301ffc9a760e01b6001600160e01b03198316145b92915050565b60006001600061033484610821565b8152602081019190915260400160002060020154600160a01b900460ff1692915050565b6000806000808480602001905181019061037291906110e6565b60025460405163973cb0a160e01b81529294509092506001600160a01b03169063973cb0a1906103a6908490600401610d06565b602060405180830381865afa1580156103c3573d6000803e3d6000fd5b505050506040513d601f19601f820116820180604052508101906103e7919061113d565b1561040e576000828060200190518101906104029190611169565b96919550909350505050565b60009590945092505050565b60009081526000805160206112a5833981519152602052604090206001015490565b6104458261041a565b61044e8161086d565b610458838361087a565b50505050565b6001600160a01b03811633146104875760405163334bd91960e11b815260040160405180910390fd5b610491828261091f565b505050565b7ff0c57e16840df040f15088dc2f81fe391c3923bec73e23a9662efc9c229c6a008054600160401b810460ff1615906001600160401b03166000811580156104db5750825b90506000826001600160401b031660011480156104f75750303b155b905081158015610505575080155b156105235760405163f92ee8a960e01b815260040160405180910390fd5b845467ffffffffffffffff19166001178555831561054d57845460ff60401b1916600160401b1785555b61055561099b565b61057f7fa49807205ce4d355092ef5a8a18f56e8913cf4a201fbe287825b095693c217758961087a565b506105ca7f0b3e7944028b9137b341d05bbbc77e68d5b96e4d5186467e8afc61f9897ee5517fa49807205ce4d355092ef5a8a18f56e8913cf4a201fbe287825b095693c217756109a5565b6000805460ff1916881515179055600280546001600160a01b0319166001600160a01b038816179055831561063e57845460ff60401b191685556040517fc7f505b2f371ae2175ee4913f4499e1f2633a7b5936321eed1cdaeb6115181d290610635906001906111a4565b60405180910390a15b5050505050505050565b7f0b3e7944028b9137b341d05bbbc77e68d5b96e4d5186467e8afc61f9897ee5516106728161086d565b60005b8260400151518110156104915760008360400151828151811061069a5761069a6111b2565b602002602001015190506000806106b083610358565b9150915060006106bf83610821565b600081815260016020526040902060020154909150600160a01b900460ff16156106ec57505050506107d7565b6001600160a01b038316610746576000546040517f350b0c44b10d50caae2cf501fa202cd33b1887500d0fa784c7a33c938c9c3481916107359160ff90911690879086906111fa565b60405180910390a1505050506107d7565b60408051608081018252885181526001600160a01b039485166020808301918252808b015187168385019081526001606085018181526000978852928190529490952092518355905192820180546001600160a01b031916938716939093179092559151600290920180549151929094166001600160a81b031990911617600160a01b911515919091021790915550505b806107e18161123f565b915050610675565b60009182526000805160206112a5833981519152602090815260408084206001600160a01b0393909316845291905290205460ff1690565b6000816040516020016108349190611281565b604051602081830303815290604052805190602001209050919050565b61085a8261041a565b6108638161086d565b610458838361091f565b6108778133610a08565b50565b60006000805160206112a583398151915261089584846107e9565b610915576000848152602082815260408083206001600160a01b03871684529091529020805460ff191660011790556108cb3390565b6001600160a01b0316836001600160a01b0316857f2f8788117e7eff1d82e926ec794901d17c78024a50270940304540a733656f0d60405160405180910390a4600191505061031f565b600091505061031f565b60006000805160206112a583398151915261093a84846107e9565b15610915576000848152602082815260408083206001600160a01b0387168085529252808320805460ff1916905551339287917ff6391f5c32d9c69d2a47ea670b442974b53935d1edc7fd64eb21e047a839171b9190a4600191505061031f565b6109a3610a40565b565b6000805160206112a583398151915260006109bf8461041a565b600085815260208490526040808220600101869055519192508491839187917fbd79b86ffe0ab8e8776151514217cd7cacd52c909f66475c3af44e129f0b00ff9190a450505050565b610a1282826107e9565b610a3c57808260405163e2517d3f60e01b8152600401610a33929190610ce4565b60405180910390fd5b5050565b7ff0c57e16840df040f15088dc2f81fe391c3923bec73e23a9662efc9c229c6a0054600160401b900460ff166109a357604051631afcd79f60e31b815260040160405180910390fd5b6001600160e01b031981165b811461087757600080fd5b803561031f81610a89565b600060208284031215610ac057610ac0600080fd5b6000610acc8484610aa0565b949350505050565b8015155b82525050565b6020810161031f8284610ad4565b60006001600160a01b03821661031f565b610a9581610aec565b803561031f81610afd565b600060208284031215610b2657610b26600080fd5b6000610acc8484610b06565b80610a95565b803561031f81610b32565b600060208284031215610b5857610b58600080fd5b6000610acc8484610b38565b80610ad8565b610ad881610aec565b60808101610b818287610b64565b610b8e6020830186610b6a565b610b9b6040830185610b6a565b610ba86060830184610ad4565b95945050505050565b634e487b7160e01b600052604160045260246000fd5b601f19601f83011681018181106001600160401b0382111715610bec57610bec610bb1565b6040525050565b6000610bfe60405190565b9050610c0a8282610bc7565b919050565b60006001600160401b03821115610c2857610c28610bb1565b601f19601f83011660200192915050565b82818337506000910152565b6000610c58610c5384610c0f565b610bf3565b905082815260208101848484011115610c7357610c73600080fd5b610c7e848285610c39565b509392505050565b600082601f830112610c9a57610c9a600080fd5b8135610acc848260208601610c45565b600060208284031215610cbf57610cbf600080fd5b81356001600160401b03811115610cd857610cd8600080fd5b610acc84828501610c86565b60408101610cf28285610b6a565b610cff6020830184610b64565b9392505050565b6020810161031f8284610b64565b60008060408385031215610d2a57610d2a600080fd5b6000610d368585610b38565b9250506020610d4785828601610b06565b9150509250929050565b801515610a95565b803561031f81610d51565b600080600060608486031215610d7c57610d7c600080fd5b6000610d888686610b06565b9350506020610d9986828701610d59565b9250506040610daa86828701610b06565b9150509250925092565b60006001600160401b03821115610dcd57610dcd610bb1565b5060209081020190565b6000610de5610c5384610db4565b83815290506020808201908402830185811115610e0457610e04600080fd5b835b81811015610e445780356001600160401b03811115610e2757610e27600080fd5b808601610e348982610c86565b8552505060209283019201610e06565b5050509392505050565b600082601f830112610e6257610e62600080fd5b8135610acc848260208601610dd7565b6004811061087757600080fd5b803561031f81610e72565b60006101608284031215610ea057610ea0600080fd5b610eab610160610bf3565b90506000610eb98484610b38565b8252506020610eca84848301610b06565b60208301525060408201356001600160401b03811115610eec57610eec600080fd5b610ef884828501610e4e565b6040830152506060610f0c84828501610d59565b60608301525060808201356001600160401b03811115610f2e57610f2e600080fd5b610f3a84828501610c86565b60808301525060a08201356001600160401b03811115610f5c57610f5c600080fd5b610f6884828501610c86565b60a08301525060c0610f7c84828501610b38565b60c08301525060e0610f9084828501610e7f565b60e0830152506101008201356001600160401b03811115610fb357610fb3600080fd5b610fbf84828501610c86565b61010083015250610120610fd584828501610b38565b61012083015250610140610feb84828501610b38565b6101408301525092915050565b60006020828403121561100d5761100d600080fd5b81356001600160401b0381111561102657611026600080fd5b610acc84828501610e8a565b600061031f82610aec565b600061031f82611032565b610ad88161103d565b6020810161031f8284611048565b60005b8381101561107a578181015183820152602001611062565b50506000910152565b6000611091610c5384610c0f565b9050828152602081018484840111156110ac576110ac600080fd5b610c7e84828561105f565b600082601f8301126110cb576110cb600080fd5b8151610acc848260208601611083565b805161031f81610b32565b600080604083850312156110fc576110fc600080fd5b82516001600160401b0381111561111557611115600080fd5b611121858286016110b7565b9250506020610d47858286016110db565b805161031f81610d51565b60006020828403121561115257611152600080fd5b6000610acc8484611132565b805161031f81610afd565b60006020828403121561117e5761117e600080fd5b6000610acc848461115e565b60006001600160401b03821661031f565b610ad88161118a565b6020810161031f828461119b565b634e487b7160e01b600052603260045260246000fd5b60006111d2825190565b8084526020840193506111e981856020860161105f565b601f01601f19169290920192915050565b606081016112088286610ad4565b818103602083015261121a81856111c8565b9050610acc6040830184610b64565b634e487b7160e01b600052601160045260246000fd5b6000600019820361125257611252611229565b5060010190565b600061031f8260601b90565b600061031f82611259565b610ad861127c82610aec565b611265565b600061128d8284611270565b621692d560ea1b6014830190815291601701610cff56fe02dd7bc7dec4dceedda775e58dd541e08a116c6c53815c0bd028192f7b626800a164736f6c6343000814000a",
  "devdoc": {
    "errors": {
      "AccessControlBadConfirmation()": [
        {
          "details": "The caller of a function is not the expected one. NOTE: Don't confuse with {AccessControlUnauthorizedAccount}."
        }
      ],
      "AccessControlUnauthorizedAccount(address,bytes32)": [
        {
          "details": "The `account` is missing a role."
        }
      ],
      "InvalidInitialization()": [
        {
          "details": "The contract is already initialized."
        }
      ],
      "NotInitializing()": [
        {
          "details": "The contract is not initializing."
        }
      ]
    },
    "events": {
      "Initialized(uint64)": {
        "details": "Triggered when the contract has been initialized or reinitialized."
      },
      "RoleAdminChanged(bytes32,bytes32,bytes32)": {
        "details": "Emitted when `newAdminRole` is set as ``role``'s admin role, replacing `previousAdminRole` `DEFAULT_ADMIN_ROLE` is the starting admin for all roles, despite {RoleAdminChanged} not being emitted signaling this."
      },
      "RoleGranted(bytes32,address,address)": {
        "details": "Emitted when `account` is granted `role`. `sender` is the account that originated the contract call, an admin role bearer except when using {AccessControl-_setupRole}."
      },
      "RoleRevoked(bytes32,address,address)": {
        "details": "Emitted when `account` is revoked `role`. `sender` is the account that originated the contract call:   - if using `revokeRole`, it is the admin role bearer   - if using `renounceRole`, it is the role bearer (i.e. `account`)"
      }
    },
    "kind": "dev",
    "methods": {
      "getRoleAdmin(bytes32)": {
        "details": "Returns the admin role that controls `role`. See {grantRole} and {revokeRole}. To change a role's admin, use {_setRoleAdmin}."
      },
      "grantRole(bytes32,address)": {
        "details": "Grants `role` to `account`. If `account` had not been already granted `role`, emits a {RoleGranted} event. Requirements: - the caller must have ``role``'s admin role. May emit a {RoleGranted} event."
      },
      "hasRole(bytes32,address)": {
        "details": "Returns `true` if `account` has been granted `role`."
      },
      "renounceRole(bytes32,address)": {
        "details": "Revokes `role` from the calling account. Roles are often managed via {grantRole} and {revokeRole}: this function's purpose is to provide a mechanism for accounts to lose their privileges if they are compromised (such as when a trusted device is misplaced). If the calling account had been revoked `role`, emits a {RoleRevoked} event. Requirements: - the caller must be `callerConfirmation`. May emit a {RoleRevoked} event."
      },
      "revokeRole(bytes32,address)": {
        "details": "Revokes `role` from `account`. If `account` had been granted `role`, emits a {RoleRevoked} event. Requirements: - the caller must have ``role``'s admin role. May emit a {RoleRevoked} event."
      },
      "supportsInterface(bytes4)": {
        "details": "See {IERC165-supportsInterface}."
      }
    },
    "version": 1
  },
  "userdoc": {
    "kind": "user",
    "methods": {},
    "version": 1
  },
  "storageLayout": {
    "storage": [
      {
        "astId": 1220,
        "contract": "contracts/oracle/ComplianceRegistry.sol:ComplianceRegistry",
        "label": "isWhitelistRegistry",
        "offset": 0,
        "slot": "0",
        "type": "t_bool"
      },
      {
        "astId": 1225,
        "contract": "contracts/oracle/ComplianceRegistry.sol:ComplianceRegistry",
        "label": "complianceList",
        "offset": 0,
        "slot": "1",
        "type": "t_mapping(t_bytes32,t_struct(Compliance)819_storage)"
      },
      {
        "astId": 1228,
        "contract": "contracts/oracle/ComplianceRegistry.sol:ComplianceRegistry",
        "label": "networkRegistry",
        "offset": 0,
        "slot": "2",
        "type": "t_contract(INetworkSupportedRegistry)934"
      }
    ],
    "types": {
      "t_address": {
        "encoding": "inplace",
        "label": "address",
        "numberOfBytes": "20"
      },
      "t_bool": {
        "encoding": "inplace",
        "label": "bool",
        "numberOfBytes": "1"
      },
      "t_bytes32": {
        "encoding": "inplace",
        "label": "bytes32",
        "numberOfBytes": "32"
      },
      "t_contract(INetworkSupportedRegistry)934": {
        "encoding": "inplace",
        "label": "contract INetworkSupportedRegistry",
        "numberOfBytes": "20"
      },
      "t_mapping(t_bytes32,t_struct(Compliance)819_storage)": {
        "encoding": "mapping",
        "key": "t_bytes32",
        "label": "mapping(bytes32 => struct IComplianceEntry.Compliance)",
        "numberOfBytes": "32",
        "value": "t_struct(Compliance)819_storage"
      },
      "t_struct(Compliance)819_storage": {
        "encoding": "inplace",
        "label": "struct IComplianceEntry.Compliance",
        "members": [
          {
            "astId": 812,
            "contract": "contracts/oracle/ComplianceRegistry.sol:ComplianceRegistry",
            "label": "proposalId",
            "offset": 0,
            "slot": "0",
            "type": "t_bytes32"
          },
          {
            "astId": 814,
            "contract": "contracts/oracle/ComplianceRegistry.sol:ComplianceRegistry",
            "label": "target",
            "offset": 0,
            "slot": "1",
            "type": "t_address"
          },
          {
            "astId": 816,
            "contract": "contracts/oracle/ComplianceRegistry.sol:ComplianceRegistry",
            "label": "author",
            "offset": 0,
            "slot": "2",
            "type": "t_address"
          },
          {
            "astId": 818,
            "contract": "contracts/oracle/ComplianceRegistry.sol:ComplianceRegistry",
            "label": "isInList",
            "offset": 20,
            "slot": "2",
            "type": "t_bool"
          }
        ],
        "numberOfBytes": "96"
      }
    }
  }
}