{
  "address": "0x311153e9469889e5c9CCE68A8B1DF45369c38f2c",
  "abi": [
    {
      "inputs": [
        {
          "internalType": "bool",
          "name": "_isWhitelistRegistry",
          "type": "bool"
        },
        {
          "internalType": "address",
          "name": "_networkRegistry",
          "type": "address"
        }
      ],
      "stateMutability": "nonpayable",
      "type": "constructor"
    },
    {
      "anonymous": false,
      "inputs": [
        {
          "indexed": false,
          "internalType": "bool",
          "name": "isWhitelistRegistry",
          "type": "bool"
        },
        {
          "indexed": false,
          "internalType": "bytes",
          "name": "data",
          "type": "bytes"
        },
        {
          "indexed": false,
          "internalType": "bytes32",
          "name": "networkHash",
          "type": "bytes32"
        }
      ],
      "name": "AddProposalToAnotherNetworkList",
      "type": "event"
    },
    {
      "anonymous": false,
      "inputs": [
        {
          "indexed": true,
          "internalType": "bytes32",
          "name": "role",
          "type": "bytes32"
        },
        {
          "indexed": true,
          "internalType": "bytes32",
          "name": "previousAdminRole",
          "type": "bytes32"
        },
        {
          "indexed": true,
          "internalType": "bytes32",
          "name": "newAdminRole",
          "type": "bytes32"
        }
      ],
      "name": "RoleAdminChanged",
      "type": "event"
    },
    {
      "anonymous": false,
      "inputs": [
        {
          "indexed": true,
          "internalType": "bytes32",
          "name": "role",
          "type": "bytes32"
        },
        {
          "indexed": true,
          "internalType": "address",
          "name": "account",
          "type": "address"
        },
        {
          "indexed": true,
          "internalType": "address",
          "name": "sender",
          "type": "address"
        }
      ],
      "name": "RoleGranted",
      "type": "event"
    },
    {
      "anonymous": false,
      "inputs": [
        {
          "indexed": true,
          "internalType": "bytes32",
          "name": "role",
          "type": "bytes32"
        },
        {
          "indexed": true,
          "internalType": "address",
          "name": "account",
          "type": "address"
        },
        {
          "indexed": true,
          "internalType": "address",
          "name": "sender",
          "type": "address"
        }
      ],
      "name": "RoleRevoked",
      "type": "event"
    },
    {
      "inputs": [],
      "name": "ADMIN_ROLE",
      "outputs": [
        {
          "internalType": "bytes32",
          "name": "",
          "type": "bytes32"
        }
      ],
      "stateMutability": "view",
      "type": "function"
    },
    {
      "inputs": [],
      "name": "COMPLIANCE_REGISTRY_STUB_ROLE",
      "outputs": [
        {
          "internalType": "bytes32",
          "name": "",
          "type": "bytes32"
        }
      ],
      "stateMutability": "view",
      "type": "function"
    },
    {
      "inputs": [],
      "name": "DEFAULT_ADMIN_ROLE",
      "outputs": [
        {
          "internalType": "bytes32",
          "name": "",
          "type": "bytes32"
        }
      ],
      "stateMutability": "view",
      "type": "function"
    },
    {
      "inputs": [
        {
          "components": [
            {
              "internalType": "bytes32",
              "name": "id",
              "type": "bytes32"
            },
            {
              "internalType": "address",
              "name": "author",
              "type": "address"
            },
            {
              "internalType": "bytes[]",
              "name": "targets",
              "type": "bytes[]"
            },
            {
              "internalType": "bool",
              "name": "isWhitelist",
              "type": "bool"
            },
            {
              "internalType": "string",
              "name": "description",
              "type": "string"
            },
            {
              "internalType": "uint256",
              "name": "timestamp",
              "type": "uint256"
            },
            {
              "internalType": "enum ProposalCommon.ProposalStatus",
              "name": "status",
              "type": "uint8"
            },
            {
              "internalType": "bytes",
              "name": "signature",
              "type": "bytes"
            },
            {
              "internalType": "uint256",
              "name": "voters",
              "type": "uint256"
            },
            {
              "internalType": "uint256",
              "name": "activeNodes",
              "type": "uint256"
            }
          ],
          "internalType": "struct ProposalCommon.Proposal",
          "name": "proposal",
          "type": "tuple"
        }
      ],
      "name": "addProposalToList",
      "outputs": [],
      "stateMutability": "nonpayable",
      "type": "function"
    },
    {
      "inputs": [
        {
          "internalType": "address",
          "name": "account",
          "type": "address"
        }
      ],
      "name": "checkAddress",
      "outputs": [
        {
          "internalType": "bool",
          "name": "",
          "type": "bool"
        }
      ],
      "stateMutability": "view",
      "type": "function"
    },
    {
      "inputs": [
        {
          "internalType": "address",
          "name": "",
          "type": "address"
        }
      ],
      "name": "complianceList",
      "outputs": [
        {
          "internalType": "bytes32",
          "name": "proposalId",
          "type": "bytes32"
        },
        {
          "internalType": "address",
          "name": "author",
          "type": "address"
        },
        {
          "internalType": "string",
          "name": "description",
          "type": "string"
        },
        {
          "internalType": "bool",
          "name": "isInList",
          "type": "bool"
        }
      ],
      "stateMutability": "view",
      "type": "function"
    },
    {
      "inputs": [
        {
          "internalType": "bytes",
          "name": "data",
          "type": "bytes"
        }
      ],
      "name": "decodeBytes",
      "outputs": [
        {
          "internalType": "address",
          "name": "",
          "type": "address"
        },
        {
          "internalType": "bytes32",
          "name": "",
          "type": "bytes32"
        }
      ],
      "stateMutability": "view",
      "type": "function"
    },
    {
      "inputs": [
        {
          "internalType": "bytes32",
          "name": "role",
          "type": "bytes32"
        }
      ],
      "name": "getRoleAdmin",
      "outputs": [
        {
          "internalType": "bytes32",
          "name": "",
          "type": "bytes32"
        }
      ],
      "stateMutability": "view",
      "type": "function"
    },
    {
      "inputs": [
        {
          "internalType": "bytes32",
          "name": "role",
          "type": "bytes32"
        },
        {
          "internalType": "address",
          "name": "account",
          "type": "address"
        }
      ],
      "name": "grantRole",
      "outputs": [],
      "stateMutability": "nonpayable",
      "type": "function"
    },
    {
      "inputs": [
        {
          "internalType": "bytes32",
          "name": "role",
          "type": "bytes32"
        },
        {
          "internalType": "address",
          "name": "account",
          "type": "address"
        }
      ],
      "name": "hasRole",
      "outputs": [
        {
          "internalType": "bool",
          "name": "",
          "type": "bool"
        }
      ],
      "stateMutability": "view",
      "type": "function"
    },
    {
      "inputs": [],
      "name": "isWhitelistRegistry",
      "outputs": [
        {
          "internalType": "bool",
          "name": "",
          "type": "bool"
        }
      ],
      "stateMutability": "view",
      "type": "function"
    },
    {
      "inputs": [],
      "name": "networkRegistry",
      "outputs": [
        {
          "internalType": "contract INetworkSupportedRegistry",
          "name": "",
          "type": "address"
        }
      ],
      "stateMutability": "view",
      "type": "function"
    },
    {
      "inputs": [
        {
          "internalType": "bytes32",
          "name": "role",
          "type": "bytes32"
        },
        {
          "internalType": "address",
          "name": "account",
          "type": "address"
        }
      ],
      "name": "renounceRole",
      "outputs": [],
      "stateMutability": "nonpayable",
      "type": "function"
    },
    {
      "inputs": [
        {
          "internalType": "bytes32",
          "name": "role",
          "type": "bytes32"
        },
        {
          "internalType": "address",
          "name": "account",
          "type": "address"
        }
      ],
      "name": "revokeRole",
      "outputs": [],
      "stateMutability": "nonpayable",
      "type": "function"
    },
    {
      "inputs": [
        {
          "internalType": "bytes4",
          "name": "interfaceId",
          "type": "bytes4"
        }
      ],
      "name": "supportsInterface",
      "outputs": [
        {
          "internalType": "bool",
          "name": "",
          "type": "bool"
        }
      ],
      "stateMutability": "view",
      "type": "function"
    }
  ],
  "transactionHash": "0xe4d504d51432762ae1bfc708e5a9e88da503263ab0a5a5afb0cfa874b314b544",
  "args": [
    false,
    "0x63e0594cED2a631704D173cD503fc87daFDbbE55"
  ],
  "numDeployments": 1,
  "solcInputHash": "2be97a2cd5a629be0afb44dc4b73dcde",
  "bytecode": "0x60806040523480156200001157600080fd5b506040516200166738038062001667833981016040819052620000349162000219565b6200004f6000805160206200164783398151915233620000c1565b6200008a7f0b3e7944028b9137b341d05bbbc77e68d5b96e4d5186467e8afc61f9897ee55160008051602062001647833981519152620000d1565b6001805460ff191692151592909217909155600380546001600160a01b0319166001600160a01b039092169190911790556200025c565b620000cd82826200011c565b5050565b600082815260208190526040808220600101805490849055905190918391839186917fbd79b86ffe0ab8e8776151514217cd7cacd52c909f66475c3af44e129f0b00ff9190a4505050565b620001288282620001a4565b620000cd576000828152602081815260408083206001600160a01b03851684529091529020805460ff19166001179055620001603390565b6001600160a01b0316816001600160a01b0316837f2f8788117e7eff1d82e926ec794901d17c78024a50270940304540a733656f0d60405160405180910390a45050565b6000828152602081815260408083206001600160a01b038516845290915290205460ff165b92915050565b8015155b8114620001df57600080fd5b50565b8051620001c981620001cf565b60006001600160a01b038216620001c9565b620001d381620001ef565b8051620001c98162000201565b60008060408385031215620002315762000231600080fd5b60006200023f8585620001e2565b925050602062000252858286016200020c565b9150509250929050565b6113db806200026c6000396000f3fe608060405234801561001057600080fd5b50600436106100f55760003560e01c806336568abe11610097578063a217fddf11610066578063a217fddf14610248578063d547741f14610250578063e45f40be14610263578063ef14981b1461028357600080fd5b806336568abe146101d85780633813cbef146101eb57806375b238fc1461020e57806391d148541461023557600080fd5b80630ddcfe8e116100d35780630ddcfe8e14610145578063197621ce14610174578063248a9ca3146101955780632f2ff15d146101c557600080fd5b806301ffc9a7146100fa57806302522cd31461012357806306d57de114610130575b600080fd5b61010d61010836600461099c565b6102aa565b60405161011a91906109cf565b60405180910390f35b60015461010d9060ff1681565b61014361013e366004610d3a565b6102e1565b005b61010d610153366004610d75565b6001600160a01b031660009081526002602052604090206003015460ff1690565b610187610182366004610d96565b610482565b60405161011a929190610de0565b6101b86101a3366004610dfb565b60009081526020819052604090206001015490565b60405161011a9190610e1c565b6101436101d3366004610e2a565b610544565b6101436101e6366004610e2a565b61056a565b6101fe6101f9366004610d75565b6105a9565b60405161011a9493929190610ebd565b6101b87fa49807205ce4d355092ef5a8a18f56e8913cf4a201fbe287825b095693c2177581565b61010d610243366004610e2a565b610668565b6101b8600081565b61014361025e366004610e2a565b610691565b600354610276906001600160a01b031681565b60405161011a9190610f44565b6101b87f0b3e7944028b9137b341d05bbbc77e68d5b96e4d5186467e8afc61f9897ee55181565b60006001600160e01b03198216637965db0b60e01b14806102db57506301ffc9a760e01b6001600160e01b03198316145b92915050565b7f0b3e7944028b9137b341d05bbbc77e68d5b96e4d5186467e8afc61f9897ee55161030c81336106b7565b60005b82604001515181101561047d5760008360400151828151811061033457610334610f52565b6020026020010151905060008061034a83610482565b6001600160a01b038216600090815260026020526040902060030154919350915060ff161561037b5750505061046b565b6001600160a01b0382166103cd576001546040517f350b0c44b10d50caae2cf501fa202cd33b1887500d0fa784c7a33c938c9c3481916103c49160ff9091169086908590610f68565b60405180910390a15b6040805160808082018352885182526020808a01516001600160a01b03908116828501908152928b015184860190815260016060860181905288831660009081526002948590529690962085518155935195840180546001600160a01b031916969092169590951790559251919290919082019061044b9082611071565b50606091909101516003909101805460ff19169115159190911790555050505b806104758161114b565b91505061030f565b505050565b6000806000808480602001905181019061049c91906111c8565b60035460405163973cb0a160e01b81529294509092506001600160a01b03169063973cb0a1906104d0908490600401610e1c565b602060405180830381865afa1580156104ed573d6000803e3d6000fd5b505050506040513d601f19601f820116820180604052508101906105119190611220565b156105385760008280602001905181019061052c919061124c565b96919550909350505050565b60009590945092505050565b60008281526020819052604090206001015461056081336106b7565b61047d838361071b565b6001600160a01b038116331461059b5760405162461bcd60e51b81526004016105929061126d565b60405180910390fd5b6105a5828261079f565b5050565b600260208190526000918252604090912080546001820154928201805491936001600160a01b031692916105dc90610fad565b80601f016020809104026020016040519081016040528092919081815260200182805461060890610fad565b80156106555780601f1061062a57610100808354040283529160200191610655565b820191906000526020600020905b81548152906001019060200180831161063857829003601f168201915b5050506003909301549192505060ff1684565b6000918252602082815260408084206001600160a01b0393909316845291905290205460ff1690565b6000828152602081905260409020600101546106ad81336106b7565b61047d838361079f565b6106c18282610668565b6105a5576106d9816001600160a01b03166014610804565b6106e4836020610804565b6040516020016106f59291906112e2565b60408051601f198184030181529082905262461bcd60e51b82526105929160040161133a565b6107258282610668565b6105a5576000828152602081815260408083206001600160a01b03851684529091529020805460ff1916600117905561075b3390565b6001600160a01b0316816001600160a01b0316837f2f8788117e7eff1d82e926ec794901d17c78024a50270940304540a733656f0d60405160405180910390a45050565b6107a98282610668565b156105a5576000828152602081815260408083206001600160a01b0385168085529252808320805460ff1916905551339285917ff6391f5c32d9c69d2a47ea670b442974b53935d1edc7fd64eb21e047a839171b9190a45050565b6060600061081383600261134b565b61081e90600261136a565b67ffffffffffffffff811115610836576108366109dd565b6040519080825280601f01601f191660200182016040528015610860576020820181803683370190505b509050600360fc1b8160008151811061087b5761087b610f52565b60200101906001600160f81b031916908160001a905350600f60fb1b816001815181106108aa576108aa610f52565b60200101906001600160f81b031916908160001a90535060006108ce84600261134b565b6108d990600161136a565b90505b6001811115610951576f181899199a1a9b1b9c1cb0b131b232b360811b85600f166010811061090d5761090d610f52565b1a60f81b82828151811061092357610923610f52565b60200101906001600160f81b031916908160001a90535060049490941c9361094a8161137d565b90506108dc565b5083156109705760405162461bcd60e51b815260040161059290611394565b9392505050565b6001600160e01b031981165b811461098e57600080fd5b50565b80356102db81610977565b6000602082840312156109b1576109b1600080fd5b60006109bd8484610991565b949350505050565b8015155b82525050565b602081016102db82846109c5565b634e487b7160e01b600052604160045260246000fd5b601f19601f830116810181811067ffffffffffffffff82111715610a1957610a196109dd565b6040525050565b6000610a2b60405190565b9050610a3782826109f3565b919050565b80610983565b80356102db81610a3c565b60006001600160a01b0382166102db565b61098381610a4d565b80356102db81610a5e565b600067ffffffffffffffff821115610a8c57610a8c6109dd565b5060209081020190565b600067ffffffffffffffff821115610ab057610ab06109dd565b601f19601f83011660200192915050565b82818337506000910152565b6000610ae0610adb84610a96565b610a20565b905082815260208101848484011115610afb57610afb600080fd5b610b06848285610ac1565b509392505050565b600082601f830112610b2257610b22600080fd5b81356109bd848260208601610acd565b6000610b40610adb84610a72565b83815290506020808201908402830185811115610b5f57610b5f600080fd5b835b81811015610ba057803567ffffffffffffffff811115610b8357610b83600080fd5b808601610b908982610b0e565b8552505060209283019201610b61565b5050509392505050565b600082601f830112610bbe57610bbe600080fd5b81356109bd848260208601610b32565b801515610983565b80356102db81610bce565b6004811061098e57600080fd5b80356102db81610be1565b60006101408284031215610c0f57610c0f600080fd5b610c1a610140610a20565b90506000610c288484610a42565b8252506020610c3984848301610a67565b602083015250604082013567ffffffffffffffff811115610c5c57610c5c600080fd5b610c6884828501610baa565b6040830152506060610c7c84828501610bd6565b606083015250608082013567ffffffffffffffff811115610c9f57610c9f600080fd5b610cab84828501610b0e565b60808301525060a0610cbf84828501610a42565b60a08301525060c0610cd384828501610bee565b60c08301525060e082013567ffffffffffffffff811115610cf657610cf6600080fd5b610d0284828501610b0e565b60e083015250610100610d1784828501610a42565b61010083015250610120610d2d84828501610a42565b6101208301525092915050565b600060208284031215610d4f57610d4f600080fd5b813567ffffffffffffffff811115610d6957610d69600080fd5b6109bd84828501610bf9565b600060208284031215610d8a57610d8a600080fd5b60006109bd8484610a67565b600060208284031215610dab57610dab600080fd5b813567ffffffffffffffff811115610dc557610dc5600080fd5b6109bd84828501610b0e565b6109c981610a4d565b806109c9565b60408101610dee8285610dd1565b6109706020830184610dda565b600060208284031215610e1057610e10600080fd5b60006109bd8484610a42565b602081016102db8284610dda565b60008060408385031215610e4057610e40600080fd5b6000610e4c8585610a42565b9250506020610e5d85828601610a67565b9150509250929050565b60005b83811015610e82578181015183820152602001610e6a565b50506000910152565b6000610e95825190565b808452602084019350610eac818560208601610e67565b601f01601f19169290920192915050565b60808101610ecb8287610dda565b610ed86020830186610dd1565b8181036040830152610eea8185610e8b565b9050610ef960608301846109c5565b95945050505050565b60006102db6001600160a01b038316610f19565b90565b6001600160a01b031690565b60006102db82610f02565b60006102db82610f25565b6109c981610f30565b602081016102db8284610f3b565b634e487b7160e01b600052603260045260246000fd5b60608101610f7682866109c5565b8181036020830152610f888185610e8b565b90506109bd6040830184610dda565b634e487b7160e01b600052602260045260246000fd5b600281046001821680610fc157607f821691505b602082108103610fd357610fd3610f97565b50919050565b60006102db610f168381565b610fee83610fd9565b815460001960089490940293841b1916921b91909117905550565b600061047d818484610fe5565b818110156105a557611029600082611009565b600101611016565b601f82111561047d576000818152602090206020601f850104810160208510156110585750805b61106a6020601f860104830182611016565b5050505050565b815167ffffffffffffffff81111561108b5761108b6109dd565b6110958254610fad565b6110a0828285611031565b6020601f8311600181146110d457600084156110bc5750858201515b600019600886021c198116600286021786555061112d565b600085815260208120601f198616915b8281101561110457888501518255602094850194600190920191016110e4565b868310156111205784890151600019601f89166008021c191682555b6001600288020188555050505b505050505050565b634e487b7160e01b600052601160045260246000fd5b6000600019820361115e5761115e611135565b5060010190565b6000611173610adb84610a96565b90508281526020810184848401111561118e5761118e600080fd5b610b06848285610e67565b600082601f8301126111ad576111ad600080fd5b81516109bd848260208601611165565b80516102db81610a3c565b600080604083850312156111de576111de600080fd5b825167ffffffffffffffff8111156111f8576111f8600080fd5b61120485828601611199565b9250506020610e5d858286016111bd565b80516102db81610bce565b60006020828403121561123557611235600080fd5b60006109bd8484611215565b80516102db81610a5e565b60006020828403121561126157611261600080fd5b60006109bd8484611241565b602080825281016102db81602f81527f416363657373436f6e74726f6c3a2063616e206f6e6c792072656e6f756e636560208201526e103937b632b9903337b91039b2b63360891b604082015260600190565b60006112ca825190565b6112d8818560208601610e67565b9290920192915050565b7f416363657373436f6e74726f6c3a206163636f756e74200000000000000000008152601701600061131482856112c0565b7001034b99036b4b9b9b4b733903937b6329607d1b815260110191506109bd82846112c0565b602080825281016109708184610e8b565b81810280821583820485141761136357611363611135565b5092915050565b808201808211156102db576102db611135565b60008161138c5761138c611135565b506000190190565b60208082528181019081527f537472696e67733a20686578206c656e67746820696e73756666696369656e746040830152606082016102db56fea164736f6c6343000814000aa49807205ce4d355092ef5a8a18f56e8913cf4a201fbe287825b095693c21775",
  "devdoc": {
    "events": {
      "RoleAdminChanged(bytes32,bytes32,bytes32)": {
        "details": "Emitted when `newAdminRole` is set as ``role``'s admin role, replacing `previousAdminRole` `DEFAULT_ADMIN_ROLE` is the starting admin for all roles, despite {RoleAdminChanged} not being emitted signaling this. _Available since v3.1._"
      },
      "RoleGranted(bytes32,address,address)": {
        "details": "Emitted when `account` is granted `role`. `sender` is the account that originated the contract call, an admin role bearer except when using {AccessControl-_setupRole}."
      },
      "RoleRevoked(bytes32,address,address)": {
        "details": "Emitted when `account` is revoked `role`. `sender` is the account that originated the contract call:   - if using `revokeRole`, it is the admin role bearer   - if using `renounceRole`, it is the role bearer (i.e. `account`)"
      }
    },
    "kind": "dev",
    "methods": {
      "getRoleAdmin(bytes32)": {
        "details": "Returns the admin role that controls `role`. See {grantRole} and {revokeRole}. To change a role's admin, use {_setRoleAdmin}."
      },
      "grantRole(bytes32,address)": {
        "details": "Grants `role` to `account`. If `account` had not been already granted `role`, emits a {RoleGranted} event. Requirements: - the caller must have ``role``'s admin role."
      },
      "hasRole(bytes32,address)": {
        "details": "Returns `true` if `account` has been granted `role`."
      },
      "renounceRole(bytes32,address)": {
        "details": "Revokes `role` from the calling account. Roles are often managed via {grantRole} and {revokeRole}: this function's purpose is to provide a mechanism for accounts to lose their privileges if they are compromised (such as when a trusted device is misplaced). If the calling account had been revoked `role`, emits a {RoleRevoked} event. Requirements: - the caller must be `account`."
      },
      "revokeRole(bytes32,address)": {
        "details": "Revokes `role` from `account`. If `account` had been granted `role`, emits a {RoleRevoked} event. Requirements: - the caller must have ``role``'s admin role."
      },
      "supportsInterface(bytes4)": {
        "details": "See {IERC165-supportsInterface}."
      }
    },
    "version": 1
  },
  "userdoc": {
    "kind": "user",
    "methods": {},
    "version": 1
  },
  "storageLayout": {
    "storage": [
      {
        "astId": 24,
        "contract": "contracts/oracle/ComplianceRegistry.sol:ComplianceRegistry",
        "label": "_roles",
        "offset": 0,
        "slot": "0",
        "type": "t_mapping(t_bytes32,t_struct(RoleData)19_storage)"
      },
      {
        "astId": 831,
        "contract": "contracts/oracle/ComplianceRegistry.sol:ComplianceRegistry",
        "label": "isWhitelistRegistry",
        "offset": 0,
        "slot": "1",
        "type": "t_bool"
      },
      {
        "astId": 836,
        "contract": "contracts/oracle/ComplianceRegistry.sol:ComplianceRegistry",
        "label": "complianceList",
        "offset": 0,
        "slot": "2",
        "type": "t_mapping(t_address,t_struct(Compliance)664_storage)"
      },
      {
        "astId": 839,
        "contract": "contracts/oracle/ComplianceRegistry.sol:ComplianceRegistry",
        "label": "networkRegistry",
        "offset": 0,
        "slot": "3",
        "type": "t_contract(INetworkSupportedRegistry)773"
      }
    ],
    "types": {
      "t_address": {
        "encoding": "inplace",
        "label": "address",
        "numberOfBytes": "20"
      },
      "t_bool": {
        "encoding": "inplace",
        "label": "bool",
        "numberOfBytes": "1"
      },
      "t_bytes32": {
        "encoding": "inplace",
        "label": "bytes32",
        "numberOfBytes": "32"
      },
      "t_contract(INetworkSupportedRegistry)773": {
        "encoding": "inplace",
        "label": "contract INetworkSupportedRegistry",
        "numberOfBytes": "20"
      },
      "t_mapping(t_address,t_bool)": {
        "encoding": "mapping",
        "key": "t_address",
        "label": "mapping(address => bool)",
        "numberOfBytes": "32",
        "value": "t_bool"
      },
      "t_mapping(t_address,t_struct(Compliance)664_storage)": {
        "encoding": "mapping",
        "key": "t_address",
        "label": "mapping(address => struct IComplianceEntry.Compliance)",
        "numberOfBytes": "32",
        "value": "t_struct(Compliance)664_storage"
      },
      "t_mapping(t_bytes32,t_struct(RoleData)19_storage)": {
        "encoding": "mapping",
        "key": "t_bytes32",
        "label": "mapping(bytes32 => struct AccessControl.RoleData)",
        "numberOfBytes": "32",
        "value": "t_struct(RoleData)19_storage"
      },
      "t_string_storage": {
        "encoding": "bytes",
        "label": "string",
        "numberOfBytes": "32"
      },
      "t_struct(Compliance)664_storage": {
        "encoding": "inplace",
        "label": "struct IComplianceEntry.Compliance",
        "members": [
          {
            "astId": 657,
            "contract": "contracts/oracle/ComplianceRegistry.sol:ComplianceRegistry",
            "label": "proposalId",
            "offset": 0,
            "slot": "0",
            "type": "t_bytes32"
          },
          {
            "astId": 659,
            "contract": "contracts/oracle/ComplianceRegistry.sol:ComplianceRegistry",
            "label": "author",
            "offset": 0,
            "slot": "1",
            "type": "t_address"
          },
          {
            "astId": 661,
            "contract": "contracts/oracle/ComplianceRegistry.sol:ComplianceRegistry",
            "label": "description",
            "offset": 0,
            "slot": "2",
            "type": "t_string_storage"
          },
          {
            "astId": 663,
            "contract": "contracts/oracle/ComplianceRegistry.sol:ComplianceRegistry",
            "label": "isInList",
            "offset": 0,
            "slot": "3",
            "type": "t_bool"
          }
        ],
        "numberOfBytes": "128"
      },
      "t_struct(RoleData)19_storage": {
        "encoding": "inplace",
        "label": "struct AccessControl.RoleData",
        "members": [
          {
            "astId": 16,
            "contract": "contracts/oracle/ComplianceRegistry.sol:ComplianceRegistry",
            "label": "members",
            "offset": 0,
            "slot": "0",
            "type": "t_mapping(t_address,t_bool)"
          },
          {
            "astId": 18,
            "contract": "contracts/oracle/ComplianceRegistry.sol:ComplianceRegistry",
            "label": "adminRole",
            "offset": 0,
            "slot": "1",
            "type": "t_bytes32"
          }
        ],
        "numberOfBytes": "64"
      }
    }
  }
}