{
  "address": "0xFfE315080888256671d88639D2F14064946bea5f",
  "abi": [
    {
      "inputs": [
        {
          "internalType": "address",
          "name": "_whitelistRegistry",
          "type": "address"
        },
        {
          "internalType": "address",
          "name": "_blacklistRegistry",
          "type": "address"
        }
      ],
      "stateMutability": "nonpayable",
      "type": "constructor"
    },
    {
      "inputs": [],
      "name": "ComplianceRegistryStub_L1__InvalidConfirmProposalStatus",
      "type": "error"
    },
    {
      "anonymous": false,
      "inputs": [
        {
          "indexed": false,
          "internalType": "bytes32",
          "name": "",
          "type": "bytes32"
        }
      ],
      "name": "AddToBlacklist",
      "type": "event"
    },
    {
      "anonymous": false,
      "inputs": [
        {
          "indexed": false,
          "internalType": "bytes32",
          "name": "",
          "type": "bytes32"
        }
      ],
      "name": "AddToWhitelist",
      "type": "event"
    },
    {
      "anonymous": false,
      "inputs": [
        {
          "indexed": true,
          "internalType": "bytes32",
          "name": "role",
          "type": "bytes32"
        },
        {
          "indexed": true,
          "internalType": "bytes32",
          "name": "previousAdminRole",
          "type": "bytes32"
        },
        {
          "indexed": true,
          "internalType": "bytes32",
          "name": "newAdminRole",
          "type": "bytes32"
        }
      ],
      "name": "RoleAdminChanged",
      "type": "event"
    },
    {
      "anonymous": false,
      "inputs": [
        {
          "indexed": true,
          "internalType": "bytes32",
          "name": "role",
          "type": "bytes32"
        },
        {
          "indexed": true,
          "internalType": "address",
          "name": "account",
          "type": "address"
        },
        {
          "indexed": true,
          "internalType": "address",
          "name": "sender",
          "type": "address"
        }
      ],
      "name": "RoleGranted",
      "type": "event"
    },
    {
      "anonymous": false,
      "inputs": [
        {
          "indexed": true,
          "internalType": "bytes32",
          "name": "role",
          "type": "bytes32"
        },
        {
          "indexed": true,
          "internalType": "address",
          "name": "account",
          "type": "address"
        },
        {
          "indexed": true,
          "internalType": "address",
          "name": "sender",
          "type": "address"
        }
      ],
      "name": "RoleRevoked",
      "type": "event"
    },
    {
      "inputs": [],
      "name": "ADMIN_ROLE",
      "outputs": [
        {
          "internalType": "bytes32",
          "name": "",
          "type": "bytes32"
        }
      ],
      "stateMutability": "view",
      "type": "function"
    },
    {
      "inputs": [],
      "name": "DEFAULT_ADMIN_ROLE",
      "outputs": [
        {
          "internalType": "bytes32",
          "name": "",
          "type": "bytes32"
        }
      ],
      "stateMutability": "view",
      "type": "function"
    },
    {
      "inputs": [],
      "name": "GUARDIAN_NODE",
      "outputs": [
        {
          "internalType": "bytes32",
          "name": "",
          "type": "bytes32"
        }
      ],
      "stateMutability": "view",
      "type": "function"
    },
    {
      "inputs": [],
      "name": "blacklistRegistry",
      "outputs": [
        {
          "internalType": "contract IComplianceRegistry",
          "name": "",
          "type": "address"
        }
      ],
      "stateMutability": "view",
      "type": "function"
    },
    {
      "inputs": [
        {
          "components": [
            {
              "internalType": "bytes32",
              "name": "id",
              "type": "bytes32"
            },
            {
              "internalType": "address",
              "name": "author",
              "type": "address"
            },
            {
              "internalType": "bytes[]",
              "name": "targets",
              "type": "bytes[]"
            },
            {
              "internalType": "bool",
              "name": "isWhitelist",
              "type": "bool"
            },
            {
              "internalType": "string",
              "name": "description",
              "type": "string"
            },
            {
              "internalType": "uint256",
              "name": "timestamp",
              "type": "uint256"
            },
            {
              "internalType": "enum ProposalCommon.ProposalStatus",
              "name": "status",
              "type": "uint8"
            },
            {
              "internalType": "bytes",
              "name": "signature",
              "type": "bytes"
            },
            {
              "internalType": "uint256",
              "name": "voters",
              "type": "uint256"
            },
            {
              "internalType": "uint256",
              "name": "activeNodes",
              "type": "uint256"
            }
          ],
          "internalType": "struct ProposalCommon.Proposal",
          "name": "proposal",
          "type": "tuple"
        }
      ],
      "name": "confirmProposal",
      "outputs": [],
      "stateMutability": "nonpayable",
      "type": "function"
    },
    {
      "inputs": [
        {
          "internalType": "bytes32",
          "name": "role",
          "type": "bytes32"
        }
      ],
      "name": "getRoleAdmin",
      "outputs": [
        {
          "internalType": "bytes32",
          "name": "",
          "type": "bytes32"
        }
      ],
      "stateMutability": "view",
      "type": "function"
    },
    {
      "inputs": [
        {
          "internalType": "bytes32",
          "name": "role",
          "type": "bytes32"
        },
        {
          "internalType": "address",
          "name": "account",
          "type": "address"
        }
      ],
      "name": "grantRole",
      "outputs": [],
      "stateMutability": "nonpayable",
      "type": "function"
    },
    {
      "inputs": [
        {
          "internalType": "bytes32",
          "name": "role",
          "type": "bytes32"
        },
        {
          "internalType": "address",
          "name": "account",
          "type": "address"
        }
      ],
      "name": "hasRole",
      "outputs": [
        {
          "internalType": "bool",
          "name": "",
          "type": "bool"
        }
      ],
      "stateMutability": "view",
      "type": "function"
    },
    {
      "inputs": [
        {
          "internalType": "address",
          "name": "account",
          "type": "address"
        }
      ],
      "name": "isBlacklist",
      "outputs": [
        {
          "internalType": "bool",
          "name": "",
          "type": "bool"
        }
      ],
      "stateMutability": "view",
      "type": "function"
    },
    {
      "inputs": [
        {
          "internalType": "address",
          "name": "account",
          "type": "address"
        }
      ],
      "name": "isWhitelist",
      "outputs": [
        {
          "internalType": "bool",
          "name": "",
          "type": "bool"
        }
      ],
      "stateMutability": "view",
      "type": "function"
    },
    {
      "inputs": [
        {
          "internalType": "bytes32",
          "name": "role",
          "type": "bytes32"
        },
        {
          "internalType": "address",
          "name": "account",
          "type": "address"
        }
      ],
      "name": "renounceRole",
      "outputs": [],
      "stateMutability": "nonpayable",
      "type": "function"
    },
    {
      "inputs": [
        {
          "internalType": "bytes32",
          "name": "role",
          "type": "bytes32"
        },
        {
          "internalType": "address",
          "name": "account",
          "type": "address"
        }
      ],
      "name": "revokeRole",
      "outputs": [],
      "stateMutability": "nonpayable",
      "type": "function"
    },
    {
      "inputs": [
        {
          "internalType": "bytes4",
          "name": "interfaceId",
          "type": "bytes4"
        }
      ],
      "name": "supportsInterface",
      "outputs": [
        {
          "internalType": "bool",
          "name": "",
          "type": "bool"
        }
      ],
      "stateMutability": "view",
      "type": "function"
    },
    {
      "inputs": [],
      "name": "whitelistRegistry",
      "outputs": [
        {
          "internalType": "contract IComplianceRegistry",
          "name": "",
          "type": "address"
        }
      ],
      "stateMutability": "view",
      "type": "function"
    }
  ],
  "transactionHash": "0xfb259308b4a7b526b4432c10726ea5793e738bb35c3b1e34dd341e8cd0d7a4c9",
  "args": [
    "0xFC6Eb6BD38c0F02d3C717DbEbE73123DCC9c0F2a",
    "0xEEB96548617CA0BEc6fd2fe60E656692a171D05d"
  ],
  "numDeployments": 2,
  "solcInputHash": "ecc64e6be28de4c6545072be52b86451",
  "bytecode": "0x60806040523480156200001157600080fd5b506040516200140d3803806200140d833981016040819052620000349162000203565b6200004f600080516020620013ed83398151915233620000bc565b6200008a7ffcb9118960b6d0907e06f4c44256c87d64f757397ce11d189cd0673cb6998c88600080516020620013ed833981519152620000cc565b600180546001600160a01b039384166001600160a01b0319918216179091556002805492909316911617905562000246565b620000c8828262000117565b5050565b600082815260208190526040808220600101805490849055905190918391839186917fbd79b86ffe0ab8e8776151514217cd7cacd52c909f66475c3af44e129f0b00ff9190a4505050565b6200012382826200019f565b620000c8576000828152602081815260408083206001600160a01b03851684529091529020805460ff191660011790556200015b3390565b6001600160a01b0316816001600160a01b0316837f2f8788117e7eff1d82e926ec794901d17c78024a50270940304540a733656f0d60405160405180910390a45050565b6000828152602081815260408083206001600160a01b038516845290915290205460ff165b92915050565b60006001600160a01b038216620001c4565b620001e781620001ca565b8114620001f357600080fd5b50565b8051620001c481620001dc565b600080604083850312156200021b576200021b600080fd5b6000620002298585620001f6565b92505060206200023c85828601620001f6565b9150509250929050565b61119780620002566000396000f3fe608060405234801561001057600080fd5b50600436106100ea5760003560e01c806391d148541161008c578063b0385f9611610066578063b0385f961461020c578063c683630d1461021f578063d547741f14610232578063ed9506381461024557600080fd5b806391d14854146101d15780639c30f3f0146101e4578063a217fddf1461020457600080fd5b8063333e99db116100c8578063333e99db1461015d57806336568abe14610170578063571c81e21461018357806375b238fc146101aa57600080fd5b806301ffc9a7146100ef578063248a9ca3146101185780632f2ff15d14610148575b600080fd5b6101026100fd36600461092b565b610258565b60405161010f919061095e565b60405180910390f35b61013b61012636600461097d565b60009081526020819052604090206001015490565b60405161010f91906109a4565b61015b6101563660046109d7565b61028f565b005b61010261016b366004610a14565b6102ba565b61015b61017e3660046109d7565b61032c565b61013b7ffcb9118960b6d0907e06f4c44256c87d64f757397ce11d189cd0673cb6998c8881565b61013b7fa49807205ce4d355092ef5a8a18f56e8913cf4a201fbe287825b095693c2177581565b6101026101df3660046109d7565b61036b565b6002546101f7906001600160a01b031681565b60405161010f9190610a54565b61013b600081565b61015b61021a366004610d89565b610394565b61010261022d366004610a14565b61052f565b61015b6102403660046109d7565b610620565b6001546101f7906001600160a01b031681565b60006001600160e01b03198216637965db0b60e01b148061028957506301ffc9a760e01b6001600160e01b03198316145b92915050565b6000828152602081905260409020600101546102ab8133610646565b6102b583836106aa565b505050565b6002546040516306ee7f4760e11b81526000916001600160a01b031690630ddcfe8e906102eb908590600401610dcd565b602060405180830381865afa158015610308573d6000803e3d6000fd5b505050506040513d601f19601f820116820180604052508101906102899190610de6565b6001600160a01b038116331461035d5760405162461bcd60e51b815260040161035490610e07565b60405180910390fd5b610367828261072e565b5050565b6000918252602082815260408084206001600160a01b0393909316845291905290205460ff1690565b7ffcb9118960b6d0907e06f4c44256c87d64f757397ce11d189cd0673cb6998c886103bf8133610646565b60028260c0015160038111156103d7576103d7610e5a565b146103f55760405163236ca85f60e11b815260040160405180910390fd5b81606001511561049d576001546040516306d57de160e01b81526001600160a01b03909116906306d57de19061042f90859060040161103f565b600060405180830381600087803b15801561044957600080fd5b505af115801561045d573d6000803e3d6000fd5b505083516040517f487d4fc0309be9202dbae1adaa38187cb5753c7f0c6cf6682b93063f25419647935061049192506109a4565b60405180910390a15050565b6002546040516306d57de160e01b81526001600160a01b03909116906306d57de1906104cd90859060040161103f565b600060405180830381600087803b1580156104e757600080fd5b505af11580156104fb573d6000803e3d6000fd5b505083516040517f23be3f6bc587c6f4b164fd61be90523f663cea6bdb9a1dbd53b1c39e6897662e935061049192506109a4565b6001546040516306ee7f4760e11b81526000916001600160a01b031690630ddcfe8e90610560908590600401610dcd565b602060405180830381865afa15801561057d573d6000803e3d6000fd5b505050506040513d601f19601f820116820180604052508101906105a19190610de6565b801561028957506002546040516306ee7f4760e11b81526001600160a01b0390911690630ddcfe8e906105d8908590600401610dcd565b602060405180830381865afa1580156105f5573d6000803e3d6000fd5b505050506040513d601f19601f820116820180604052508101906106199190610de6565b1592915050565b60008281526020819052604090206001015461063c8133610646565b6102b5838361072e565b610650828261036b565b61036757610668816001600160a01b03166014610793565b610673836020610793565b604051602001610684929190611072565b60408051601f198184030181529082905262461bcd60e51b8252610354916004016110ca565b6106b4828261036b565b610367576000828152602081815260408083206001600160a01b03851684529091529020805460ff191660011790556106ea3390565b6001600160a01b0316816001600160a01b0316837f2f8788117e7eff1d82e926ec794901d17c78024a50270940304540a733656f0d60405160405180910390a45050565b610738828261036b565b15610367576000828152602081815260408083206001600160a01b0385168085529252808320805460ff1916905551339285917ff6391f5c32d9c69d2a47ea670b442974b53935d1edc7fd64eb21e047a839171b9190a45050565b606060006107a28360026110f1565b6107ad906002611110565b67ffffffffffffffff8111156107c5576107c5610a62565b6040519080825280601f01601f1916602001820160405280156107ef576020820181803683370190505b509050600360fc1b8160008151811061080a5761080a611123565b60200101906001600160f81b031916908160001a905350600f60fb1b8160018151811061083957610839611123565b60200101906001600160f81b031916908160001a905350600061085d8460026110f1565b610868906001611110565b90505b60018111156108e0576f181899199a1a9b1b9c1cb0b131b232b360811b85600f166010811061089c5761089c611123565b1a60f81b8282815181106108b2576108b2611123565b60200101906001600160f81b031916908160001a90535060049490941c936108d981611139565b905061086b565b5083156108ff5760405162461bcd60e51b815260040161035490611150565b9392505050565b6001600160e01b031981165b811461091d57600080fd5b50565b803561028981610906565b60006020828403121561094057610940600080fd5b600061094c8484610920565b949350505050565b8015155b82525050565b602081016102898284610954565b80610912565b80356102898161096c565b60006020828403121561099257610992600080fd5b600061094c8484610972565b80610958565b60208101610289828461099e565b60006001600160a01b038216610289565b610912816109b2565b8035610289816109c3565b600080604083850312156109ed576109ed600080fd5b60006109f98585610972565b9250506020610a0a858286016109cc565b9150509250929050565b600060208284031215610a2957610a29600080fd5b600061094c84846109cc565b6000610289826109b2565b600061028982610a35565b61095881610a40565b602081016102898284610a4b565b634e487b7160e01b600052604160045260246000fd5b601f19601f830116810181811067ffffffffffffffff82111715610a9e57610a9e610a62565b6040525050565b6000610ab060405190565b9050610abc8282610a78565b919050565b600067ffffffffffffffff821115610adb57610adb610a62565b5060209081020190565b600067ffffffffffffffff821115610aff57610aff610a62565b601f19601f83011660200192915050565b82818337506000910152565b6000610b2f610b2a84610ae5565b610aa5565b905082815260208101848484011115610b4a57610b4a600080fd5b610b55848285610b10565b509392505050565b600082601f830112610b7157610b71600080fd5b813561094c848260208601610b1c565b6000610b8f610b2a84610ac1565b83815290506020808201908402830185811115610bae57610bae600080fd5b835b81811015610bef57803567ffffffffffffffff811115610bd257610bd2600080fd5b808601610bdf8982610b5d565b8552505060209283019201610bb0565b5050509392505050565b600082601f830112610c0d57610c0d600080fd5b813561094c848260208601610b81565b801515610912565b803561028981610c1d565b6004811061091d57600080fd5b803561028981610c30565b60006101408284031215610c5e57610c5e600080fd5b610c69610140610aa5565b90506000610c778484610972565b8252506020610c88848483016109cc565b602083015250604082013567ffffffffffffffff811115610cab57610cab600080fd5b610cb784828501610bf9565b6040830152506060610ccb84828501610c25565b606083015250608082013567ffffffffffffffff811115610cee57610cee600080fd5b610cfa84828501610b5d565b60808301525060a0610d0e84828501610972565b60a08301525060c0610d2284828501610c3d565b60c08301525060e082013567ffffffffffffffff811115610d4557610d45600080fd5b610d5184828501610b5d565b60e083015250610100610d6684828501610972565b61010083015250610120610d7c84828501610972565b6101208301525092915050565b600060208284031215610d9e57610d9e600080fd5b813567ffffffffffffffff811115610db857610db8600080fd5b61094c84828501610c48565b610958816109b2565b602081016102898284610dc4565b805161028981610c1d565b600060208284031215610dfb57610dfb600080fd5b600061094c8484610ddb565b6020808252810161028981602f81527f416363657373436f6e74726f6c3a2063616e206f6e6c792072656e6f756e636560208201526e103937b632b9903337b91039b2b63360891b604082015260600190565b634e487b7160e01b600052602160045260246000fd5b60005b83811015610e8b578181015183820152602001610e73565b50506000910152565b6000610e9e825190565b808452602084019350610eb5818560208601610e70565b601f01601f19169290920192915050565b60006108ff8383610e94565b6000610edc825190565b80845260208401935083602082028501610ef68560200190565b8060005b85811015610f2b5784840389528151610f138582610ec6565b94506020830160209a909a0199925050600101610efa565b5091979650505050505050565b6004811061091d5761091d610e5a565b80610abc81610f38565b600061028982610f48565b61095881610f52565b8051600090610140840190610f7b858261099e565b506020830151610f8e6020860182610dc4565b5060408301518482036040860152610fa68282610ed2565b9150506060830151610fbb6060860182610954565b5060808301518482036080860152610fd38282610e94565b91505060a0830151610fe860a086018261099e565b5060c0830151610ffb60c0860182610f5d565b5060e083015184820360e08601526110138282610e94565b91505061010083015161102a61010086018261099e565b50610120830151610b5561012086018261099e565b602080825281016108ff8184610f66565b600061105a825190565b611068818560208601610e70565b9290920192915050565b7f416363657373436f6e74726f6c3a206163636f756e7420000000000000000000815260170160006110a48285611050565b7001034b99036b4b9b9b4b733903937b6329607d1b8152601101915061094c8284611050565b602080825281016108ff8184610e94565b634e487b7160e01b600052601160045260246000fd5b818102808215838204851417611109576111096110db565b5092915050565b80820180821115610289576102896110db565b634e487b7160e01b600052603260045260246000fd5b600081611148576111486110db565b506000190190565b60208082528181019081527f537472696e67733a20686578206c656e67746820696e73756666696369656e7460408301526060820161028956fea164736f6c6343000814000aa49807205ce4d355092ef5a8a18f56e8913cf4a201fbe287825b095693c21775",
  "devdoc": {
    "events": {
      "RoleAdminChanged(bytes32,bytes32,bytes32)": {
        "details": "Emitted when `newAdminRole` is set as ``role``'s admin role, replacing `previousAdminRole` `DEFAULT_ADMIN_ROLE` is the starting admin for all roles, despite {RoleAdminChanged} not being emitted signaling this. _Available since v3.1._"
      },
      "RoleGranted(bytes32,address,address)": {
        "details": "Emitted when `account` is granted `role`. `sender` is the account that originated the contract call, an admin role bearer except when using {AccessControl-_setupRole}."
      },
      "RoleRevoked(bytes32,address,address)": {
        "details": "Emitted when `account` is revoked `role`. `sender` is the account that originated the contract call:   - if using `revokeRole`, it is the admin role bearer   - if using `renounceRole`, it is the role bearer (i.e. `account`)"
      }
    },
    "kind": "dev",
    "methods": {
      "getRoleAdmin(bytes32)": {
        "details": "Returns the admin role that controls `role`. See {grantRole} and {revokeRole}. To change a role's admin, use {_setRoleAdmin}."
      },
      "grantRole(bytes32,address)": {
        "details": "Grants `role` to `account`. If `account` had not been already granted `role`, emits a {RoleGranted} event. Requirements: - the caller must have ``role``'s admin role."
      },
      "hasRole(bytes32,address)": {
        "details": "Returns `true` if `account` has been granted `role`."
      },
      "renounceRole(bytes32,address)": {
        "details": "Revokes `role` from the calling account. Roles are often managed via {grantRole} and {revokeRole}: this function's purpose is to provide a mechanism for accounts to lose their privileges if they are compromised (such as when a trusted device is misplaced). If the calling account had been revoked `role`, emits a {RoleRevoked} event. Requirements: - the caller must be `account`."
      },
      "revokeRole(bytes32,address)": {
        "details": "Revokes `role` from `account`. If `account` had been granted `role`, emits a {RoleRevoked} event. Requirements: - the caller must have ``role``'s admin role."
      },
      "supportsInterface(bytes4)": {
        "details": "See {IERC165-supportsInterface}."
      }
    },
    "version": 1
  },
  "userdoc": {
    "kind": "user",
    "methods": {},
    "version": 1
  },
  "storageLayout": {
    "storage": [
      {
        "astId": 24,
        "contract": "contracts/oracle/ComplianceRegistryStub_L1.sol:ComplianceRegistryStub_L1",
        "label": "_roles",
        "offset": 0,
        "slot": "0",
        "type": "t_mapping(t_bytes32,t_struct(RoleData)19_storage)"
      },
      {
        "astId": 1980,
        "contract": "contracts/oracle/ComplianceRegistryStub_L1.sol:ComplianceRegistryStub_L1",
        "label": "whitelistRegistry",
        "offset": 0,
        "slot": "1",
        "type": "t_contract(IComplianceRegistry)1311"
      },
      {
        "astId": 1983,
        "contract": "contracts/oracle/ComplianceRegistryStub_L1.sol:ComplianceRegistryStub_L1",
        "label": "blacklistRegistry",
        "offset": 0,
        "slot": "2",
        "type": "t_contract(IComplianceRegistry)1311"
      }
    ],
    "types": {
      "t_address": {
        "encoding": "inplace",
        "label": "address",
        "numberOfBytes": "20"
      },
      "t_bool": {
        "encoding": "inplace",
        "label": "bool",
        "numberOfBytes": "1"
      },
      "t_bytes32": {
        "encoding": "inplace",
        "label": "bytes32",
        "numberOfBytes": "32"
      },
      "t_contract(IComplianceRegistry)1311": {
        "encoding": "inplace",
        "label": "contract IComplianceRegistry",
        "numberOfBytes": "20"
      },
      "t_mapping(t_address,t_bool)": {
        "encoding": "mapping",
        "key": "t_address",
        "label": "mapping(address => bool)",
        "numberOfBytes": "32",
        "value": "t_bool"
      },
      "t_mapping(t_bytes32,t_struct(RoleData)19_storage)": {
        "encoding": "mapping",
        "key": "t_bytes32",
        "label": "mapping(bytes32 => struct AccessControl.RoleData)",
        "numberOfBytes": "32",
        "value": "t_struct(RoleData)19_storage"
      },
      "t_struct(RoleData)19_storage": {
        "encoding": "inplace",
        "label": "struct AccessControl.RoleData",
        "members": [
          {
            "astId": 16,
            "contract": "contracts/oracle/ComplianceRegistryStub_L1.sol:ComplianceRegistryStub_L1",
            "label": "members",
            "offset": 0,
            "slot": "0",
            "type": "t_mapping(t_address,t_bool)"
          },
          {
            "astId": 18,
            "contract": "contracts/oracle/ComplianceRegistryStub_L1.sol:ComplianceRegistryStub_L1",
            "label": "adminRole",
            "offset": 0,
            "slot": "1",
            "type": "t_bytes32"
          }
        ],
        "numberOfBytes": "64"
      }
    }
  }
}