{
  "address": "0xaA939f0C013751199237fae483448d5cC7cD9534",
  "abi": [
    {
      "inputs": [],
      "name": "AccessControlBadConfirmation",
      "type": "error"
    },
    {
      "inputs": [
        {
          "internalType": "address",
          "name": "account",
          "type": "address"
        },
        {
          "internalType": "bytes32",
          "name": "neededRole",
          "type": "bytes32"
        }
      ],
      "name": "AccessControlUnauthorizedAccount",
      "type": "error"
    },
    {
      "inputs": [],
      "name": "ComplianceRegistryStub_L1__InvalidConfirmProposalStatus",
      "type": "error"
    },
    {
      "inputs": [],
      "name": "InvalidInitialization",
      "type": "error"
    },
    {
      "inputs": [],
      "name": "NotInitializing",
      "type": "error"
    },
    {
      "anonymous": false,
      "inputs": [
        {
          "indexed": false,
          "internalType": "address",
          "name": "",
          "type": "address"
        },
        {
          "indexed": false,
          "internalType": "bool",
          "name": "",
          "type": "bool"
        },
        {
          "indexed": false,
          "internalType": "bytes32",
          "name": "",
          "type": "bytes32"
        }
      ],
      "name": "AddProposalToRegistryList",
      "type": "event"
    },
    {
      "anonymous": false,
      "inputs": [
        {
          "indexed": false,
          "internalType": "address",
          "name": "",
          "type": "address"
        },
        {
          "indexed": false,
          "internalType": "bool",
          "name": "",
          "type": "bool"
        }
      ],
      "name": "AddRegistryToList",
      "type": "event"
    },
    {
      "anonymous": false,
      "inputs": [
        {
          "indexed": false,
          "internalType": "uint64",
          "name": "version",
          "type": "uint64"
        }
      ],
      "name": "Initialized",
      "type": "event"
    },
    {
      "anonymous": false,
      "inputs": [
        {
          "indexed": false,
          "internalType": "address",
          "name": "",
          "type": "address"
        },
        {
          "indexed": false,
          "internalType": "bool",
          "name": "",
          "type": "bool"
        },
        {
          "indexed": false,
          "internalType": "uint256",
          "name": "",
          "type": "uint256"
        }
      ],
      "name": "ReplaceRegistry",
      "type": "event"
    },
    {
      "anonymous": false,
      "inputs": [
        {
          "indexed": true,
          "internalType": "bytes32",
          "name": "role",
          "type": "bytes32"
        },
        {
          "indexed": true,
          "internalType": "bytes32",
          "name": "previousAdminRole",
          "type": "bytes32"
        },
        {
          "indexed": true,
          "internalType": "bytes32",
          "name": "newAdminRole",
          "type": "bytes32"
        }
      ],
      "name": "RoleAdminChanged",
      "type": "event"
    },
    {
      "anonymous": false,
      "inputs": [
        {
          "indexed": true,
          "internalType": "bytes32",
          "name": "role",
          "type": "bytes32"
        },
        {
          "indexed": true,
          "internalType": "address",
          "name": "account",
          "type": "address"
        },
        {
          "indexed": true,
          "internalType": "address",
          "name": "sender",
          "type": "address"
        }
      ],
      "name": "RoleGranted",
      "type": "event"
    },
    {
      "anonymous": false,
      "inputs": [
        {
          "indexed": true,
          "internalType": "bytes32",
          "name": "role",
          "type": "bytes32"
        },
        {
          "indexed": true,
          "internalType": "address",
          "name": "account",
          "type": "address"
        },
        {
          "indexed": true,
          "internalType": "address",
          "name": "sender",
          "type": "address"
        }
      ],
      "name": "RoleRevoked",
      "type": "event"
    },
    {
      "inputs": [],
      "name": "ADMIN_ROLE",
      "outputs": [
        {
          "internalType": "bytes32",
          "name": "",
          "type": "bytes32"
        }
      ],
      "stateMutability": "view",
      "type": "function"
    },
    {
      "inputs": [],
      "name": "DEFAULT_ADMIN_ROLE",
      "outputs": [
        {
          "internalType": "bytes32",
          "name": "",
          "type": "bytes32"
        }
      ],
      "stateMutability": "view",
      "type": "function"
    },
    {
      "inputs": [],
      "name": "GUARDIAN_NODE",
      "outputs": [
        {
          "internalType": "bytes32",
          "name": "",
          "type": "bytes32"
        }
      ],
      "stateMutability": "view",
      "type": "function"
    },
    {
      "inputs": [],
      "name": "MANAGER_ROLE",
      "outputs": [
        {
          "internalType": "bytes32",
          "name": "",
          "type": "bytes32"
        }
      ],
      "stateMutability": "view",
      "type": "function"
    },
    {
      "inputs": [],
      "name": "blacklist",
      "outputs": [
        {
          "internalType": "uint256",
          "name": "maxProposals",
          "type": "uint256"
        },
        {
          "internalType": "uint256",
          "name": "cumulative",
          "type": "uint256"
        }
      ],
      "stateMutability": "view",
      "type": "function"
    },
    {
      "inputs": [
        {
          "components": [
            {
              "internalType": "bytes32",
              "name": "id",
              "type": "bytes32"
            },
            {
              "internalType": "address",
              "name": "author",
              "type": "address"
            },
            {
              "internalType": "bytes[]",
              "name": "targets",
              "type": "bytes[]"
            },
            {
              "internalType": "bool",
              "name": "isWhitelist",
              "type": "bool"
            },
            {
              "internalType": "string",
              "name": "region",
              "type": "string"
            },
            {
              "internalType": "uint256",
              "name": "timestamp",
              "type": "uint256"
            },
            {
              "internalType": "enum ProposalCommon.ProposalStatus",
              "name": "status",
              "type": "uint8"
            },
            {
              "internalType": "bytes",
              "name": "signature",
              "type": "bytes"
            },
            {
              "internalType": "uint256",
              "name": "voters",
              "type": "uint256"
            },
            {
              "internalType": "uint256",
              "name": "activeNodes",
              "type": "uint256"
            }
          ],
          "internalType": "struct ProposalCommon.Proposal",
          "name": "proposal",
          "type": "tuple"
        }
      ],
      "name": "confirmProposal",
      "outputs": [],
      "stateMutability": "nonpayable",
      "type": "function"
    },
    {
      "inputs": [],
      "name": "factory",
      "outputs": [
        {
          "internalType": "contract RegistryFactory",
          "name": "",
          "type": "address"
        }
      ],
      "stateMutability": "view",
      "type": "function"
    },
    {
      "inputs": [
        {
          "internalType": "bytes32",
          "name": "role",
          "type": "bytes32"
        }
      ],
      "name": "getRoleAdmin",
      "outputs": [
        {
          "internalType": "bytes32",
          "name": "",
          "type": "bytes32"
        }
      ],
      "stateMutability": "view",
      "type": "function"
    },
    {
      "inputs": [
        {
          "internalType": "bytes32",
          "name": "role",
          "type": "bytes32"
        },
        {
          "internalType": "address",
          "name": "account",
          "type": "address"
        }
      ],
      "name": "grantRole",
      "outputs": [],
      "stateMutability": "nonpayable",
      "type": "function"
    },
    {
      "inputs": [
        {
          "internalType": "bytes32",
          "name": "role",
          "type": "bytes32"
        },
        {
          "internalType": "address",
          "name": "account",
          "type": "address"
        }
      ],
      "name": "hasRole",
      "outputs": [
        {
          "internalType": "bool",
          "name": "",
          "type": "bool"
        }
      ],
      "stateMutability": "view",
      "type": "function"
    },
    {
      "inputs": [
        {
          "internalType": "address",
          "name": "_admin",
          "type": "address"
        },
        {
          "internalType": "address",
          "name": "_factory",
          "type": "address"
        }
      ],
      "name": "initialize",
      "outputs": [],
      "stateMutability": "nonpayable",
      "type": "function"
    },
    {
      "inputs": [
        {
          "internalType": "address",
          "name": "account",
          "type": "address"
        }
      ],
      "name": "isBlacklist",
      "outputs": [
        {
          "internalType": "bool",
          "name": "",
          "type": "bool"
        }
      ],
      "stateMutability": "view",
      "type": "function"
    },
    {
      "inputs": [
        {
          "internalType": "address",
          "name": "account",
          "type": "address"
        }
      ],
      "name": "isWhitelist",
      "outputs": [
        {
          "internalType": "bool",
          "name": "",
          "type": "bool"
        }
      ],
      "stateMutability": "view",
      "type": "function"
    },
    {
      "inputs": [
        {
          "internalType": "bytes32",
          "name": "role",
          "type": "bytes32"
        },
        {
          "internalType": "address",
          "name": "callerConfirmation",
          "type": "address"
        }
      ],
      "name": "renounceRole",
      "outputs": [],
      "stateMutability": "nonpayable",
      "type": "function"
    },
    {
      "inputs": [
        {
          "internalType": "bytes32",
          "name": "role",
          "type": "bytes32"
        },
        {
          "internalType": "address",
          "name": "account",
          "type": "address"
        }
      ],
      "name": "revokeRole",
      "outputs": [],
      "stateMutability": "nonpayable",
      "type": "function"
    },
    {
      "inputs": [
        {
          "internalType": "bytes4",
          "name": "interfaceId",
          "type": "bytes4"
        }
      ],
      "name": "supportsInterface",
      "outputs": [
        {
          "internalType": "bool",
          "name": "",
          "type": "bool"
        }
      ],
      "stateMutability": "view",
      "type": "function"
    },
    {
      "inputs": [],
      "name": "whitelist",
      "outputs": [
        {
          "internalType": "uint256",
          "name": "maxProposals",
          "type": "uint256"
        },
        {
          "internalType": "uint256",
          "name": "cumulative",
          "type": "uint256"
        }
      ],
      "stateMutability": "view",
      "type": "function"
    }
  ],
  "transactionHash": "0xddd8c9f8c53cbd0539e39289fa1f9de02bac8a1121838922e566a14e0eb0de86",
  "args": [],
  "numDeployments": 1,
  "solcInputHash": "846be173ac1b7bacf9d376991f8fc1d0",
  "bytecode": "0x608060405234801561001057600080fd5b50611571806100206000396000f3fe608060405234801561001057600080fd5b506004361061010b5760003560e01c806391d14854116100a2578063b0385f9611610071578063b0385f9614610228578063c45a01551461023b578063c683630d1461025b578063d547741f1461026e578063ec87621c1461028157600080fd5b806391d14854146101e357806393e59dc1146101f6578063a217fddf14610212578063a4b5fa561461021a57600080fd5b806336568abe116100de57806336568abe14610181578063485cc95514610194578063571c81e2146101a757806375b238fc146101ce57600080fd5b806301ffc9a714610110578063248a9ca3146101395780632f2ff15d14610159578063333e99db1461016e575b600080fd5b61012361011e366004610cd4565b6102a8565b6040516101309190610d07565b60405180910390f35b61014c610147366004610d26565b6102df565b6040516101309190610d4d565b61016c610167366004610d80565b610301565b005b61012361017c366004610dbd565b610323565b61016c61018f366004610d80565b61045d565b61016c6101a2366004610dde565b610495565b61014c7fe76d95910c74dbdb8a76b5bb9fe1033fb4a288062f27b597996af2ee14b645dd81565b61014c60008051602061152583398151915281565b6101236101f1366004610d80565b61069f565b600254600354610204919082565b604051610130929190610e00565b61014c600081565b600054600154610204919082565b61016c610236366004611149565b6106d7565b60045461024e906001600160a01b031681565b60405161013091906111a3565b610123610269366004610dbd565b61099f565b61016c61027c366004610d80565b610ad1565b61014c7f4106b53b00ba007ca00c66fda2dd068c64fae6d9aeb99cddc4de3de6cbfa225981565b60006001600160e01b03198216637965db0b60e01b14806102d957506301ffc9a760e01b6001600160e01b03198316145b92915050565b6000908152600080516020611545833981519152602052604090206001015490565b61030a826102df565b61031381610aed565b61031d8383610afa565b50505050565b6000805b60005460015461033791906111dd565b811015610454576004805460405163674bc38560e11b815260009283926001600160a01b03169163ce97870a916103729187918691016111f1565b6040805180830381865afa15801561038e573d6000803e3d6000fd5b505050506040513d601f19601f820116820180604052508101906103b29190611222565b91509150806103c2575050610442565b604051632c289dcf60e01b81526001600160a01b03831690632c289dcf906103ee90889060040161125e565b602060405180830381865afa15801561040b573d6000803e3d6000fd5b505050506040513d601f19601f8201168201806040525081019061042f919061126c565b1561043f57506001949350505050565b50505b8061044c8161128d565b915050610327565b50600092915050565b6001600160a01b03811633146104865760405163334bd91960e11b815260040160405180910390fd5b6104908282610b9f565b505050565b7ff0c57e16840df040f15088dc2f81fe391c3923bec73e23a9662efc9c229c6a008054600160401b810460ff16159067ffffffffffffffff166000811580156104db5750825b905060008267ffffffffffffffff1660011480156104f85750303b155b905081158015610506575080155b156105245760405163f92ee8a960e01b815260040160405180910390fd5b845467ffffffffffffffff19166001178555831561054e57845460ff60401b1916600160401b1785555b61056660008051602061152583398151915288610afa565b5061059f7f4106b53b00ba007ca00c66fda2dd068c64fae6d9aeb99cddc4de3de6cbfa2259600080516020611525833981519152610c1b565b6105d77fe76d95910c74dbdb8a76b5bb9fe1033fb4a288062f27b597996af2ee14b645dd600080516020611525833981519152610c1b565b600480546001600160a01b0319166001600160a01b038816179055604080518082018252600a8082526000602092830181905281815560018190558351808501909452818452929091018290526002556003556106426000805160206115258339815191528861069f565b61064b57600080fd5b831561069657845460ff60401b191685556040517fc7f505b2f371ae2175ee4913f4499e1f2633a7b5936321eed1cdaeb6115181d29061068d906001906112c2565b60405180910390a15b50505050505050565b6000918252600080516020611545833981519152602090815260408084206001600160a01b0393909316845291905290205460ff1690565b7fe76d95910c74dbdb8a76b5bb9fe1033fb4a288062f27b597996af2ee14b645dd61070181610aed565b60028260c001516003811115610719576107196112d0565b146107375760405163236ca85f60e11b815260040160405180910390fd5b81606001511561089457600254600354600091610753916111dd565b600480546040516316aa10dd60e11b815292935060009283926001600160a01b0390921691632d5421ba9161078f9187913091600191016112e6565b60408051808303816000875af11580156107ad573d6000803e3d6000fd5b505050506040513d601f19601f820116820180604052508101906107d19190611222565b6040516306d57de160e01b815291935091506001600160a01b038316906306d57de1906108029088906004016114dd565b600060405180830381600087803b15801561081c57600080fd5b505af1158015610830573d6000803e3d6000fd5b505050508015610850576003805490600061084a8361128d565b91905055505b84516040517ff98fd88cee5f543251a4b683b5a8a3477776c0f0338d3597ee05ed60799b6dd6916108859185916001916114ee565b60405180910390a15050505050565b600080546001546108a591906111dd565b600480546040516316aa10dd60e11b815292935060009283926001600160a01b0390921691632d5421ba916108e091879130918791016112e6565b60408051808303816000875af11580156108fe573d6000803e3d6000fd5b505050506040513d601f19601f820116820180604052508101906109229190611222565b6040516306d57de160e01b815291935091506001600160a01b038316906306d57de1906109539088906004016114dd565b600060405180830381600087803b15801561096d57600080fd5b505af1158015610981573d6000803e3d6000fd5b505050508015610850576001805490600061084a8361128d565b5050565b6000805b6002546003546109b391906111dd565b811015610454576004805460405163674bc38560e11b815260009283926001600160a01b03169163ce97870a916109ef918791600191016111f1565b6040805180830381865afa158015610a0b573d6000803e3d6000fd5b505050506040513d601f19601f82011682018060405250810190610a2f9190611222565b9150915080610a3f575050610abf565b604051632c289dcf60e01b81526001600160a01b03831690632c289dcf90610a6b90889060040161125e565b602060405180830381865afa158015610a88573d6000803e3d6000fd5b505050506040513d601f19601f82011682018060405250810190610aac919061126c565b15610abc57506001949350505050565b50505b80610ac98161128d565b9150506109a3565b610ada826102df565b610ae381610aed565b61031d8383610b9f565b610af78133610c7e565b50565b6000600080516020611545833981519152610b15848461069f565b610b95576000848152602082815260408083206001600160a01b03871684529091529020805460ff19166001179055610b4b3390565b6001600160a01b0316836001600160a01b0316857f2f8788117e7eff1d82e926ec794901d17c78024a50270940304540a733656f0d60405160405180910390a460019150506102d9565b60009150506102d9565b6000600080516020611545833981519152610bba848461069f565b15610b95576000848152602082815260408083206001600160a01b0387168085529252808320805460ff1916905551339287917ff6391f5c32d9c69d2a47ea670b442974b53935d1edc7fd64eb21e047a839171b9190a460019150506102d9565b6000805160206115458339815191526000610c35846102df565b600085815260208490526040808220600101869055519192508491839187917fbd79b86ffe0ab8e8776151514217cd7cacd52c909f66475c3af44e129f0b00ff9190a450505050565b610c88828261069f565b61099b57808260405163e2517d3f60e01b8152600401610ca9929190611516565b60405180910390fd5b6001600160e01b031981165b8114610af757600080fd5b80356102d981610cb2565b600060208284031215610ce957610ce9600080fd5b6000610cf58484610cc9565b949350505050565b8015155b82525050565b602081016102d98284610cfd565b80610cbe565b80356102d981610d15565b600060208284031215610d3b57610d3b600080fd5b6000610cf58484610d1b565b80610d01565b602081016102d98284610d47565b60006001600160a01b0382166102d9565b610cbe81610d5b565b80356102d981610d6c565b60008060408385031215610d9657610d96600080fd5b6000610da28585610d1b565b9250506020610db385828601610d75565b9150509250929050565b600060208284031215610dd257610dd2600080fd5b6000610cf58484610d75565b60008060408385031215610df457610df4600080fd5b6000610da28585610d75565b60408101610e0e8285610d47565b610e1b6020830184610d47565b9392505050565b634e487b7160e01b600052604160045260246000fd5b601f19601f830116810181811067ffffffffffffffff82111715610e5e57610e5e610e22565b6040525050565b6000610e7060405190565b9050610e7c8282610e38565b919050565b600067ffffffffffffffff821115610e9b57610e9b610e22565b5060209081020190565b600067ffffffffffffffff821115610ebf57610ebf610e22565b601f19601f83011660200192915050565b82818337506000910152565b6000610eef610eea84610ea5565b610e65565b905082815260208101848484011115610f0a57610f0a600080fd5b610f15848285610ed0565b509392505050565b600082601f830112610f3157610f31600080fd5b8135610cf5848260208601610edc565b6000610f4f610eea84610e81565b83815290506020808201908402830185811115610f6e57610f6e600080fd5b835b81811015610faf57803567ffffffffffffffff811115610f9257610f92600080fd5b808601610f9f8982610f1d565b8552505060209283019201610f70565b5050509392505050565b600082601f830112610fcd57610fcd600080fd5b8135610cf5848260208601610f41565b801515610cbe565b80356102d981610fdd565b60048110610af757600080fd5b80356102d981610ff0565b6000610140828403121561101e5761101e600080fd5b611029610140610e65565b905060006110378484610d1b565b825250602061104884848301610d75565b602083015250604082013567ffffffffffffffff81111561106b5761106b600080fd5b61107784828501610fb9565b604083015250606061108b84828501610fe5565b606083015250608082013567ffffffffffffffff8111156110ae576110ae600080fd5b6110ba84828501610f1d565b60808301525060a06110ce84828501610d1b565b60a08301525060c06110e284828501610ffd565b60c08301525060e082013567ffffffffffffffff81111561110557611105600080fd5b61111184828501610f1d565b60e08301525061010061112684828501610d1b565b6101008301525061012061113c84828501610d1b565b6101208301525092915050565b60006020828403121561115e5761115e600080fd5b813567ffffffffffffffff81111561117857611178600080fd5b610cf584828501611008565b60006102d982610d5b565b60006102d982611184565b610d018161118f565b602081016102d9828461119a565b634e487b7160e01b600052601260045260246000fd5b634e487b7160e01b600052601160045260246000fd5b6000826111ec576111ec6111b1565b500490565b604081016111ff8285610d47565b610e1b6020830184610cfd565b80516102d981610d6c565b80516102d981610fdd565b6000806040838503121561123857611238600080fd5b6000611244858561120c565b9250506020610db385828601611217565b610d0181610d5b565b602081016102d98284611255565b60006020828403121561128157611281600080fd5b6000610cf58484611217565b600060001982036112a0576112a06111c7565b5060010190565b600067ffffffffffffffff82166102d9565b610d01816112a7565b602081016102d982846112b9565b634e487b7160e01b600052602160045260246000fd5b606081016112f48286610d47565b6113016020830185611255565b610cf56040830184610cfd565b60005b83811015611329578181015183820152602001611311565b50506000910152565b600061133c825190565b80845260208401935061135381856020860161130e565b601f01601f19169290920192915050565b6000610e1b8383611332565b600061137a825190565b808452602084019350836020820285016113948560200190565b8060005b858110156113c957848403895281516113b18582611364565b94506020830160209a909a0199925050600101611398565b5091979650505050505050565b60048110610af757610af76112d0565b80610e7c816113d6565b60006102d9826113e6565b610d01816113f0565b80516000906101408401906114198582610d47565b50602083015161142c6020860182611255565b50604083015184820360408601526114448282611370565b91505060608301516114596060860182610cfd565b50608083015184820360808601526114718282611332565b91505060a083015161148660a0860182610d47565b5060c083015161149960c08601826113fb565b5060e083015184820360e08601526114b18282611332565b9150506101008301516114c8610100860182610d47565b50610120830151610f15610120860182610d47565b60208082528101610e1b8184611404565b606081016114fc8286611255565b6115096020830185610cfd565b610cf56040830184610d47565b60408101610e0e828561125556fe934c13b4b46cd019a01bb75d649e569483f77416ae3a2eb616d44dd406e67ed402dd7bc7dec4dceedda775e58dd541e08a116c6c53815c0bd028192f7b626800a164736f6c6343000814000a",
  "devdoc": {
    "errors": {
      "AccessControlBadConfirmation()": [
        {
          "details": "The caller of a function is not the expected one. NOTE: Don't confuse with {AccessControlUnauthorizedAccount}."
        }
      ],
      "AccessControlUnauthorizedAccount(address,bytes32)": [
        {
          "details": "The `account` is missing a role."
        }
      ],
      "InvalidInitialization()": [
        {
          "details": "The contract is already initialized."
        }
      ],
      "NotInitializing()": [
        {
          "details": "The contract is not initializing."
        }
      ]
    },
    "events": {
      "Initialized(uint64)": {
        "details": "Triggered when the contract has been initialized or reinitialized."
      },
      "RoleAdminChanged(bytes32,bytes32,bytes32)": {
        "details": "Emitted when `newAdminRole` is set as ``role``'s admin role, replacing `previousAdminRole` `DEFAULT_ADMIN_ROLE` is the starting admin for all roles, despite {RoleAdminChanged} not being emitted signaling this."
      },
      "RoleGranted(bytes32,address,address)": {
        "details": "Emitted when `account` is granted `role`. `sender` is the account that originated the contract call, an admin role bearer except when using {AccessControl-_setupRole}."
      },
      "RoleRevoked(bytes32,address,address)": {
        "details": "Emitted when `account` is revoked `role`. `sender` is the account that originated the contract call:   - if using `revokeRole`, it is the admin role bearer   - if using `renounceRole`, it is the role bearer (i.e. `account`)"
      }
    },
    "kind": "dev",
    "methods": {
      "getRoleAdmin(bytes32)": {
        "details": "Returns the admin role that controls `role`. See {grantRole} and {revokeRole}. To change a role's admin, use {_setRoleAdmin}."
      },
      "grantRole(bytes32,address)": {
        "details": "Grants `role` to `account`. If `account` had not been already granted `role`, emits a {RoleGranted} event. Requirements: - the caller must have ``role``'s admin role. May emit a {RoleGranted} event."
      },
      "hasRole(bytes32,address)": {
        "details": "Returns `true` if `account` has been granted `role`."
      },
      "renounceRole(bytes32,address)": {
        "details": "Revokes `role` from the calling account. Roles are often managed via {grantRole} and {revokeRole}: this function's purpose is to provide a mechanism for accounts to lose their privileges if they are compromised (such as when a trusted device is misplaced). If the calling account had been revoked `role`, emits a {RoleRevoked} event. Requirements: - the caller must be `callerConfirmation`. May emit a {RoleRevoked} event."
      },
      "revokeRole(bytes32,address)": {
        "details": "Revokes `role` from `account`. If `account` had been granted `role`, emits a {RoleRevoked} event. Requirements: - the caller must have ``role``'s admin role. May emit a {RoleRevoked} event."
      },
      "supportsInterface(bytes4)": {
        "details": "See {IERC165-supportsInterface}."
      }
    },
    "version": 1
  },
  "userdoc": {
    "kind": "user",
    "methods": {},
    "version": 1
  },
  "storageLayout": {
    "storage": [
      {
        "astId": 2472,
        "contract": "contracts/oracle/ComplianceRegistryStub_L1.sol:ComplianceRegistryStub_L1",
        "label": "blacklist",
        "offset": 0,
        "slot": "0",
        "type": "t_struct(RegistrySlot)2469_storage"
      },
      {
        "astId": 2475,
        "contract": "contracts/oracle/ComplianceRegistryStub_L1.sol:ComplianceRegistryStub_L1",
        "label": "whitelist",
        "offset": 0,
        "slot": "2",
        "type": "t_struct(RegistrySlot)2469_storage"
      },
      {
        "astId": 2478,
        "contract": "contracts/oracle/ComplianceRegistryStub_L1.sol:ComplianceRegistryStub_L1",
        "label": "factory",
        "offset": 0,
        "slot": "4",
        "type": "t_contract(RegistryFactory)2980"
      }
    ],
    "types": {
      "t_contract(RegistryFactory)2980": {
        "encoding": "inplace",
        "label": "contract RegistryFactory",
        "numberOfBytes": "20"
      },
      "t_struct(RegistrySlot)2469_storage": {
        "encoding": "inplace",
        "label": "struct ComplianceRegistryStub_L1.RegistrySlot",
        "members": [
          {
            "astId": 2466,
            "contract": "contracts/oracle/ComplianceRegistryStub_L1.sol:ComplianceRegistryStub_L1",
            "label": "maxProposals",
            "offset": 0,
            "slot": "0",
            "type": "t_uint256"
          },
          {
            "astId": 2468,
            "contract": "contracts/oracle/ComplianceRegistryStub_L1.sol:ComplianceRegistryStub_L1",
            "label": "cumulative",
            "offset": 0,
            "slot": "1",
            "type": "t_uint256"
          }
        ],
        "numberOfBytes": "64"
      },
      "t_uint256": {
        "encoding": "inplace",
        "label": "uint256",
        "numberOfBytes": "32"
      }
    }
  }
}