{
  "address": "0xad03341D94255f192952E0656B5fEA9599e6C3C1",
  "abi": [
    {
      "inputs": [],
      "name": "AccessControlBadConfirmation",
      "type": "error"
    },
    {
      "inputs": [
        {
          "internalType": "address",
          "name": "account",
          "type": "address"
        },
        {
          "internalType": "bytes32",
          "name": "neededRole",
          "type": "bytes32"
        }
      ],
      "name": "AccessControlUnauthorizedAccount",
      "type": "error"
    },
    {
      "inputs": [],
      "name": "ComplianceRegistryStub_L1__BlacklistRegistryNotEnough",
      "type": "error"
    },
    {
      "inputs": [],
      "name": "ComplianceRegistryStub_L1__InvalidConfirmProposalStatus",
      "type": "error"
    },
    {
      "inputs": [],
      "name": "ComplianceRegistryStub_L1__WhitelistRegistryNotEnough",
      "type": "error"
    },
    {
      "inputs": [],
      "name": "InvalidInitialization",
      "type": "error"
    },
    {
      "inputs": [],
      "name": "NotInitializing",
      "type": "error"
    },
    {
      "anonymous": false,
      "inputs": [
        {
          "indexed": false,
          "internalType": "address",
          "name": "",
          "type": "address"
        },
        {
          "indexed": false,
          "internalType": "bool",
          "name": "",
          "type": "bool"
        },
        {
          "indexed": false,
          "internalType": "bytes32",
          "name": "",
          "type": "bytes32"
        }
      ],
      "name": "AddProposalToRegistryList",
      "type": "event"
    },
    {
      "anonymous": false,
      "inputs": [
        {
          "indexed": false,
          "internalType": "address",
          "name": "",
          "type": "address"
        },
        {
          "indexed": false,
          "internalType": "bool",
          "name": "",
          "type": "bool"
        }
      ],
      "name": "AddRegistryToList",
      "type": "event"
    },
    {
      "anonymous": false,
      "inputs": [
        {
          "indexed": false,
          "internalType": "uint64",
          "name": "version",
          "type": "uint64"
        }
      ],
      "name": "Initialized",
      "type": "event"
    },
    {
      "anonymous": false,
      "inputs": [
        {
          "indexed": true,
          "internalType": "bytes32",
          "name": "role",
          "type": "bytes32"
        },
        {
          "indexed": true,
          "internalType": "bytes32",
          "name": "previousAdminRole",
          "type": "bytes32"
        },
        {
          "indexed": true,
          "internalType": "bytes32",
          "name": "newAdminRole",
          "type": "bytes32"
        }
      ],
      "name": "RoleAdminChanged",
      "type": "event"
    },
    {
      "anonymous": false,
      "inputs": [
        {
          "indexed": true,
          "internalType": "bytes32",
          "name": "role",
          "type": "bytes32"
        },
        {
          "indexed": true,
          "internalType": "address",
          "name": "account",
          "type": "address"
        },
        {
          "indexed": true,
          "internalType": "address",
          "name": "sender",
          "type": "address"
        }
      ],
      "name": "RoleGranted",
      "type": "event"
    },
    {
      "anonymous": false,
      "inputs": [
        {
          "indexed": true,
          "internalType": "bytes32",
          "name": "role",
          "type": "bytes32"
        },
        {
          "indexed": true,
          "internalType": "address",
          "name": "account",
          "type": "address"
        },
        {
          "indexed": true,
          "internalType": "address",
          "name": "sender",
          "type": "address"
        }
      ],
      "name": "RoleRevoked",
      "type": "event"
    },
    {
      "inputs": [],
      "name": "ADMIN_ROLE",
      "outputs": [
        {
          "internalType": "bytes32",
          "name": "",
          "type": "bytes32"
        }
      ],
      "stateMutability": "view",
      "type": "function"
    },
    {
      "inputs": [],
      "name": "DEFAULT_ADMIN_ROLE",
      "outputs": [
        {
          "internalType": "bytes32",
          "name": "",
          "type": "bytes32"
        }
      ],
      "stateMutability": "view",
      "type": "function"
    },
    {
      "inputs": [],
      "name": "GUARDIAN_NODE",
      "outputs": [
        {
          "internalType": "bytes32",
          "name": "",
          "type": "bytes32"
        }
      ],
      "stateMutability": "view",
      "type": "function"
    },
    {
      "inputs": [],
      "name": "MANAGER_ROLE",
      "outputs": [
        {
          "internalType": "bytes32",
          "name": "",
          "type": "bytes32"
        }
      ],
      "stateMutability": "view",
      "type": "function"
    },
    {
      "inputs": [
        {
          "internalType": "contract IComplianceRegistry",
          "name": "registry",
          "type": "address"
        },
        {
          "internalType": "bool",
          "name": "useWhitelist",
          "type": "bool"
        }
      ],
      "name": "addRegistry",
      "outputs": [],
      "stateMutability": "nonpayable",
      "type": "function"
    },
    {
      "inputs": [
        {
          "internalType": "uint256",
          "name": "",
          "type": "uint256"
        }
      ],
      "name": "blacklistRegistries",
      "outputs": [
        {
          "internalType": "contract IComplianceRegistry",
          "name": "",
          "type": "address"
        }
      ],
      "stateMutability": "view",
      "type": "function"
    },
    {
      "inputs": [
        {
          "components": [
            {
              "internalType": "bytes32",
              "name": "id",
              "type": "bytes32"
            },
            {
              "internalType": "address",
              "name": "author",
              "type": "address"
            },
            {
              "internalType": "bytes[]",
              "name": "targets",
              "type": "bytes[]"
            },
            {
              "internalType": "bool",
              "name": "isWhitelist",
              "type": "bool"
            },
            {
              "internalType": "string",
              "name": "description",
              "type": "string"
            },
            {
              "internalType": "string",
              "name": "region",
              "type": "string"
            },
            {
              "internalType": "uint256",
              "name": "timestamp",
              "type": "uint256"
            },
            {
              "internalType": "enum ProposalCommon.ProposalStatus",
              "name": "status",
              "type": "uint8"
            },
            {
              "internalType": "bytes",
              "name": "signature",
              "type": "bytes"
            },
            {
              "internalType": "uint256",
              "name": "voters",
              "type": "uint256"
            },
            {
              "internalType": "uint256",
              "name": "activeNodes",
              "type": "uint256"
            }
          ],
          "internalType": "struct ProposalCommon.Proposal",
          "name": "proposal",
          "type": "tuple"
        }
      ],
      "name": "confirmProposal",
      "outputs": [],
      "stateMutability": "nonpayable",
      "type": "function"
    },
    {
      "inputs": [
        {
          "internalType": "uint256",
          "name": "",
          "type": "uint256"
        }
      ],
      "name": "cumulativeProposals",
      "outputs": [
        {
          "internalType": "uint256",
          "name": "",
          "type": "uint256"
        }
      ],
      "stateMutability": "view",
      "type": "function"
    },
    {
      "inputs": [
        {
          "internalType": "bytes32",
          "name": "role",
          "type": "bytes32"
        }
      ],
      "name": "getRoleAdmin",
      "outputs": [
        {
          "internalType": "bytes32",
          "name": "",
          "type": "bytes32"
        }
      ],
      "stateMutability": "view",
      "type": "function"
    },
    {
      "inputs": [
        {
          "internalType": "bytes32",
          "name": "role",
          "type": "bytes32"
        },
        {
          "internalType": "address",
          "name": "account",
          "type": "address"
        }
      ],
      "name": "grantRole",
      "outputs": [],
      "stateMutability": "nonpayable",
      "type": "function"
    },
    {
      "inputs": [
        {
          "internalType": "bytes32",
          "name": "role",
          "type": "bytes32"
        },
        {
          "internalType": "address",
          "name": "account",
          "type": "address"
        }
      ],
      "name": "hasRole",
      "outputs": [
        {
          "internalType": "bool",
          "name": "",
          "type": "bool"
        }
      ],
      "stateMutability": "view",
      "type": "function"
    },
    {
      "inputs": [
        {
          "internalType": "address",
          "name": "_admin",
          "type": "address"
        }
      ],
      "name": "initialize",
      "outputs": [],
      "stateMutability": "nonpayable",
      "type": "function"
    },
    {
      "inputs": [
        {
          "internalType": "address",
          "name": "account",
          "type": "address"
        }
      ],
      "name": "isBlacklist",
      "outputs": [
        {
          "internalType": "bool",
          "name": "",
          "type": "bool"
        }
      ],
      "stateMutability": "view",
      "type": "function"
    },
    {
      "inputs": [
        {
          "internalType": "address",
          "name": "account",
          "type": "address"
        }
      ],
      "name": "isWhitelist",
      "outputs": [
        {
          "internalType": "bool",
          "name": "",
          "type": "bool"
        }
      ],
      "stateMutability": "view",
      "type": "function"
    },
    {
      "inputs": [
        {
          "internalType": "uint256",
          "name": "",
          "type": "uint256"
        }
      ],
      "name": "maxProposalEachRegistries",
      "outputs": [
        {
          "internalType": "uint256",
          "name": "",
          "type": "uint256"
        }
      ],
      "stateMutability": "view",
      "type": "function"
    },
    {
      "inputs": [
        {
          "internalType": "bytes32",
          "name": "role",
          "type": "bytes32"
        },
        {
          "internalType": "address",
          "name": "callerConfirmation",
          "type": "address"
        }
      ],
      "name": "renounceRole",
      "outputs": [],
      "stateMutability": "nonpayable",
      "type": "function"
    },
    {
      "inputs": [
        {
          "internalType": "bytes32",
          "name": "role",
          "type": "bytes32"
        },
        {
          "internalType": "address",
          "name": "account",
          "type": "address"
        }
      ],
      "name": "revokeRole",
      "outputs": [],
      "stateMutability": "nonpayable",
      "type": "function"
    },
    {
      "inputs": [
        {
          "internalType": "bytes4",
          "name": "interfaceId",
          "type": "bytes4"
        }
      ],
      "name": "supportsInterface",
      "outputs": [
        {
          "internalType": "bool",
          "name": "",
          "type": "bool"
        }
      ],
      "stateMutability": "view",
      "type": "function"
    },
    {
      "inputs": [
        {
          "internalType": "uint256[]",
          "name": "_maxProposalEachRegistries",
          "type": "uint256[]"
        }
      ],
      "name": "updateMaxProposalEachRegistries",
      "outputs": [],
      "stateMutability": "nonpayable",
      "type": "function"
    },
    {
      "inputs": [
        {
          "internalType": "uint256",
          "name": "",
          "type": "uint256"
        }
      ],
      "name": "whitelistRegistries",
      "outputs": [
        {
          "internalType": "contract IComplianceRegistry",
          "name": "",
          "type": "address"
        }
      ],
      "stateMutability": "view",
      "type": "function"
    }
  ],
  "transactionHash": "0x12ef584a2effe364843f2e1a949f9a56809abb92fb76bf6aad2f8a7a6c468559",
  "args": [],
  "numDeployments": 1,
  "solcInputHash": "7fc5bff5016639ea96ddb409ad81ba43",
  "bytecode": "0x608060405234801561001057600080fd5b5061176d806100206000396000f3fe608060405234801561001057600080fd5b506004361061012c5760003560e01c80637f8f4cfd116100ad578063c4d66de811610071578063c4d66de81461028b578063c683630d1461029e578063d33559ce146102b1578063d547741f146102c4578063ec87621c146102d757600080fd5b80637f8f4cfd1461023757806389af4e1b1461024a57806391d148541461025d578063924dc5eb14610270578063a217fddf1461028357600080fd5b8063394d533d116100f4578063394d533d146101b5578063434dbccd146101c8578063571c81e2146101e857806374d62e921461020f57806375b238fc1461022257600080fd5b806301ffc9a714610131578063248a9ca31461015a5780632f2ff15d1461017a578063333e99db1461018f57806336568abe146101a2575b600080fd5b61014461013f366004610df7565b6102ec565b6040516101519190610e2a565b60405180910390f35b61016d610168366004610e49565b610323565b6040516101519190610e70565b61018d610188366004610ea3565b610345565b005b61014461019d366004610ee0565b610367565b61018d6101b0366004610ea3565b61042b565b61018d6101c3366004610f33565b610463565b6101db6101d6366004610e49565b610611565b6040516101519190610f7a565b61016d7fe76d95910c74dbdb8a76b5bb9fe1033fb4a288062f27b597996af2ee14b645dd81565b61018d61021d36600461108d565b61063b565b61016d60008051602061170183398151915281565b61016d610245366004610e49565b6106bb565b61016d610258366004610e49565b6106d2565b61014461026b366004610ea3565b6106e2565b6101db61027e366004610e49565b61071a565b61016d600081565b61018d610299366004610ee0565b61072a565b6101446102ac366004610ee0565b6108e0565b61018d6102bf366004611374565b61099b565b61018d6102d2366004610ea3565b610bf4565b61016d60008051602061172183398151915281565b60006001600160e01b03198216637965db0b60e01b148061031d57506301ffc9a760e01b6001600160e01b03198316145b92915050565b6000908152600080516020611741833981519152602052604090206001015490565b61034e82610323565b61035781610c10565b6103618383610c1d565b50505050565b6000805b6001548110156104225760018181548110610388576103886113ae565b6000918252602090912001546040516306ee7f4760e11b81526001600160a01b0390911690630ddcfe8e906103c19086906004016113cd565b602060405180830381865afa1580156103de573d6000803e3d6000fd5b505050506040513d601f19601f8201168201806040525081019061040291906113e6565b156104105750600192915050565b8061041a8161141d565b91505061036b565b50600092915050565b6001600160a01b03811633146104545760405163334bd91960e11b815260040160405180910390fd5b61045e8282610cc2565b505050565b60008051602061172183398151915261047b81610c10565b811561052b5760005b6000548110156104dd57836001600160a01b0316600082815481106104ab576104ab6113ae565b6000918252602090912001546001600160a01b0316036104cb5750505050565b806104d58161141d565b915050610484565b50600080546001810182559080527f290decd9548b62a8d60345a988386fc84ba6bc95484008f6362f93160ef3e5630180546001600160a01b0319166001600160a01b0385161790556105d3565b60005b60015481101561058757836001600160a01b031660018281548110610555576105556113ae565b6000918252602090912001546001600160a01b0316036105755750505050565b8061057f8161141d565b91505061052e565b506001805480820182556000919091527fb10e2d527612073b26eecdfd717e6a320cf44b4afac2b0732d9fcbe2b7fa0cf60180546001600160a01b0319166001600160a01b0385161790555b7f6c27876fb4766ae415ef64e25294d6d7a09bf6521e8848919ed889a3511aa8be8383604051610604929190611437565b60405180910390a1505050565b6000818154811061062157600080fd5b6000918252602090912001546001600160a01b0316905081565b60008051602061172183398151915261065381610c10565b81600081518110610666576106666113ae565b60200260200101516002600060028110610682576106826113ae565b0155815182906001908110610699576106996113ae565b602002602001015160026001600281106106b5576106b56113ae565b01555050565b600481600281106106cb57600080fd5b0154905081565b600281600281106106cb57600080fd5b6000918252600080516020611741833981519152602090815260408084206001600160a01b0393909316845291905290205460ff1690565b6001818154811061062157600080fd5b7ff0c57e16840df040f15088dc2f81fe391c3923bec73e23a9662efc9c229c6a008054600160401b810460ff1615906001600160401b031660008115801561076f5750825b90506000826001600160401b0316600114801561078b5750303b155b905081158015610799575080155b156107b75760405163f92ee8a960e01b815260040160405180910390fd5b845467ffffffffffffffff1916600117855583156107e157845460ff60401b1916600160401b1785555b6107f960008051602061170183398151915287610c1d565b50610820600080516020611721833981519152600080516020611701833981519152610d3e565b6108587fe76d95910c74dbdb8a76b5bb9fe1033fb4a288062f27b597996af2ee14b645dd600080516020611701833981519152610d3e565b600a600281905560035560006004819055600555610884600080516020611701833981519152876106e2565b61088d57600080fd5b83156108d857845460ff60401b191685556040517fc7f505b2f371ae2175ee4913f4499e1f2633a7b5936321eed1cdaeb6115181d2906108cf90600190611473565b60405180910390a15b505050505050565b6000805b6000548110156104225760008181548110610901576109016113ae565b6000918252602090912001546040516306ee7f4760e11b81526001600160a01b0390911690630ddcfe8e9061093a9086906004016113cd565b602060405180830381865afa158015610957573d6000803e3d6000fd5b505050506040513d601f19601f8201168201806040525081019061097b91906113e6565b156109895750600192915050565b806109938161141d565b9150506108e4565b7fe76d95910c74dbdb8a76b5bb9fe1033fb4a288062f27b597996af2ee14b645dd6109c581610c10565b60028260e0015160038111156109dd576109dd611481565b146109fb5760405163236ca85f60e11b815260040160405180910390fd5b816060015115610b0157600254600454600091610a17916114ad565b6000549091508110610a3c57604051631c080c8b60e01b815260040160405180910390fd5b6000808281548110610a5057610a506113ae565b60009182526020909120015460405163087e71b960e41b81526001600160a01b03909116915081906387e71b9090610a8c9087906004016116ac565b600060405180830381600087803b158015610aa657600080fd5b505af1158015610aba573d6000803e3d6000fd5b505085516040517ff98fd88cee5f543251a4b683b5a8a3477776c0f0338d3597ee05ed60799b6dd69350610af3925084916001916116bd565b60405180910390a150505050565b600354600554600091610b13916114ad565b6001549091508110610b3857604051639eeefd8b60e01b815260040160405180910390fd5b600060018281548110610b4d57610b4d6113ae565b60009182526020909120015460405163087e71b960e41b81526001600160a01b03909116915081906387e71b9090610b899087906004016116ac565b600060405180830381600087803b158015610ba357600080fd5b505af1158015610bb7573d6000803e3d6000fd5b505085516040517ff98fd88cee5f543251a4b683b5a8a3477776c0f0338d3597ee05ed60799b6dd69350610af3925084916000916116bd565b5050565b610bfd82610323565b610c0681610c10565b6103618383610cc2565b610c1a8133610da1565b50565b6000600080516020611741833981519152610c3884846106e2565b610cb8576000848152602082815260408083206001600160a01b03871684529091529020805460ff19166001179055610c6e3390565b6001600160a01b0316836001600160a01b0316857f2f8788117e7eff1d82e926ec794901d17c78024a50270940304540a733656f0d60405160405180910390a4600191505061031d565b600091505061031d565b6000600080516020611741833981519152610cdd84846106e2565b15610cb8576000848152602082815260408083206001600160a01b0387168085529252808320805460ff1916905551339287917ff6391f5c32d9c69d2a47ea670b442974b53935d1edc7fd64eb21e047a839171b9190a4600191505061031d565b6000805160206117418339815191526000610d5884610323565b600085815260208490526040808220600101869055519192508491839187917fbd79b86ffe0ab8e8776151514217cd7cacd52c909f66475c3af44e129f0b00ff9190a450505050565b610dab82826106e2565b610bf057808260405163e2517d3f60e01b8152600401610dcc9291906116e5565b60405180910390fd5b6001600160e01b031981165b8114610c1a57600080fd5b803561031d81610dd5565b600060208284031215610e0c57610e0c600080fd5b6000610e188484610dec565b949350505050565b8015155b82525050565b6020810161031d8284610e20565b80610de1565b803561031d81610e38565b600060208284031215610e5e57610e5e600080fd5b6000610e188484610e3e565b80610e24565b6020810161031d8284610e6a565b60006001600160a01b03821661031d565b610de181610e7e565b803561031d81610e8f565b60008060408385031215610eb957610eb9600080fd5b6000610ec58585610e3e565b9250506020610ed685828601610e98565b9150509250929050565b600060208284031215610ef557610ef5600080fd5b6000610e188484610e98565b600061031d82610e7e565b610de181610f01565b803561031d81610f0c565b801515610de1565b803561031d81610f20565b60008060408385031215610f4957610f49600080fd5b6000610f558585610f15565b9250506020610ed685828601610f28565b600061031d82610f01565b610e2481610f66565b6020810161031d8284610f71565b634e487b7160e01b600052604160045260246000fd5b601f19601f83011681018181106001600160401b0382111715610fc357610fc3610f88565b6040525050565b6000610fd560405190565b9050610fe18282610f9e565b919050565b60006001600160401b03821115610fff57610fff610f88565b5060209081020190565b600061101c61101784610fe6565b610fca565b8381529050602080820190840283018581111561103b5761103b600080fd5b835b8181101561105f57806110508882610e3e565b8452506020928301920161103d565b5050509392505050565b600082601f83011261107d5761107d600080fd5b8135610e18848260208601611009565b6000602082840312156110a2576110a2600080fd5b81356001600160401b038111156110bb576110bb600080fd5b610e1884828501611069565b60006001600160401b038211156110e0576110e0610f88565b601f19601f83011660200192915050565b82818337506000910152565b600061110b611017846110c7565b90508281526020810184848401111561112657611126600080fd5b6111318482856110f1565b509392505050565b600082601f83011261114d5761114d600080fd5b8135610e188482602086016110fd565b600061116b61101784610fe6565b8381529050602080820190840283018581111561118a5761118a600080fd5b835b8181101561105f5780356001600160401b038111156111ad576111ad600080fd5b8086016111ba8982611139565b855250506020928301920161118c565b600082601f8301126111de576111de600080fd5b8135610e1884826020860161115d565b60048110610c1a57600080fd5b803561031d816111ee565b6000610160828403121561121c5761121c600080fd5b611227610160610fca565b905060006112358484610e3e565b825250602061124684848301610e98565b60208301525060408201356001600160401b0381111561126857611268600080fd5b611274848285016111ca565b604083015250606061128884828501610f28565b60608301525060808201356001600160401b038111156112aa576112aa600080fd5b6112b684828501611139565b60808301525060a08201356001600160401b038111156112d8576112d8600080fd5b6112e484828501611139565b60a08301525060c06112f884828501610e3e565b60c08301525060e061130c848285016111fb565b60e0830152506101008201356001600160401b0381111561132f5761132f600080fd5b61133b84828501611139565b6101008301525061012061135184828501610e3e565b6101208301525061014061136784828501610e3e565b6101408301525092915050565b60006020828403121561138957611389600080fd5b81356001600160401b038111156113a2576113a2600080fd5b610e1884828501611206565b634e487b7160e01b600052603260045260246000fd5b610e2481610e7e565b6020810161031d82846113c4565b805161031d81610f20565b6000602082840312156113fb576113fb600080fd5b6000610e1884846113db565b634e487b7160e01b600052601160045260246000fd5b6000600019820361143057611430611407565b5060010190565b6040810161144582856113c4565b6114526020830184610e20565b9392505050565b60006001600160401b03821661031d565b610e2481611459565b6020810161031d828461146a565b634e487b7160e01b600052602160045260246000fd5b634e487b7160e01b600052601260045260246000fd5b6000826114bc576114bc611497565b500490565b60005b838110156114dc5781810151838201526020016114c4565b50506000910152565b60006114ef825190565b8084526020840193506115068185602086016114c1565b601f01601f19169290920192915050565b600061145283836114e5565b600061152d825190565b808452602084019350836020820285016115478560200190565b8060005b8581101561157c57848403895281516115648582611517565b94506020830160209a909a019992505060010161154b565b5091979650505050505050565b60048110610c1a57610c1a611481565b80610fe181611589565b600061031d82611599565b610e24816115a3565b80516000906101608401906115cc8582610e6a565b5060208301516115df60208601826113c4565b50604083015184820360408601526115f78282611523565b915050606083015161160c6060860182610e20565b506080830151848203608086015261162482826114e5565b91505060a083015184820360a086015261163e82826114e5565b91505060c083015161165360c0860182610e6a565b5060e083015161166660e08601826115ae565b5061010083015184820361010086015261168082826114e5565b915050610120830151611697610120860182610e6a565b50610140830151611131610140860182610e6a565b6020808252810161145281846115b7565b606081016116cb82866113c4565b6116d86020830185610e20565b610e186040830184610e6a565b604081016116f382856113c4565b6114526020830184610e6a56fe934c13b4b46cd019a01bb75d649e569483f77416ae3a2eb616d44dd406e67ed44106b53b00ba007ca00c66fda2dd068c64fae6d9aeb99cddc4de3de6cbfa225902dd7bc7dec4dceedda775e58dd541e08a116c6c53815c0bd028192f7b626800a164736f6c6343000814000a",
  "devdoc": {
    "errors": {
      "AccessControlBadConfirmation()": [
        {
          "details": "The caller of a function is not the expected one. NOTE: Don't confuse with {AccessControlUnauthorizedAccount}."
        }
      ],
      "AccessControlUnauthorizedAccount(address,bytes32)": [
        {
          "details": "The `account` is missing a role."
        }
      ],
      "InvalidInitialization()": [
        {
          "details": "The contract is already initialized."
        }
      ],
      "NotInitializing()": [
        {
          "details": "The contract is not initializing."
        }
      ]
    },
    "events": {
      "Initialized(uint64)": {
        "details": "Triggered when the contract has been initialized or reinitialized."
      },
      "RoleAdminChanged(bytes32,bytes32,bytes32)": {
        "details": "Emitted when `newAdminRole` is set as ``role``'s admin role, replacing `previousAdminRole` `DEFAULT_ADMIN_ROLE` is the starting admin for all roles, despite {RoleAdminChanged} not being emitted signaling this."
      },
      "RoleGranted(bytes32,address,address)": {
        "details": "Emitted when `account` is granted `role`. `sender` is the account that originated the contract call, an admin role bearer except when using {AccessControl-_setupRole}."
      },
      "RoleRevoked(bytes32,address,address)": {
        "details": "Emitted when `account` is revoked `role`. `sender` is the account that originated the contract call:   - if using `revokeRole`, it is the admin role bearer   - if using `renounceRole`, it is the role bearer (i.e. `account`)"
      }
    },
    "kind": "dev",
    "methods": {
      "getRoleAdmin(bytes32)": {
        "details": "Returns the admin role that controls `role`. See {grantRole} and {revokeRole}. To change a role's admin, use {_setRoleAdmin}."
      },
      "grantRole(bytes32,address)": {
        "details": "Grants `role` to `account`. If `account` had not been already granted `role`, emits a {RoleGranted} event. Requirements: - the caller must have ``role``'s admin role. May emit a {RoleGranted} event."
      },
      "hasRole(bytes32,address)": {
        "details": "Returns `true` if `account` has been granted `role`."
      },
      "renounceRole(bytes32,address)": {
        "details": "Revokes `role` from the calling account. Roles are often managed via {grantRole} and {revokeRole}: this function's purpose is to provide a mechanism for accounts to lose their privileges if they are compromised (such as when a trusted device is misplaced). If the calling account had been revoked `role`, emits a {RoleRevoked} event. Requirements: - the caller must be `callerConfirmation`. May emit a {RoleRevoked} event."
      },
      "revokeRole(bytes32,address)": {
        "details": "Revokes `role` from `account`. If `account` had been granted `role`, emits a {RoleRevoked} event. Requirements: - the caller must have ``role``'s admin role. May emit a {RoleRevoked} event."
      },
      "supportsInterface(bytes4)": {
        "details": "See {IERC165-supportsInterface}."
      }
    },
    "version": 1
  },
  "userdoc": {
    "kind": "user",
    "methods": {},
    "version": 1
  },
  "storageLayout": {
    "storage": [
      {
        "astId": 966,
        "contract": "contracts/oracle/ComplianceRegistryStub_L1.sol:ComplianceRegistryStub_L1",
        "label": "whitelistRegistries",
        "offset": 0,
        "slot": "0",
        "type": "t_array(t_contract(IComplianceRegistry)852)dyn_storage"
      },
      {
        "astId": 970,
        "contract": "contracts/oracle/ComplianceRegistryStub_L1.sol:ComplianceRegistryStub_L1",
        "label": "blacklistRegistries",
        "offset": 0,
        "slot": "1",
        "type": "t_array(t_contract(IComplianceRegistry)852)dyn_storage"
      },
      {
        "astId": 974,
        "contract": "contracts/oracle/ComplianceRegistryStub_L1.sol:ComplianceRegistryStub_L1",
        "label": "maxProposalEachRegistries",
        "offset": 0,
        "slot": "2",
        "type": "t_array(t_uint256)2_storage"
      },
      {
        "astId": 978,
        "contract": "contracts/oracle/ComplianceRegistryStub_L1.sol:ComplianceRegistryStub_L1",
        "label": "cumulativeProposals",
        "offset": 0,
        "slot": "4",
        "type": "t_array(t_uint256)2_storage"
      }
    ],
    "types": {
      "t_array(t_contract(IComplianceRegistry)852)dyn_storage": {
        "base": "t_contract(IComplianceRegistry)852",
        "encoding": "dynamic_array",
        "label": "contract IComplianceRegistry[]",
        "numberOfBytes": "32"
      },
      "t_array(t_uint256)2_storage": {
        "base": "t_uint256",
        "encoding": "inplace",
        "label": "uint256[2]",
        "numberOfBytes": "64"
      },
      "t_contract(IComplianceRegistry)852": {
        "encoding": "inplace",
        "label": "contract IComplianceRegistry",
        "numberOfBytes": "20"
      },
      "t_uint256": {
        "encoding": "inplace",
        "label": "uint256",
        "numberOfBytes": "32"
      }
    }
  }
}