{
  "address": "0xFf8ef2bb50c8B7Df43B02959831264340e1EB545",
  "abi": [
    {
      "inputs": [],
      "name": "AccessControlBadConfirmation",
      "type": "error"
    },
    {
      "inputs": [
        {
          "internalType": "address",
          "name": "account",
          "type": "address"
        },
        {
          "internalType": "bytes32",
          "name": "neededRole",
          "type": "bytes32"
        }
      ],
      "name": "AccessControlUnauthorizedAccount",
      "type": "error"
    },
    {
      "inputs": [],
      "name": "ComplianceRegistryStub_L1__BlacklistRegistryNotEnough",
      "type": "error"
    },
    {
      "inputs": [],
      "name": "ComplianceRegistryStub_L1__InvalidConfirmProposalStatus",
      "type": "error"
    },
    {
      "inputs": [],
      "name": "ComplianceRegistryStub_L1__WhitelistRegistryNotEnough",
      "type": "error"
    },
    {
      "inputs": [],
      "name": "InvalidInitialization",
      "type": "error"
    },
    {
      "inputs": [],
      "name": "NotInitializing",
      "type": "error"
    },
    {
      "anonymous": false,
      "inputs": [
        {
          "indexed": false,
          "internalType": "address",
          "name": "",
          "type": "address"
        },
        {
          "indexed": false,
          "internalType": "bool",
          "name": "",
          "type": "bool"
        },
        {
          "indexed": false,
          "internalType": "bytes32",
          "name": "",
          "type": "bytes32"
        }
      ],
      "name": "AddProposalToRegistryList",
      "type": "event"
    },
    {
      "anonymous": false,
      "inputs": [
        {
          "indexed": false,
          "internalType": "address",
          "name": "",
          "type": "address"
        },
        {
          "indexed": false,
          "internalType": "bool",
          "name": "",
          "type": "bool"
        }
      ],
      "name": "AddRegistryToList",
      "type": "event"
    },
    {
      "anonymous": false,
      "inputs": [
        {
          "indexed": false,
          "internalType": "uint64",
          "name": "version",
          "type": "uint64"
        }
      ],
      "name": "Initialized",
      "type": "event"
    },
    {
      "anonymous": false,
      "inputs": [
        {
          "indexed": false,
          "internalType": "address",
          "name": "",
          "type": "address"
        },
        {
          "indexed": false,
          "internalType": "bool",
          "name": "",
          "type": "bool"
        },
        {
          "indexed": false,
          "internalType": "uint256",
          "name": "",
          "type": "uint256"
        }
      ],
      "name": "ReplaceRegistry",
      "type": "event"
    },
    {
      "anonymous": false,
      "inputs": [
        {
          "indexed": true,
          "internalType": "bytes32",
          "name": "role",
          "type": "bytes32"
        },
        {
          "indexed": true,
          "internalType": "bytes32",
          "name": "previousAdminRole",
          "type": "bytes32"
        },
        {
          "indexed": true,
          "internalType": "bytes32",
          "name": "newAdminRole",
          "type": "bytes32"
        }
      ],
      "name": "RoleAdminChanged",
      "type": "event"
    },
    {
      "anonymous": false,
      "inputs": [
        {
          "indexed": true,
          "internalType": "bytes32",
          "name": "role",
          "type": "bytes32"
        },
        {
          "indexed": true,
          "internalType": "address",
          "name": "account",
          "type": "address"
        },
        {
          "indexed": true,
          "internalType": "address",
          "name": "sender",
          "type": "address"
        }
      ],
      "name": "RoleGranted",
      "type": "event"
    },
    {
      "anonymous": false,
      "inputs": [
        {
          "indexed": true,
          "internalType": "bytes32",
          "name": "role",
          "type": "bytes32"
        },
        {
          "indexed": true,
          "internalType": "address",
          "name": "account",
          "type": "address"
        },
        {
          "indexed": true,
          "internalType": "address",
          "name": "sender",
          "type": "address"
        }
      ],
      "name": "RoleRevoked",
      "type": "event"
    },
    {
      "inputs": [],
      "name": "ADMIN_ROLE",
      "outputs": [
        {
          "internalType": "bytes32",
          "name": "",
          "type": "bytes32"
        }
      ],
      "stateMutability": "view",
      "type": "function"
    },
    {
      "inputs": [],
      "name": "DEFAULT_ADMIN_ROLE",
      "outputs": [
        {
          "internalType": "bytes32",
          "name": "",
          "type": "bytes32"
        }
      ],
      "stateMutability": "view",
      "type": "function"
    },
    {
      "inputs": [],
      "name": "GUARDIAN_NODE",
      "outputs": [
        {
          "internalType": "bytes32",
          "name": "",
          "type": "bytes32"
        }
      ],
      "stateMutability": "view",
      "type": "function"
    },
    {
      "inputs": [],
      "name": "MANAGER_ROLE",
      "outputs": [
        {
          "internalType": "bytes32",
          "name": "",
          "type": "bytes32"
        }
      ],
      "stateMutability": "view",
      "type": "function"
    },
    {
      "inputs": [
        {
          "internalType": "contract IComplianceRegistry",
          "name": "registry",
          "type": "address"
        },
        {
          "internalType": "bool",
          "name": "useWhitelist",
          "type": "bool"
        }
      ],
      "name": "addRegistry",
      "outputs": [],
      "stateMutability": "nonpayable",
      "type": "function"
    },
    {
      "inputs": [
        {
          "internalType": "uint256",
          "name": "",
          "type": "uint256"
        }
      ],
      "name": "blacklistRegistries",
      "outputs": [
        {
          "internalType": "contract IComplianceRegistry",
          "name": "",
          "type": "address"
        }
      ],
      "stateMutability": "view",
      "type": "function"
    },
    {
      "inputs": [
        {
          "components": [
            {
              "internalType": "bytes32",
              "name": "id",
              "type": "bytes32"
            },
            {
              "internalType": "address",
              "name": "author",
              "type": "address"
            },
            {
              "internalType": "bytes[]",
              "name": "targets",
              "type": "bytes[]"
            },
            {
              "internalType": "bool",
              "name": "isWhitelist",
              "type": "bool"
            },
            {
              "internalType": "string",
              "name": "description",
              "type": "string"
            },
            {
              "internalType": "string",
              "name": "region",
              "type": "string"
            },
            {
              "internalType": "uint256",
              "name": "timestamp",
              "type": "uint256"
            },
            {
              "internalType": "enum ProposalCommon.ProposalStatus",
              "name": "status",
              "type": "uint8"
            },
            {
              "internalType": "bytes",
              "name": "signature",
              "type": "bytes"
            },
            {
              "internalType": "uint256",
              "name": "voters",
              "type": "uint256"
            },
            {
              "internalType": "uint256",
              "name": "activeNodes",
              "type": "uint256"
            }
          ],
          "internalType": "struct ProposalCommon.Proposal",
          "name": "proposal",
          "type": "tuple"
        }
      ],
      "name": "confirmProposal",
      "outputs": [],
      "stateMutability": "nonpayable",
      "type": "function"
    },
    {
      "inputs": [
        {
          "internalType": "uint256",
          "name": "",
          "type": "uint256"
        }
      ],
      "name": "cumulativeProposals",
      "outputs": [
        {
          "internalType": "uint256",
          "name": "",
          "type": "uint256"
        }
      ],
      "stateMutability": "view",
      "type": "function"
    },
    {
      "inputs": [
        {
          "internalType": "bytes32",
          "name": "role",
          "type": "bytes32"
        }
      ],
      "name": "getRoleAdmin",
      "outputs": [
        {
          "internalType": "bytes32",
          "name": "",
          "type": "bytes32"
        }
      ],
      "stateMutability": "view",
      "type": "function"
    },
    {
      "inputs": [
        {
          "internalType": "bytes32",
          "name": "role",
          "type": "bytes32"
        },
        {
          "internalType": "address",
          "name": "account",
          "type": "address"
        }
      ],
      "name": "grantRole",
      "outputs": [],
      "stateMutability": "nonpayable",
      "type": "function"
    },
    {
      "inputs": [
        {
          "internalType": "bytes32",
          "name": "role",
          "type": "bytes32"
        },
        {
          "internalType": "address",
          "name": "account",
          "type": "address"
        }
      ],
      "name": "hasRole",
      "outputs": [
        {
          "internalType": "bool",
          "name": "",
          "type": "bool"
        }
      ],
      "stateMutability": "view",
      "type": "function"
    },
    {
      "inputs": [
        {
          "internalType": "address",
          "name": "_admin",
          "type": "address"
        }
      ],
      "name": "initialize",
      "outputs": [],
      "stateMutability": "nonpayable",
      "type": "function"
    },
    {
      "inputs": [
        {
          "internalType": "address",
          "name": "account",
          "type": "address"
        }
      ],
      "name": "isBlacklist",
      "outputs": [
        {
          "internalType": "bool",
          "name": "",
          "type": "bool"
        }
      ],
      "stateMutability": "view",
      "type": "function"
    },
    {
      "inputs": [
        {
          "internalType": "address",
          "name": "account",
          "type": "address"
        }
      ],
      "name": "isWhitelist",
      "outputs": [
        {
          "internalType": "bool",
          "name": "",
          "type": "bool"
        }
      ],
      "stateMutability": "view",
      "type": "function"
    },
    {
      "inputs": [
        {
          "internalType": "uint256",
          "name": "",
          "type": "uint256"
        }
      ],
      "name": "maxProposalEachRegistries",
      "outputs": [
        {
          "internalType": "uint256",
          "name": "",
          "type": "uint256"
        }
      ],
      "stateMutability": "view",
      "type": "function"
    },
    {
      "inputs": [
        {
          "internalType": "uint256",
          "name": "",
          "type": "uint256"
        }
      ],
      "name": "registriesCount",
      "outputs": [
        {
          "internalType": "uint256",
          "name": "",
          "type": "uint256"
        }
      ],
      "stateMutability": "view",
      "type": "function"
    },
    {
      "inputs": [
        {
          "internalType": "bytes32",
          "name": "role",
          "type": "bytes32"
        },
        {
          "internalType": "address",
          "name": "callerConfirmation",
          "type": "address"
        }
      ],
      "name": "renounceRole",
      "outputs": [],
      "stateMutability": "nonpayable",
      "type": "function"
    },
    {
      "inputs": [
        {
          "internalType": "contract IComplianceRegistry",
          "name": "registry",
          "type": "address"
        },
        {
          "internalType": "bool",
          "name": "useWhitelist",
          "type": "bool"
        },
        {
          "internalType": "uint256",
          "name": "index",
          "type": "uint256"
        }
      ],
      "name": "replaceRegistry",
      "outputs": [],
      "stateMutability": "nonpayable",
      "type": "function"
    },
    {
      "inputs": [
        {
          "internalType": "bytes32",
          "name": "role",
          "type": "bytes32"
        },
        {
          "internalType": "address",
          "name": "account",
          "type": "address"
        }
      ],
      "name": "revokeRole",
      "outputs": [],
      "stateMutability": "nonpayable",
      "type": "function"
    },
    {
      "inputs": [
        {
          "internalType": "bytes4",
          "name": "interfaceId",
          "type": "bytes4"
        }
      ],
      "name": "supportsInterface",
      "outputs": [
        {
          "internalType": "bool",
          "name": "",
          "type": "bool"
        }
      ],
      "stateMutability": "view",
      "type": "function"
    },
    {
      "inputs": [
        {
          "internalType": "uint256[]",
          "name": "_maxProposalEachRegistries",
          "type": "uint256[]"
        }
      ],
      "name": "updateMaxProposalEachRegistries",
      "outputs": [],
      "stateMutability": "nonpayable",
      "type": "function"
    },
    {
      "inputs": [
        {
          "internalType": "uint256",
          "name": "",
          "type": "uint256"
        }
      ],
      "name": "whitelistRegistries",
      "outputs": [
        {
          "internalType": "contract IComplianceRegistry",
          "name": "",
          "type": "address"
        }
      ],
      "stateMutability": "view",
      "type": "function"
    }
  ],
  "transactionHash": "0xfcf2ac3d4ad4dc1527c515b42a7d467850e6f5cd7cc7f6b7bcb59314f974b58b",
  "args": [],
  "numDeployments": 3,
  "solcInputHash": "2e3f3f0a74f2da4f6cef039b90f045b9",
  "bytecode": "0x608060405234801561001057600080fd5b50611805806100206000396000f3fe608060405234801561001057600080fd5b50600436106101425760003560e01c80637f8f4cfd116100b8578063c4d66de81161007c578063c4d66de8146102e0578063c683630d146102f3578063d33559ce14610306578063d547741f14610319578063ec87621c1461032c578063f8a713a61461034157600080fd5b80637f8f4cfd1461027657806389af4e1b1461028957806391d148541461029c578063924dc5eb146102af578063a217fddf146102d857600080fd5b8063394d533d1161010a578063394d533d146101cb578063434dbccd146101de578063571c81e2146102145780635db2f77e1461023b57806374d62e921461024e57806375b238fc1461026157600080fd5b806301ffc9a714610147578063248a9ca3146101705780632f2ff15d14610190578063333e99db146101a557806336568abe146101b8575b600080fd5b61015a610155366004610e3f565b610354565b6040516101679190610e72565b60405180910390f35b61018361017e366004610e91565b61038b565b6040516101679190610eb8565b6101a361019e366004610eeb565b6103ad565b005b61015a6101b3366004610f28565b6103cf565b6101a36101c6366004610eeb565b610484565b6101a36101d9366004610f7b565b6104bc565b6102076101ec366004610e91565b6000602081905290815260409020546001600160a01b031681565b6040516101679190610fc2565b6101837fe76d95910c74dbdb8a76b5bb9fe1033fb4a288062f27b597996af2ee14b645dd81565b610183610249366004610e91565b61059a565b6101a361025c3660046110d5565b6105b1565b61018360008051602061179983398151915281565b610183610284366004610e91565b610631565b610183610297366004610e91565b610641565b61015a6102aa366004610eeb565b610651565b6102076102bd366004610e91565b6001602052600090815260409020546001600160a01b031681565b610183600081565b6101a36102ee366004610f28565b610689565b61015a610301366004610f28565b610849565b6101a36103143660046113bc565b6108f5565b6101a3610327366004610eeb565b610b7b565b6101836000805160206117b983398151915281565b6101a361034f3660046113f6565b610b97565b60006001600160e01b03198216637965db0b60e01b148061038557506301ffc9a760e01b6001600160e01b03198316145b92915050565b60009081526000805160206117d9833981519152602052604090206001015490565b6103b68261038b565b6103bf81610c58565b6103c98383610c65565b50505050565b6000805b60035481101561047b57600081815260016020526040908190205490516306ee7f4760e11b81526001600160a01b0390911690630ddcfe8e9061041a908690600401611465565b602060405180830381865afa158015610437573d6000803e3d6000fd5b505050506040513d601f19601f8201168201806040525081019061045b919061147e565b156104695750600192915050565b80610473816114b5565b9150506103d3565b50600092915050565b6001600160a01b03811633146104ad5760405163334bd91960e11b815260040160405180910390fd5b6104b78282610d0a565b505050565b6000805160206117b98339815191526104d481610c58565b811561051e5760028054600090815260208190526040812080546001600160a01b0319166001600160a01b038716179055018054906000610514836114b5565b919050555061055c565b60038054600090815260016020526040812080546001600160a01b0319166001600160a01b03871617905581549190610556836114b5565b91905055505b7f6c27876fb4766ae415ef64e25294d6d7a09bf6521e8848919ed889a3511aa8be838360405161058d9291906114cf565b60405180910390a1505050565b600281600281106105aa57600080fd5b0154905081565b6000805160206117b98339815191526105c981610c58565b816000815181106105dc576105dc611446565b602002602001015160046000600281106105f8576105f8611446565b015581518290600190811061060f5761060f611446565b6020026020010151600460016002811061062b5761062b611446565b01555050565b600681600281106105aa57600080fd5b600481600281106105aa57600080fd5b60009182526000805160206117d9833981519152602090815260408084206001600160a01b0393909316845291905290205460ff1690565b7ff0c57e16840df040f15088dc2f81fe391c3923bec73e23a9662efc9c229c6a008054600160401b810460ff1615906001600160401b03166000811580156106ce5750825b90506000826001600160401b031660011480156106ea5750303b155b9050811580156106f8575080155b156107165760405163f92ee8a960e01b815260040160405180910390fd5b845467ffffffffffffffff19166001178555831561074057845460ff60401b1916600160401b1785555b61075860008051602061179983398151915287610c65565b5061077f6000805160206117b9833981519152600080516020611799833981519152610d86565b6107b77fe76d95910c74dbdb8a76b5bb9fe1033fb4a288062f27b597996af2ee14b645dd600080516020611799833981519152610d86565b600a600481905560055560006006819055600781905560028190556003556107ed60008051602061179983398151915287610651565b6107f657600080fd5b831561084157845460ff60401b191685556040517fc7f505b2f371ae2175ee4913f4499e1f2633a7b5936321eed1cdaeb6115181d2906108389060019061150b565b60405180910390a15b505050505050565b6000805b60025481101561047b57600081815260208190526040908190205490516306ee7f4760e11b81526001600160a01b0390911690630ddcfe8e90610894908690600401611465565b602060405180830381865afa1580156108b1573d6000803e3d6000fd5b505050506040513d601f19601f820116820180604052508101906108d5919061147e565b156108e35750600192915050565b806108ed816114b5565b91505061084d565b7fe76d95910c74dbdb8a76b5bb9fe1033fb4a288062f27b597996af2ee14b645dd61091f81610c58565b60028260e00151600381111561093757610937611519565b146109555760405163236ca85f60e11b815260040160405180910390fd5b816060015115610a725760045460065460009161097191611545565b600254909150811061099657604051631c080c8b60e01b815260040160405180910390fd5b6000818152602081905260409081902054905163087e71b960e41b81526001600160a01b039091169081906387e71b90906109d5908790600401611744565b600060405180830381600087803b1580156109ef57600080fd5b505af1158015610a03573d6000803e3d6000fd5b505050506006600060028110610a1b57610a1b611446565b018054906000610a2a836114b5565b909155505083516040517ff98fd88cee5f543251a4b683b5a8a3477776c0f0338d3597ee05ed60799b6dd691610a64918491600191611755565b60405180910390a150505050565b600554600754600091610a8491611545565b6003549091508110610aa957604051639eeefd8b60e01b815260040160405180910390fd5b6000818152600160205260409081902054905163087e71b960e41b81526001600160a01b039091169081906387e71b9090610ae8908790600401611744565b600060405180830381600087803b158015610b0257600080fd5b505af1158015610b16573d6000803e3d6000fd5b505050506006600160028110610b2e57610b2e611446565b018054906000610b3d836114b5565b909155505083516040517ff98fd88cee5f543251a4b683b5a8a3477776c0f0338d3597ee05ed60799b6dd691610a64918491600091611755565b5050565b610b848261038b565b610b8d81610c58565b6103c98383610d0a565b6000805160206117b9833981519152610baf81610c58565b8215610bef576002548210610bc357600080fd5b600082815260208190526040902080546001600160a01b0319166001600160a01b038616179055610c25565b6003548210610bfd57600080fd5b600082815260016020526040902080546001600160a01b0319166001600160a01b0386161790555b7fe3d9b91a0dfc2d06e85fccd22dfad319f64f86183d408e501d39f3b8d7cf24e8848484604051610a6493929190611755565b610c628133610de9565b50565b60006000805160206117d9833981519152610c808484610651565b610d00576000848152602082815260408083206001600160a01b03871684529091529020805460ff19166001179055610cb63390565b6001600160a01b0316836001600160a01b0316857f2f8788117e7eff1d82e926ec794901d17c78024a50270940304540a733656f0d60405160405180910390a46001915050610385565b6000915050610385565b60006000805160206117d9833981519152610d258484610651565b15610d00576000848152602082815260408083206001600160a01b0387168085529252808320805460ff1916905551339287917ff6391f5c32d9c69d2a47ea670b442974b53935d1edc7fd64eb21e047a839171b9190a46001915050610385565b6000805160206117d98339815191526000610da08461038b565b600085815260208490526040808220600101869055519192508491839187917fbd79b86ffe0ab8e8776151514217cd7cacd52c909f66475c3af44e129f0b00ff9190a450505050565b610df38282610651565b610b7757808260405163e2517d3f60e01b8152600401610e1492919061177d565b60405180910390fd5b6001600160e01b031981165b8114610c6257600080fd5b803561038581610e1d565b600060208284031215610e5457610e54600080fd5b6000610e608484610e34565b949350505050565b8015155b82525050565b602081016103858284610e68565b80610e29565b803561038581610e80565b600060208284031215610ea657610ea6600080fd5b6000610e608484610e86565b80610e6c565b602081016103858284610eb2565b60006001600160a01b038216610385565b610e2981610ec6565b803561038581610ed7565b60008060408385031215610f0157610f01600080fd5b6000610f0d8585610e86565b9250506020610f1e85828601610ee0565b9150509250929050565b600060208284031215610f3d57610f3d600080fd5b6000610e608484610ee0565b600061038582610ec6565b610e2981610f49565b803561038581610f54565b801515610e29565b803561038581610f68565b60008060408385031215610f9157610f91600080fd5b6000610f9d8585610f5d565b9250506020610f1e85828601610f70565b600061038582610f49565b610e6c81610fae565b602081016103858284610fb9565b634e487b7160e01b600052604160045260246000fd5b601f19601f83011681018181106001600160401b038211171561100b5761100b610fd0565b6040525050565b600061101d60405190565b90506110298282610fe6565b919050565b60006001600160401b0382111561104757611047610fd0565b5060209081020190565b600061106461105f8461102e565b611012565b8381529050602080820190840283018581111561108357611083600080fd5b835b818110156110a757806110988882610e86565b84525060209283019201611085565b5050509392505050565b600082601f8301126110c5576110c5600080fd5b8135610e60848260208601611051565b6000602082840312156110ea576110ea600080fd5b81356001600160401b0381111561110357611103600080fd5b610e60848285016110b1565b60006001600160401b0382111561112857611128610fd0565b601f19601f83011660200192915050565b82818337506000910152565b600061115361105f8461110f565b90508281526020810184848401111561116e5761116e600080fd5b611179848285611139565b509392505050565b600082601f83011261119557611195600080fd5b8135610e60848260208601611145565b60006111b361105f8461102e565b838152905060208082019084028301858111156111d2576111d2600080fd5b835b818110156110a75780356001600160401b038111156111f5576111f5600080fd5b8086016112028982611181565b85525050602092830192016111d4565b600082601f83011261122657611226600080fd5b8135610e608482602086016111a5565b60048110610c6257600080fd5b803561038581611236565b6000610160828403121561126457611264600080fd5b61126f610160611012565b9050600061127d8484610e86565b825250602061128e84848301610ee0565b60208301525060408201356001600160401b038111156112b0576112b0600080fd5b6112bc84828501611212565b60408301525060606112d084828501610f70565b60608301525060808201356001600160401b038111156112f2576112f2600080fd5b6112fe84828501611181565b60808301525060a08201356001600160401b0381111561132057611320600080fd5b61132c84828501611181565b60a08301525060c061134084828501610e86565b60c08301525060e061135484828501611243565b60e0830152506101008201356001600160401b0381111561137757611377600080fd5b61138384828501611181565b6101008301525061012061139984828501610e86565b610120830152506101406113af84828501610e86565b6101408301525092915050565b6000602082840312156113d1576113d1600080fd5b81356001600160401b038111156113ea576113ea600080fd5b610e608482850161124e565b60008060006060848603121561140e5761140e600080fd5b600061141a8686610f5d565b935050602061142b86828701610f70565b925050604061143c86828701610e86565b9150509250925092565b634e487b7160e01b600052603260045260246000fd5b610e6c81610ec6565b60208101610385828461145c565b805161038581610f68565b60006020828403121561149357611493600080fd5b6000610e608484611473565b634e487b7160e01b600052601160045260246000fd5b600060001982036114c8576114c861149f565b5060010190565b604081016114dd828561145c565b6114ea6020830184610e68565b9392505050565b60006001600160401b038216610385565b610e6c816114f1565b602081016103858284611502565b634e487b7160e01b600052602160045260246000fd5b634e487b7160e01b600052601260045260246000fd5b6000826115545761155461152f565b500490565b60005b8381101561157457818101518382015260200161155c565b50506000910152565b6000611587825190565b80845260208401935061159e818560208601611559565b601f01601f19169290920192915050565b60006114ea838361157d565b60006115c5825190565b808452602084019350836020820285016115df8560200190565b8060005b8581101561161457848403895281516115fc85826115af565b94506020830160209a909a01999250506001016115e3565b5091979650505050505050565b60048110610c6257610c62611519565b8061102981611621565b600061038582611631565b610e6c8161163b565b80516000906101608401906116648582610eb2565b506020830151611677602086018261145c565b506040830151848203604086015261168f82826115bb565b91505060608301516116a46060860182610e68565b50608083015184820360808601526116bc828261157d565b91505060a083015184820360a08601526116d6828261157d565b91505060c08301516116eb60c0860182610eb2565b5060e08301516116fe60e0860182611646565b50610100830151848203610100860152611718828261157d565b91505061012083015161172f610120860182610eb2565b50610140830151611179610140860182610eb2565b602080825281016114ea818461164f565b60608101611763828661145c565b6117706020830185610e68565b610e606040830184610eb2565b6040810161178b828561145c565b6114ea6020830184610eb256fe934c13b4b46cd019a01bb75d649e569483f77416ae3a2eb616d44dd406e67ed44106b53b00ba007ca00c66fda2dd068c64fae6d9aeb99cddc4de3de6cbfa225902dd7bc7dec4dceedda775e58dd541e08a116c6c53815c0bd028192f7b626800a164736f6c6343000814000a",
  "devdoc": {
    "errors": {
      "AccessControlBadConfirmation()": [
        {
          "details": "The caller of a function is not the expected one. NOTE: Don't confuse with {AccessControlUnauthorizedAccount}."
        }
      ],
      "AccessControlUnauthorizedAccount(address,bytes32)": [
        {
          "details": "The `account` is missing a role."
        }
      ],
      "InvalidInitialization()": [
        {
          "details": "The contract is already initialized."
        }
      ],
      "NotInitializing()": [
        {
          "details": "The contract is not initializing."
        }
      ]
    },
    "events": {
      "Initialized(uint64)": {
        "details": "Triggered when the contract has been initialized or reinitialized."
      },
      "RoleAdminChanged(bytes32,bytes32,bytes32)": {
        "details": "Emitted when `newAdminRole` is set as ``role``'s admin role, replacing `previousAdminRole` `DEFAULT_ADMIN_ROLE` is the starting admin for all roles, despite {RoleAdminChanged} not being emitted signaling this."
      },
      "RoleGranted(bytes32,address,address)": {
        "details": "Emitted when `account` is granted `role`. `sender` is the account that originated the contract call, an admin role bearer except when using {AccessControl-_setupRole}."
      },
      "RoleRevoked(bytes32,address,address)": {
        "details": "Emitted when `account` is revoked `role`. `sender` is the account that originated the contract call:   - if using `revokeRole`, it is the admin role bearer   - if using `renounceRole`, it is the role bearer (i.e. `account`)"
      }
    },
    "kind": "dev",
    "methods": {
      "getRoleAdmin(bytes32)": {
        "details": "Returns the admin role that controls `role`. See {grantRole} and {revokeRole}. To change a role's admin, use {_setRoleAdmin}."
      },
      "grantRole(bytes32,address)": {
        "details": "Grants `role` to `account`. If `account` had not been already granted `role`, emits a {RoleGranted} event. Requirements: - the caller must have ``role``'s admin role. May emit a {RoleGranted} event."
      },
      "hasRole(bytes32,address)": {
        "details": "Returns `true` if `account` has been granted `role`."
      },
      "renounceRole(bytes32,address)": {
        "details": "Revokes `role` from the calling account. Roles are often managed via {grantRole} and {revokeRole}: this function's purpose is to provide a mechanism for accounts to lose their privileges if they are compromised (such as when a trusted device is misplaced). If the calling account had been revoked `role`, emits a {RoleRevoked} event. Requirements: - the caller must be `callerConfirmation`. May emit a {RoleRevoked} event."
      },
      "revokeRole(bytes32,address)": {
        "details": "Revokes `role` from `account`. If `account` had been granted `role`, emits a {RoleRevoked} event. Requirements: - the caller must have ``role``'s admin role. May emit a {RoleRevoked} event."
      },
      "supportsInterface(bytes4)": {
        "details": "See {IERC165-supportsInterface}."
      }
    },
    "version": 1
  },
  "userdoc": {
    "kind": "user",
    "methods": {},
    "version": 1
  },
  "storageLayout": {
    "storage": [
      {
        "astId": 975,
        "contract": "contracts/oracle/ComplianceRegistryStub_L1.sol:ComplianceRegistryStub_L1",
        "label": "whitelistRegistries",
        "offset": 0,
        "slot": "0",
        "type": "t_mapping(t_uint256,t_contract(IComplianceRegistry)852)"
      },
      {
        "astId": 980,
        "contract": "contracts/oracle/ComplianceRegistryStub_L1.sol:ComplianceRegistryStub_L1",
        "label": "blacklistRegistries",
        "offset": 0,
        "slot": "1",
        "type": "t_mapping(t_uint256,t_contract(IComplianceRegistry)852)"
      },
      {
        "astId": 984,
        "contract": "contracts/oracle/ComplianceRegistryStub_L1.sol:ComplianceRegistryStub_L1",
        "label": "registriesCount",
        "offset": 0,
        "slot": "2",
        "type": "t_array(t_uint256)2_storage"
      },
      {
        "astId": 988,
        "contract": "contracts/oracle/ComplianceRegistryStub_L1.sol:ComplianceRegistryStub_L1",
        "label": "maxProposalEachRegistries",
        "offset": 0,
        "slot": "4",
        "type": "t_array(t_uint256)2_storage"
      },
      {
        "astId": 992,
        "contract": "contracts/oracle/ComplianceRegistryStub_L1.sol:ComplianceRegistryStub_L1",
        "label": "cumulativeProposals",
        "offset": 0,
        "slot": "6",
        "type": "t_array(t_uint256)2_storage"
      }
    ],
    "types": {
      "t_array(t_uint256)2_storage": {
        "base": "t_uint256",
        "encoding": "inplace",
        "label": "uint256[2]",
        "numberOfBytes": "64"
      },
      "t_contract(IComplianceRegistry)852": {
        "encoding": "inplace",
        "label": "contract IComplianceRegistry",
        "numberOfBytes": "20"
      },
      "t_mapping(t_uint256,t_contract(IComplianceRegistry)852)": {
        "encoding": "mapping",
        "key": "t_uint256",
        "label": "mapping(uint256 => contract IComplianceRegistry)",
        "numberOfBytes": "32",
        "value": "t_contract(IComplianceRegistry)852"
      },
      "t_uint256": {
        "encoding": "inplace",
        "label": "uint256",
        "numberOfBytes": "32"
      }
    }
  }
}