{
  "address": "0x74A3B441FD0141524489480A6E23771eF42332F7",
  "abi": [
    {
      "inputs": [],
      "name": "AccessControlBadConfirmation",
      "type": "error"
    },
    {
      "inputs": [
        {
          "internalType": "address",
          "name": "account",
          "type": "address"
        },
        {
          "internalType": "bytes32",
          "name": "neededRole",
          "type": "bytes32"
        }
      ],
      "name": "AccessControlUnauthorizedAccount",
      "type": "error"
    },
    {
      "inputs": [],
      "name": "ComplianceRegistryStub_L1__InvalidConfirmProposalStatus",
      "type": "error"
    },
    {
      "inputs": [],
      "name": "InvalidInitialization",
      "type": "error"
    },
    {
      "inputs": [],
      "name": "NotInitializing",
      "type": "error"
    },
    {
      "anonymous": false,
      "inputs": [
        {
          "indexed": false,
          "internalType": "address",
          "name": "",
          "type": "address"
        },
        {
          "indexed": false,
          "internalType": "bool",
          "name": "",
          "type": "bool"
        },
        {
          "indexed": false,
          "internalType": "bytes32",
          "name": "",
          "type": "bytes32"
        }
      ],
      "name": "AddProposalToRegistryList",
      "type": "event"
    },
    {
      "anonymous": false,
      "inputs": [
        {
          "indexed": false,
          "internalType": "address",
          "name": "",
          "type": "address"
        },
        {
          "indexed": false,
          "internalType": "bool",
          "name": "",
          "type": "bool"
        }
      ],
      "name": "AddRegistryToList",
      "type": "event"
    },
    {
      "anonymous": false,
      "inputs": [
        {
          "indexed": false,
          "internalType": "uint64",
          "name": "version",
          "type": "uint64"
        }
      ],
      "name": "Initialized",
      "type": "event"
    },
    {
      "anonymous": false,
      "inputs": [
        {
          "indexed": false,
          "internalType": "address",
          "name": "",
          "type": "address"
        },
        {
          "indexed": false,
          "internalType": "bool",
          "name": "",
          "type": "bool"
        },
        {
          "indexed": false,
          "internalType": "uint256",
          "name": "",
          "type": "uint256"
        }
      ],
      "name": "ReplaceRegistry",
      "type": "event"
    },
    {
      "anonymous": false,
      "inputs": [
        {
          "indexed": true,
          "internalType": "bytes32",
          "name": "role",
          "type": "bytes32"
        },
        {
          "indexed": true,
          "internalType": "bytes32",
          "name": "previousAdminRole",
          "type": "bytes32"
        },
        {
          "indexed": true,
          "internalType": "bytes32",
          "name": "newAdminRole",
          "type": "bytes32"
        }
      ],
      "name": "RoleAdminChanged",
      "type": "event"
    },
    {
      "anonymous": false,
      "inputs": [
        {
          "indexed": true,
          "internalType": "bytes32",
          "name": "role",
          "type": "bytes32"
        },
        {
          "indexed": true,
          "internalType": "address",
          "name": "account",
          "type": "address"
        },
        {
          "indexed": true,
          "internalType": "address",
          "name": "sender",
          "type": "address"
        }
      ],
      "name": "RoleGranted",
      "type": "event"
    },
    {
      "anonymous": false,
      "inputs": [
        {
          "indexed": true,
          "internalType": "bytes32",
          "name": "role",
          "type": "bytes32"
        },
        {
          "indexed": true,
          "internalType": "address",
          "name": "account",
          "type": "address"
        },
        {
          "indexed": true,
          "internalType": "address",
          "name": "sender",
          "type": "address"
        }
      ],
      "name": "RoleRevoked",
      "type": "event"
    },
    {
      "inputs": [],
      "name": "ADMIN_ROLE",
      "outputs": [
        {
          "internalType": "bytes32",
          "name": "",
          "type": "bytes32"
        }
      ],
      "stateMutability": "view",
      "type": "function"
    },
    {
      "inputs": [],
      "name": "DEFAULT_ADMIN_ROLE",
      "outputs": [
        {
          "internalType": "bytes32",
          "name": "",
          "type": "bytes32"
        }
      ],
      "stateMutability": "view",
      "type": "function"
    },
    {
      "inputs": [],
      "name": "GUARDIAN_NODE",
      "outputs": [
        {
          "internalType": "bytes32",
          "name": "",
          "type": "bytes32"
        }
      ],
      "stateMutability": "view",
      "type": "function"
    },
    {
      "inputs": [],
      "name": "MANAGER_ROLE",
      "outputs": [
        {
          "internalType": "bytes32",
          "name": "",
          "type": "bytes32"
        }
      ],
      "stateMutability": "view",
      "type": "function"
    },
    {
      "inputs": [],
      "name": "blacklist",
      "outputs": [
        {
          "internalType": "uint256",
          "name": "maxProposals",
          "type": "uint256"
        },
        {
          "internalType": "uint256",
          "name": "cumulative",
          "type": "uint256"
        }
      ],
      "stateMutability": "view",
      "type": "function"
    },
    {
      "inputs": [
        {
          "components": [
            {
              "internalType": "bytes32",
              "name": "id",
              "type": "bytes32"
            },
            {
              "internalType": "address",
              "name": "author",
              "type": "address"
            },
            {
              "internalType": "bytes[]",
              "name": "targets",
              "type": "bytes[]"
            },
            {
              "internalType": "bool",
              "name": "isWhitelist",
              "type": "bool"
            },
            {
              "internalType": "string",
              "name": "region",
              "type": "string"
            },
            {
              "internalType": "uint256",
              "name": "timestamp",
              "type": "uint256"
            },
            {
              "internalType": "enum ProposalCommon.ProposalStatus",
              "name": "status",
              "type": "uint8"
            },
            {
              "internalType": "bytes",
              "name": "signature",
              "type": "bytes"
            },
            {
              "internalType": "uint256",
              "name": "voters",
              "type": "uint256"
            },
            {
              "internalType": "uint256",
              "name": "activeNodes",
              "type": "uint256"
            }
          ],
          "internalType": "struct ProposalCommon.Proposal",
          "name": "proposal",
          "type": "tuple"
        }
      ],
      "name": "confirmProposal",
      "outputs": [],
      "stateMutability": "nonpayable",
      "type": "function"
    },
    {
      "inputs": [],
      "name": "factory",
      "outputs": [
        {
          "internalType": "contract RegistryFactory",
          "name": "",
          "type": "address"
        }
      ],
      "stateMutability": "view",
      "type": "function"
    },
    {
      "inputs": [
        {
          "internalType": "bytes32",
          "name": "role",
          "type": "bytes32"
        }
      ],
      "name": "getRoleAdmin",
      "outputs": [
        {
          "internalType": "bytes32",
          "name": "",
          "type": "bytes32"
        }
      ],
      "stateMutability": "view",
      "type": "function"
    },
    {
      "inputs": [
        {
          "internalType": "bytes32",
          "name": "role",
          "type": "bytes32"
        },
        {
          "internalType": "address",
          "name": "account",
          "type": "address"
        }
      ],
      "name": "grantRole",
      "outputs": [],
      "stateMutability": "nonpayable",
      "type": "function"
    },
    {
      "inputs": [
        {
          "internalType": "bytes32",
          "name": "role",
          "type": "bytes32"
        },
        {
          "internalType": "address",
          "name": "account",
          "type": "address"
        }
      ],
      "name": "hasRole",
      "outputs": [
        {
          "internalType": "bool",
          "name": "",
          "type": "bool"
        }
      ],
      "stateMutability": "view",
      "type": "function"
    },
    {
      "inputs": [
        {
          "internalType": "address",
          "name": "_admin",
          "type": "address"
        },
        {
          "internalType": "address",
          "name": "_factory",
          "type": "address"
        }
      ],
      "name": "initialize",
      "outputs": [],
      "stateMutability": "nonpayable",
      "type": "function"
    },
    {
      "inputs": [
        {
          "internalType": "address",
          "name": "account",
          "type": "address"
        }
      ],
      "name": "isBlacklist",
      "outputs": [
        {
          "internalType": "bool",
          "name": "",
          "type": "bool"
        }
      ],
      "stateMutability": "view",
      "type": "function"
    },
    {
      "inputs": [
        {
          "internalType": "address",
          "name": "account",
          "type": "address"
        }
      ],
      "name": "isWhitelist",
      "outputs": [
        {
          "internalType": "bool",
          "name": "",
          "type": "bool"
        }
      ],
      "stateMutability": "view",
      "type": "function"
    },
    {
      "inputs": [
        {
          "internalType": "bytes32",
          "name": "role",
          "type": "bytes32"
        },
        {
          "internalType": "address",
          "name": "callerConfirmation",
          "type": "address"
        }
      ],
      "name": "renounceRole",
      "outputs": [],
      "stateMutability": "nonpayable",
      "type": "function"
    },
    {
      "inputs": [
        {
          "internalType": "bytes32",
          "name": "role",
          "type": "bytes32"
        },
        {
          "internalType": "address",
          "name": "account",
          "type": "address"
        }
      ],
      "name": "revokeRole",
      "outputs": [],
      "stateMutability": "nonpayable",
      "type": "function"
    },
    {
      "inputs": [
        {
          "internalType": "bytes4",
          "name": "interfaceId",
          "type": "bytes4"
        }
      ],
      "name": "supportsInterface",
      "outputs": [
        {
          "internalType": "bool",
          "name": "",
          "type": "bool"
        }
      ],
      "stateMutability": "view",
      "type": "function"
    },
    {
      "inputs": [],
      "name": "whitelist",
      "outputs": [
        {
          "internalType": "uint256",
          "name": "maxProposals",
          "type": "uint256"
        },
        {
          "internalType": "uint256",
          "name": "cumulative",
          "type": "uint256"
        }
      ],
      "stateMutability": "view",
      "type": "function"
    }
  ],
  "transactionHash": "0xbcab9da8323767c678b985bde4e5be9df88288d244a05fa9154f19c5d1556120",
  "args": [],
  "numDeployments": 1,
  "solcInputHash": "e2646cb5ba315e76f3dea997d130f596",
  "bytecode": "0x608060405234801561001057600080fd5b50611583806100206000396000f3fe608060405234801561001057600080fd5b506004361061010b5760003560e01c806391d14854116100a2578063b0385f9611610071578063b0385f9614610216578063c45a015514610229578063c683630d14610249578063d547741f1461025c578063ec87621c1461026f57600080fd5b806391d14854146101d157806393e59dc1146101e4578063a217fddf14610200578063a4b5fa561461020857600080fd5b806336568abe116100de57806336568abe14610181578063485cc95514610194578063571c81e2146101a757806375b238fc146101bc57600080fd5b806301ffc9a714610110578063248a9ca3146101395780632f2ff15d14610159578063333e99db1461016e575b600080fd5b61012361011e366004610ca5565b610296565b6040516101309190610cd8565b60405180910390f35b61014c610147366004610cf7565b6102cd565b6040516101309190610d1e565b61016c610167366004610d51565b6102ef565b005b61012361017c366004610d8e565b610311565b61016c61018f366004610d51565b61044b565b61016c6101a2366004610daf565b610483565b61014c60008051602061153783398151915281565b61014c60008051602061151783398151915281565b6101236101df366004610d51565b610694565b6002546003546101f2919082565b604051610130929190610dd1565b61014c600081565b6000546001546101f2919082565b61016c61022436600461111a565b6106cc565b60045461023c906001600160a01b031681565b6040516101309190611174565b610123610257366004610d8e565b610970565b61016c61026a366004610d51565b610aa2565b61014c7f4106b53b00ba007ca00c66fda2dd068c64fae6d9aeb99cddc4de3de6cbfa225981565b60006001600160e01b03198216637965db0b60e01b14806102c757506301ffc9a760e01b6001600160e01b03198316145b92915050565b6000908152600080516020611557833981519152602052604090206001015490565b6102f8826102cd565b61030181610abe565b61030b8383610acb565b50505050565b6000805b60005460015461032591906111ae565b811015610442576004805460405163674bc38560e11b815260009283926001600160a01b03169163ce97870a916103609187918691016111c2565b6040805180830381865afa15801561037c573d6000803e3d6000fd5b505050506040513d601f19601f820116820180604052508101906103a091906111f3565b91509150806103b0575050610430565b604051632c289dcf60e01b81526001600160a01b03831690632c289dcf906103dc90889060040161122f565b602060405180830381865afa1580156103f9573d6000803e3d6000fd5b505050506040513d601f19601f8201168201806040525081019061041d919061123d565b1561042d57506001949350505050565b50505b8061043a8161125e565b915050610315565b50600092915050565b6001600160a01b03811633146104745760405163334bd91960e11b815260040160405180910390fd5b61047e8282610b70565b505050565b7ff0c57e16840df040f15088dc2f81fe391c3923bec73e23a9662efc9c229c6a008054600160401b810460ff16159067ffffffffffffffff166000811580156104c95750825b905060008267ffffffffffffffff1660011480156104e65750303b155b9050811580156104f4575080155b156105125760405163f92ee8a960e01b815260040160405180910390fd5b845467ffffffffffffffff19166001178555831561053c57845460ff60401b1916600160401b1785555b61055460008051602061151783398151915288610acb565b5061056d60008051602061153783398151915288610acb565b506105a67f4106b53b00ba007ca00c66fda2dd068c64fae6d9aeb99cddc4de3de6cbfa2259600080516020611517833981519152610bec565b6105cc600080516020611537833981519152600080516020611517833981519152610bec565b600480546001600160a01b0319166001600160a01b038816179055604080518082018252600a80825260006020928301819052818155600181905583518085019094528184529290910182905260025560035561063760008051602061151783398151915288610694565b61064057600080fd5b831561068b57845460ff60401b191685556040517fc7f505b2f371ae2175ee4913f4499e1f2633a7b5936321eed1cdaeb6115181d29061068290600190611293565b60405180910390a15b50505050505050565b6000918252600080516020611557833981519152602090815260408084206001600160a01b0393909316845291905290205460ff1690565b6000805160206115378339815191526106e481610abe565b60028260c0015160038111156106fc576106fc6112a1565b1461071a5760405163236ca85f60e11b815260040160405180910390fd5b81606001511561086d57600254600354600091610736916111ae565b600480546040516316aa10dd60e11b81529293506000926001600160a01b0390911691632d5421ba916107709186913091600191016112b7565b6020604051808303816000875af115801561078f573d6000803e3d6000fd5b505050506040513d601f19601f820116820180604052508101906107b391906112df565b6040516306d57de160e01b81529091506001600160a01b038216906306d57de1906107e29087906004016114cf565b600060405180830381600087803b1580156107fc57600080fd5b505af1158015610810573d6000803e3d6000fd5b5050600380549250905060006108258361125e565b909155505083516040517ff98fd88cee5f543251a4b683b5a8a3477776c0f0338d3597ee05ed60799b6dd69161085f9184916001916114e0565b60405180910390a150505050565b6000805460015461087e91906111ae565b600480546040516316aa10dd60e11b81529293506000926001600160a01b0390911691632d5421ba916108b791869130918791016112b7565b6020604051808303816000875af11580156108d6573d6000803e3d6000fd5b505050506040513d601f19601f820116820180604052508101906108fa91906112df565b6040516306d57de160e01b81529091506001600160a01b038216906306d57de1906109299087906004016114cf565b600060405180830381600087803b15801561094357600080fd5b505af1158015610957573d6000803e3d6000fd5b5050600180549250905060006108258361125e565b5050565b6000805b60025460035461098491906111ae565b811015610442576004805460405163674bc38560e11b815260009283926001600160a01b03169163ce97870a916109c0918791600191016111c2565b6040805180830381865afa1580156109dc573d6000803e3d6000fd5b505050506040513d601f19601f82011682018060405250810190610a0091906111f3565b9150915080610a10575050610a90565b604051632c289dcf60e01b81526001600160a01b03831690632c289dcf90610a3c90889060040161122f565b602060405180830381865afa158015610a59573d6000803e3d6000fd5b505050506040513d601f19601f82011682018060405250810190610a7d919061123d565b15610a8d57506001949350505050565b50505b80610a9a8161125e565b915050610974565b610aab826102cd565b610ab481610abe565b61030b8383610b70565b610ac88133610c4f565b50565b6000600080516020611557833981519152610ae68484610694565b610b66576000848152602082815260408083206001600160a01b03871684529091529020805460ff19166001179055610b1c3390565b6001600160a01b0316836001600160a01b0316857f2f8788117e7eff1d82e926ec794901d17c78024a50270940304540a733656f0d60405160405180910390a460019150506102c7565b60009150506102c7565b6000600080516020611557833981519152610b8b8484610694565b15610b66576000848152602082815260408083206001600160a01b0387168085529252808320805460ff1916905551339287917ff6391f5c32d9c69d2a47ea670b442974b53935d1edc7fd64eb21e047a839171b9190a460019150506102c7565b6000805160206115578339815191526000610c06846102cd565b600085815260208490526040808220600101869055519192508491839187917fbd79b86ffe0ab8e8776151514217cd7cacd52c909f66475c3af44e129f0b00ff9190a450505050565b610c598282610694565b61096c57808260405163e2517d3f60e01b8152600401610c7a929190611508565b60405180910390fd5b6001600160e01b031981165b8114610ac857600080fd5b80356102c781610c83565b600060208284031215610cba57610cba600080fd5b6000610cc68484610c9a565b949350505050565b8015155b82525050565b602081016102c78284610cce565b80610c8f565b80356102c781610ce6565b600060208284031215610d0c57610d0c600080fd5b6000610cc68484610cec565b80610cd2565b602081016102c78284610d18565b60006001600160a01b0382166102c7565b610c8f81610d2c565b80356102c781610d3d565b60008060408385031215610d6757610d67600080fd5b6000610d738585610cec565b9250506020610d8485828601610d46565b9150509250929050565b600060208284031215610da357610da3600080fd5b6000610cc68484610d46565b60008060408385031215610dc557610dc5600080fd5b6000610d738585610d46565b60408101610ddf8285610d18565b610dec6020830184610d18565b9392505050565b634e487b7160e01b600052604160045260246000fd5b601f19601f830116810181811067ffffffffffffffff82111715610e2f57610e2f610df3565b6040525050565b6000610e4160405190565b9050610e4d8282610e09565b919050565b600067ffffffffffffffff821115610e6c57610e6c610df3565b5060209081020190565b600067ffffffffffffffff821115610e9057610e90610df3565b601f19601f83011660200192915050565b82818337506000910152565b6000610ec0610ebb84610e76565b610e36565b905082815260208101848484011115610edb57610edb600080fd5b610ee6848285610ea1565b509392505050565b600082601f830112610f0257610f02600080fd5b8135610cc6848260208601610ead565b6000610f20610ebb84610e52565b83815290506020808201908402830185811115610f3f57610f3f600080fd5b835b81811015610f8057803567ffffffffffffffff811115610f6357610f63600080fd5b808601610f708982610eee565b8552505060209283019201610f41565b5050509392505050565b600082601f830112610f9e57610f9e600080fd5b8135610cc6848260208601610f12565b801515610c8f565b80356102c781610fae565b60048110610ac857600080fd5b80356102c781610fc1565b60006101408284031215610fef57610fef600080fd5b610ffa610140610e36565b905060006110088484610cec565b825250602061101984848301610d46565b602083015250604082013567ffffffffffffffff81111561103c5761103c600080fd5b61104884828501610f8a565b604083015250606061105c84828501610fb6565b606083015250608082013567ffffffffffffffff81111561107f5761107f600080fd5b61108b84828501610eee565b60808301525060a061109f84828501610cec565b60a08301525060c06110b384828501610fce565b60c08301525060e082013567ffffffffffffffff8111156110d6576110d6600080fd5b6110e284828501610eee565b60e0830152506101006110f784828501610cec565b6101008301525061012061110d84828501610cec565b6101208301525092915050565b60006020828403121561112f5761112f600080fd5b813567ffffffffffffffff81111561114957611149600080fd5b610cc684828501610fd9565b60006102c782610d2c565b60006102c782611155565b610cd281611160565b602081016102c7828461116b565b634e487b7160e01b600052601260045260246000fd5b634e487b7160e01b600052601160045260246000fd5b6000826111bd576111bd611182565b500490565b604081016111d08285610d18565b610dec6020830184610cce565b80516102c781610d3d565b80516102c781610fae565b6000806040838503121561120957611209600080fd5b600061121585856111dd565b9250506020610d84858286016111e8565b610cd281610d2c565b602081016102c78284611226565b60006020828403121561125257611252600080fd5b6000610cc684846111e8565b6000600019820361127157611271611198565b5060010190565b600067ffffffffffffffff82166102c7565b610cd281611278565b602081016102c7828461128a565b634e487b7160e01b600052602160045260246000fd5b606081016112c58286610d18565b6112d26020830185611226565b610cc66040830184610cce565b6000602082840312156112f4576112f4600080fd5b6000610cc684846111dd565b60005b8381101561131b578181015183820152602001611303565b50506000910152565b600061132e825190565b808452602084019350611345818560208601611300565b601f01601f19169290920192915050565b6000610dec8383611324565b600061136c825190565b808452602084019350836020820285016113868560200190565b8060005b858110156113bb57848403895281516113a38582611356565b94506020830160209a909a019992505060010161138a565b5091979650505050505050565b60048110610ac857610ac86112a1565b80610e4d816113c8565b60006102c7826113d8565b610cd2816113e2565b805160009061014084019061140b8582610d18565b50602083015161141e6020860182611226565b50604083015184820360408601526114368282611362565b915050606083015161144b6060860182610cce565b50608083015184820360808601526114638282611324565b91505060a083015161147860a0860182610d18565b5060c083015161148b60c08601826113ed565b5060e083015184820360e08601526114a38282611324565b9150506101008301516114ba610100860182610d18565b50610120830151610ee6610120860182610d18565b60208082528101610dec81846113f6565b606081016114ee8286611226565b6114fb6020830185610cce565b610cc66040830184610d18565b60408101610ddf828561122656fe934c13b4b46cd019a01bb75d649e569483f77416ae3a2eb616d44dd406e67ed4e76d95910c74dbdb8a76b5bb9fe1033fb4a288062f27b597996af2ee14b645dd02dd7bc7dec4dceedda775e58dd541e08a116c6c53815c0bd028192f7b626800a164736f6c6343000814000a",
  "devdoc": {
    "errors": {
      "AccessControlBadConfirmation()": [
        {
          "details": "The caller of a function is not the expected one. NOTE: Don't confuse with {AccessControlUnauthorizedAccount}."
        }
      ],
      "AccessControlUnauthorizedAccount(address,bytes32)": [
        {
          "details": "The `account` is missing a role."
        }
      ],
      "InvalidInitialization()": [
        {
          "details": "The contract is already initialized."
        }
      ],
      "NotInitializing()": [
        {
          "details": "The contract is not initializing."
        }
      ]
    },
    "events": {
      "Initialized(uint64)": {
        "details": "Triggered when the contract has been initialized or reinitialized."
      },
      "RoleAdminChanged(bytes32,bytes32,bytes32)": {
        "details": "Emitted when `newAdminRole` is set as ``role``'s admin role, replacing `previousAdminRole` `DEFAULT_ADMIN_ROLE` is the starting admin for all roles, despite {RoleAdminChanged} not being emitted signaling this."
      },
      "RoleGranted(bytes32,address,address)": {
        "details": "Emitted when `account` is granted `role`. `sender` is the account that originated the contract call, an admin role bearer except when using {AccessControl-_setupRole}."
      },
      "RoleRevoked(bytes32,address,address)": {
        "details": "Emitted when `account` is revoked `role`. `sender` is the account that originated the contract call:   - if using `revokeRole`, it is the admin role bearer   - if using `renounceRole`, it is the role bearer (i.e. `account`)"
      }
    },
    "kind": "dev",
    "methods": {
      "getRoleAdmin(bytes32)": {
        "details": "Returns the admin role that controls `role`. See {grantRole} and {revokeRole}. To change a role's admin, use {_setRoleAdmin}."
      },
      "grantRole(bytes32,address)": {
        "details": "Grants `role` to `account`. If `account` had not been already granted `role`, emits a {RoleGranted} event. Requirements: - the caller must have ``role``'s admin role. May emit a {RoleGranted} event."
      },
      "hasRole(bytes32,address)": {
        "details": "Returns `true` if `account` has been granted `role`."
      },
      "renounceRole(bytes32,address)": {
        "details": "Revokes `role` from the calling account. Roles are often managed via {grantRole} and {revokeRole}: this function's purpose is to provide a mechanism for accounts to lose their privileges if they are compromised (such as when a trusted device is misplaced). If the calling account had been revoked `role`, emits a {RoleRevoked} event. Requirements: - the caller must be `callerConfirmation`. May emit a {RoleRevoked} event."
      },
      "revokeRole(bytes32,address)": {
        "details": "Revokes `role` from `account`. If `account` had been granted `role`, emits a {RoleRevoked} event. Requirements: - the caller must have ``role``'s admin role. May emit a {RoleRevoked} event."
      },
      "supportsInterface(bytes4)": {
        "details": "See {IERC165-supportsInterface}."
      }
    },
    "version": 1
  },
  "userdoc": {
    "kind": "user",
    "methods": {},
    "version": 1
  },
  "storageLayout": {
    "storage": [
      {
        "astId": 2462,
        "contract": "contracts/oracle/ComplianceRegistryStub_L1.sol:ComplianceRegistryStub_L1",
        "label": "blacklist",
        "offset": 0,
        "slot": "0",
        "type": "t_struct(RegistrySlot)2459_storage"
      },
      {
        "astId": 2465,
        "contract": "contracts/oracle/ComplianceRegistryStub_L1.sol:ComplianceRegistryStub_L1",
        "label": "whitelist",
        "offset": 0,
        "slot": "2",
        "type": "t_struct(RegistrySlot)2459_storage"
      },
      {
        "astId": 2468,
        "contract": "contracts/oracle/ComplianceRegistryStub_L1.sol:ComplianceRegistryStub_L1",
        "label": "factory",
        "offset": 0,
        "slot": "4",
        "type": "t_contract(RegistryFactory)2975"
      }
    ],
    "types": {
      "t_contract(RegistryFactory)2975": {
        "encoding": "inplace",
        "label": "contract RegistryFactory",
        "numberOfBytes": "20"
      },
      "t_struct(RegistrySlot)2459_storage": {
        "encoding": "inplace",
        "label": "struct ComplianceRegistryStub_L1.RegistrySlot",
        "members": [
          {
            "astId": 2456,
            "contract": "contracts/oracle/ComplianceRegistryStub_L1.sol:ComplianceRegistryStub_L1",
            "label": "maxProposals",
            "offset": 0,
            "slot": "0",
            "type": "t_uint256"
          },
          {
            "astId": 2458,
            "contract": "contracts/oracle/ComplianceRegistryStub_L1.sol:ComplianceRegistryStub_L1",
            "label": "cumulative",
            "offset": 0,
            "slot": "1",
            "type": "t_uint256"
          }
        ],
        "numberOfBytes": "64"
      },
      "t_uint256": {
        "encoding": "inplace",
        "label": "uint256",
        "numberOfBytes": "32"
      }
    }
  }
}