{
  "address": "0xE28b0f5D18B9239Ca5eBa195C9A625b99Afb3955",
  "abi": [
    {
      "inputs": [],
      "name": "AccessControlBadConfirmation",
      "type": "error"
    },
    {
      "inputs": [
        {
          "internalType": "address",
          "name": "account",
          "type": "address"
        },
        {
          "internalType": "bytes32",
          "name": "neededRole",
          "type": "bytes32"
        }
      ],
      "name": "AccessControlUnauthorizedAccount",
      "type": "error"
    },
    {
      "inputs": [],
      "name": "ComplianceRegistryStub_L1__InvalidConfirmProposalStatus",
      "type": "error"
    },
    {
      "inputs": [],
      "name": "ComplianceRegistryStub_L1__OnlyAllowScripting",
      "type": "error"
    },
    {
      "inputs": [
        {
          "internalType": "address",
          "name": "",
          "type": "address"
        },
        {
          "internalType": "uint256",
          "name": "",
          "type": "uint256"
        },
        {
          "internalType": "address",
          "name": "",
          "type": "address"
        }
      ],
      "name": "ComplianceRegistryStub_L1__RegistryIndexNotCreated",
      "type": "error"
    },
    {
      "inputs": [
        {
          "internalType": "address",
          "name": "",
          "type": "address"
        },
        {
          "internalType": "uint256",
          "name": "",
          "type": "uint256"
        },
        {
          "internalType": "address",
          "name": "",
          "type": "address"
        },
        {
          "internalType": "bool",
          "name": "",
          "type": "bool"
        },
        {
          "internalType": "address",
          "name": "",
          "type": "address"
        }
      ],
      "name": "ComplianceRegistryStub_L1__RegistryNotCreated",
      "type": "error"
    },
    {
      "inputs": [],
      "name": "InvalidInitialization",
      "type": "error"
    },
    {
      "inputs": [],
      "name": "NotInitializing",
      "type": "error"
    },
    {
      "anonymous": false,
      "inputs": [
        {
          "indexed": false,
          "internalType": "uint64",
          "name": "version",
          "type": "uint64"
        }
      ],
      "name": "Initialized",
      "type": "event"
    },
    {
      "anonymous": false,
      "inputs": [
        {
          "indexed": true,
          "internalType": "bytes32",
          "name": "role",
          "type": "bytes32"
        },
        {
          "indexed": true,
          "internalType": "bytes32",
          "name": "previousAdminRole",
          "type": "bytes32"
        },
        {
          "indexed": true,
          "internalType": "bytes32",
          "name": "newAdminRole",
          "type": "bytes32"
        }
      ],
      "name": "RoleAdminChanged",
      "type": "event"
    },
    {
      "anonymous": false,
      "inputs": [
        {
          "indexed": true,
          "internalType": "bytes32",
          "name": "role",
          "type": "bytes32"
        },
        {
          "indexed": true,
          "internalType": "address",
          "name": "account",
          "type": "address"
        },
        {
          "indexed": true,
          "internalType": "address",
          "name": "sender",
          "type": "address"
        }
      ],
      "name": "RoleGranted",
      "type": "event"
    },
    {
      "anonymous": false,
      "inputs": [
        {
          "indexed": true,
          "internalType": "bytes32",
          "name": "role",
          "type": "bytes32"
        },
        {
          "indexed": true,
          "internalType": "address",
          "name": "account",
          "type": "address"
        },
        {
          "indexed": true,
          "internalType": "address",
          "name": "sender",
          "type": "address"
        }
      ],
      "name": "RoleRevoked",
      "type": "event"
    },
    {
      "inputs": [],
      "name": "ADMIN_ROLE",
      "outputs": [
        {
          "internalType": "bytes32",
          "name": "",
          "type": "bytes32"
        }
      ],
      "stateMutability": "view",
      "type": "function"
    },
    {
      "inputs": [],
      "name": "BASE_MODE",
      "outputs": [
        {
          "internalType": "uint256",
          "name": "",
          "type": "uint256"
        }
      ],
      "stateMutability": "view",
      "type": "function"
    },
    {
      "inputs": [],
      "name": "DEFAULT_ADMIN_ROLE",
      "outputs": [
        {
          "internalType": "bytes32",
          "name": "",
          "type": "bytes32"
        }
      ],
      "stateMutability": "view",
      "type": "function"
    },
    {
      "inputs": [],
      "name": "GUARDIAN_NODE",
      "outputs": [
        {
          "internalType": "bytes32",
          "name": "",
          "type": "bytes32"
        }
      ],
      "stateMutability": "view",
      "type": "function"
    },
    {
      "inputs": [],
      "name": "MANAGER_ROLE",
      "outputs": [
        {
          "internalType": "bytes32",
          "name": "",
          "type": "bytes32"
        }
      ],
      "stateMutability": "view",
      "type": "function"
    },
    {
      "inputs": [
        {
          "internalType": "uint256",
          "name": "pivot",
          "type": "uint256"
        },
        {
          "internalType": "address",
          "name": "caller",
          "type": "address"
        },
        {
          "internalType": "bool",
          "name": "useWhitelist",
          "type": "bool"
        },
        {
          "internalType": "address",
          "name": "account",
          "type": "address"
        }
      ],
      "name": "callback",
      "outputs": [],
      "stateMutability": "nonpayable",
      "type": "function"
    },
    {
      "inputs": [
        {
          "components": [
            {
              "internalType": "bytes32",
              "name": "id",
              "type": "bytes32"
            },
            {
              "internalType": "address",
              "name": "author",
              "type": "address"
            },
            {
              "internalType": "bytes[]",
              "name": "targets",
              "type": "bytes[]"
            },
            {
              "internalType": "bool",
              "name": "isWhitelist",
              "type": "bool"
            },
            {
              "internalType": "string",
              "name": "region",
              "type": "string"
            },
            {
              "internalType": "uint256",
              "name": "timestamp",
              "type": "uint256"
            },
            {
              "internalType": "enum ProposalCommon.ProposalStatus",
              "name": "status",
              "type": "uint8"
            },
            {
              "internalType": "bytes",
              "name": "signature",
              "type": "bytes"
            },
            {
              "internalType": "uint256",
              "name": "voters",
              "type": "uint256"
            },
            {
              "internalType": "uint256",
              "name": "activeNodes",
              "type": "uint256"
            }
          ],
          "internalType": "struct ProposalCommon.Proposal",
          "name": "proposal",
          "type": "tuple"
        }
      ],
      "name": "confirmProposal",
      "outputs": [],
      "stateMutability": "nonpayable",
      "type": "function"
    },
    {
      "inputs": [
        {
          "internalType": "bytes",
          "name": "data",
          "type": "bytes"
        }
      ],
      "name": "decodeAddressBytes",
      "outputs": [
        {
          "internalType": "address",
          "name": "",
          "type": "address"
        }
      ],
      "stateMutability": "pure",
      "type": "function"
    },
    {
      "inputs": [
        {
          "internalType": "bytes32",
          "name": "role",
          "type": "bytes32"
        }
      ],
      "name": "getRoleAdmin",
      "outputs": [
        {
          "internalType": "bytes32",
          "name": "",
          "type": "bytes32"
        }
      ],
      "stateMutability": "view",
      "type": "function"
    },
    {
      "inputs": [
        {
          "internalType": "bytes32",
          "name": "role",
          "type": "bytes32"
        },
        {
          "internalType": "address",
          "name": "account",
          "type": "address"
        }
      ],
      "name": "grantRole",
      "outputs": [],
      "stateMutability": "nonpayable",
      "type": "function"
    },
    {
      "inputs": [
        {
          "internalType": "bytes32",
          "name": "role",
          "type": "bytes32"
        },
        {
          "internalType": "address",
          "name": "account",
          "type": "address"
        }
      ],
      "name": "hasRole",
      "outputs": [
        {
          "internalType": "bool",
          "name": "",
          "type": "bool"
        }
      ],
      "stateMutability": "view",
      "type": "function"
    },
    {
      "inputs": [
        {
          "internalType": "address",
          "name": "_admin",
          "type": "address"
        },
        {
          "internalType": "address",
          "name": "_registryIndexFactory",
          "type": "address"
        },
        {
          "internalType": "address",
          "name": "_registryFactory",
          "type": "address"
        }
      ],
      "name": "initialize",
      "outputs": [],
      "stateMutability": "nonpayable",
      "type": "function"
    },
    {
      "inputs": [
        {
          "internalType": "address",
          "name": "account",
          "type": "address"
        }
      ],
      "name": "isBlacklist",
      "outputs": [
        {
          "internalType": "bool",
          "name": "",
          "type": "bool"
        }
      ],
      "stateMutability": "view",
      "type": "function"
    },
    {
      "inputs": [
        {
          "internalType": "address",
          "name": "account",
          "type": "address"
        }
      ],
      "name": "isWhitelist",
      "outputs": [
        {
          "internalType": "bool",
          "name": "",
          "type": "bool"
        }
      ],
      "stateMutability": "view",
      "type": "function"
    },
    {
      "inputs": [],
      "name": "registryFactory",
      "outputs": [
        {
          "internalType": "contract IRegistryFactory",
          "name": "",
          "type": "address"
        }
      ],
      "stateMutability": "view",
      "type": "function"
    },
    {
      "inputs": [],
      "name": "registryIndexFactory",
      "outputs": [
        {
          "internalType": "contract IRegistryIndexFactory",
          "name": "",
          "type": "address"
        }
      ],
      "stateMutability": "view",
      "type": "function"
    },
    {
      "inputs": [
        {
          "internalType": "bytes32",
          "name": "role",
          "type": "bytes32"
        },
        {
          "internalType": "address",
          "name": "callerConfirmation",
          "type": "address"
        }
      ],
      "name": "renounceRole",
      "outputs": [],
      "stateMutability": "nonpayable",
      "type": "function"
    },
    {
      "inputs": [
        {
          "internalType": "bytes32",
          "name": "role",
          "type": "bytes32"
        },
        {
          "internalType": "address",
          "name": "account",
          "type": "address"
        }
      ],
      "name": "revokeRole",
      "outputs": [],
      "stateMutability": "nonpayable",
      "type": "function"
    },
    {
      "inputs": [
        {
          "internalType": "bytes4",
          "name": "interfaceId",
          "type": "bytes4"
        }
      ],
      "name": "supportsInterface",
      "outputs": [
        {
          "internalType": "bool",
          "name": "",
          "type": "bool"
        }
      ],
      "stateMutability": "view",
      "type": "function"
    }
  ],
  "transactionHash": "0xcc4b7d366822561d05d36d57d93e7794ddd86783380390ae926af97fe7cfab04",
  "args": [],
  "numDeployments": 5,
  "solcInputHash": "b630495c85caff8894da16be22a908c8",
  "bytecode": "0x608060405234801561001057600080fd5b50611565806100206000396000f3fe608060405234801561001057600080fd5b50600436106101215760003560e01c806391d14854116100ad578063c0c53b8b11610071578063c0c53b8b1461025d578063c683630d14610270578063d547741f14610283578063ec87621c14610296578063f86c5f89146102bd57600080fd5b806391d14854146101fc5780639af0861d1461020f578063a217fddf1461022f578063a6408bcd14610237578063b0385f961461024a57600080fd5b80632f2ff15d116100f45780632f2ff15d14610197578063333e99db146101ac57806336568abe146101bf578063571c81e2146101d257806375b238fc146101e757600080fd5b806301ffc9a71461012657806302d3c98e1461014f578063101d896314610164578063248a9ca314610184575b600080fd5b610139610134366004610ca1565b6102d0565b6040516101469190610cd4565b60405180910390f35b610157606481565b6040516101469190610ce8565b610177610172366004610def565b610307565b6040516101469190610e43565b610157610192366004610e62565b61033b565b6101aa6101a5366004610e97565b61035d565b005b6101396101ba366004610ed4565b61037f565b6101aa6101cd366004610e97565b610499565b61015760008051602061151983398151915281565b6101576000805160206114f983398151915281565b61013961020a366004610e97565b6104d1565b600154610222906001600160a01b031681565b6040516101469190610f14565b610157600081565b6101aa610245366004610f35565b610509565b6101aa6102583660046111ad565b610653565b6101aa61026b3660046111e7565b610829565b61013961027e366004610ed4565b6109de565b6101aa610291366004610e97565b610aa3565b6101577f4106b53b00ba007ca00c66fda2dd068c64fae6d9aeb99cddc4de3de6cbfa225981565b600054610222906001600160a01b031681565b60006001600160e01b03198216637965db0b60e01b148061030157506301ffc9a760e01b6001600160e01b03198316145b92915050565b6000808280602001905181019061031e91906112b3565b90508080602001905181019061033491906112f8565b9392505050565b6000908152600080516020611539833981519152602052604090206001015490565b6103668261033b565b61036f81610abf565b6103798383610acc565b50505050565b60008061039660646001600160a01b03851661132f565b600154604051634a83e9cd60e11b815291925060009182916001600160a01b031690639507d39a906103cc908690600401610ce8565b6040805180830381865afa1580156103e8573d6000803e3d6000fd5b505050506040513d601f19601f8201168201806040525081019061040c919061134e565b915091508061048e5760405163bce32fa560e01b81526001600160a01b0383169063bce32fa590610444908890600090600401611381565b602060405180830381865afa158015610461573d6000803e3d6000fd5b505050506040513d601f19601f82011682018060405250810190610485919061139c565b95945050505050565b506000949350505050565b6001600160a01b03811633146104c25760405163334bd91960e11b815260040160405180910390fd5b6104cc8282610b71565b505050565b6000918252600080516020611539833981519152602090815260408084206001600160a01b0393909316845291905290205460ff1690565b6002546001600160a01b038481169116146105375760405163452f2ad160e01b815260040160405180910390fd5b6000805460405163310090cf60e01b815282916001600160a01b03169063310090cf9061056c908990899089906004016113bd565b6040805180830381865afa158015610588573d6000803e3d6000fd5b505050506040513d601f19601f820116820180604052508101906105ac919061134e565b9150915080156105ed5760005460405163d213a54d60e01b81526105e4916001600160a01b03169088908890889087906004016113e5565b60405180910390fd5b604051639e39db7360e01b81526001600160a01b03831690639e39db7390610619908690600401610e43565b600060405180830381600087803b15801561063357600080fd5b505af1158015610647573d6000803e3d6000fd5b50505050505050505050565b60008051602061151983398151915261066b81610abf565b60028260c00151600381111561068357610683611431565b146106a15760405163236ca85f60e11b815260040160405180910390fd5b60005b8260400151518110156104cc5760006106d9846040015183815181106106cc576106cc611447565b6020026020010151610307565b905060006106f160646001600160a01b03841661132f565b600154604051634a83e9cd60e11b815291925060009182916001600160a01b031690639507d39a90610727908690600401610ce8565b6040805180830381865afa158015610743573d6000803e3d6000fd5b505050506040513d601f19601f82011682018060405250810190610767919061134e565b91509150801561079b576001546040516339282b9160e11b81526105e4916001600160a01b0316908590859060040161145d565b600280546001600160a01b0319166001600160a01b0384169081179091556060880151604051634a80e27360e01b8152634a80e273916107e091889190600401611381565b600060405180830381600087803b1580156107fa57600080fd5b505af115801561080e573d6000803e3d6000fd5b505050505050505080806108219061149b565b9150506106a4565b7ff0c57e16840df040f15088dc2f81fe391c3923bec73e23a9662efc9c229c6a008054600160401b810460ff1615906001600160401b031660008115801561086e5750825b90506000826001600160401b0316600114801561088a5750303b155b905081158015610898575080155b156108b65760405163f92ee8a960e01b815260040160405180910390fd5b845467ffffffffffffffff1916600117855583156108e057845460ff60401b1916600160401b1785555b6108f86000805160206114f983398151915289610acc565b5061091160008051602061151983398151915289610acc565b506109386000805160206115198339815191526000805160206114f9833981519152610bed565b600180546001600160a01b03808a166001600160a01b03199283161790925560008054928916929091169190911790556109806000805160206114f9833981519152896104d1565b61098957600080fd5b83156109d457845460ff60401b191685556040517fc7f505b2f371ae2175ee4913f4499e1f2633a7b5936321eed1cdaeb6115181d2906109cb906001906114cf565b60405180910390a15b5050505050505050565b6000806109f560646001600160a01b03851661132f565b600154604051634a83e9cd60e11b815291925060009182916001600160a01b031690639507d39a90610a2b908690600401610ce8565b6040805180830381865afa158015610a47573d6000803e3d6000fd5b505050506040513d601f19601f82011682018060405250810190610a6b919061134e565b915091508061048e5760405163bce32fa560e01b81526001600160a01b0383169063bce32fa590610444908890600190600401611381565b610aac8261033b565b610ab581610abf565b6103798383610b71565b610ac98133610c50565b50565b6000600080516020611539833981519152610ae784846104d1565b610b67576000848152602082815260408083206001600160a01b03871684529091529020805460ff19166001179055610b1d3390565b6001600160a01b0316836001600160a01b0316857f2f8788117e7eff1d82e926ec794901d17c78024a50270940304540a733656f0d60405160405180910390a46001915050610301565b6000915050610301565b6000600080516020611539833981519152610b8c84846104d1565b15610b67576000848152602082815260408083206001600160a01b0387168085529252808320805460ff1916905551339287917ff6391f5c32d9c69d2a47ea670b442974b53935d1edc7fd64eb21e047a839171b9190a46001915050610301565b6000805160206115398339815191526000610c078461033b565b600085815260208490526040808220600101869055519192508491839187917fbd79b86ffe0ab8e8776151514217cd7cacd52c909f66475c3af44e129f0b00ff9190a450505050565b610c5a82826104d1565b610c7b57808260405163e2517d3f60e01b81526004016105e49291906114dd565b5050565b6001600160e01b031981165b8114610ac957600080fd5b803561030181610c7f565b600060208284031215610cb657610cb6600080fd5b6000610cc28484610c96565b949350505050565b8015155b82525050565b602081016103018284610cca565b80610cce565b602081016103018284610ce2565b634e487b7160e01b600052604160045260246000fd5b601f19601f83011681018181106001600160401b0382111715610d3157610d31610cf6565b6040525050565b6000610d4360405190565b9050610d4f8282610d0c565b919050565b60006001600160401b03821115610d6d57610d6d610cf6565b601f19601f83011660200192915050565b82818337506000910152565b6000610d9d610d9884610d54565b610d38565b905082815260208101848484011115610db857610db8600080fd5b610dc3848285610d7e565b509392505050565b600082601f830112610ddf57610ddf600080fd5b8135610cc2848260208601610d8a565b600060208284031215610e0457610e04600080fd5b81356001600160401b03811115610e1d57610e1d600080fd5b610cc284828501610dcb565b60006001600160a01b038216610301565b610cce81610e29565b602081016103018284610e3a565b80610c8b565b803561030181610e51565b600060208284031215610e7757610e77600080fd5b6000610cc28484610e57565b610c8b81610e29565b803561030181610e83565b60008060408385031215610ead57610ead600080fd5b6000610eb98585610e57565b9250506020610eca85828601610e8c565b9150509250929050565b600060208284031215610ee957610ee9600080fd5b6000610cc28484610e8c565b600061030182610e29565b600061030182610ef5565b610cce81610f00565b602081016103018284610f0b565b801515610c8b565b803561030181610f22565b60008060008060808587031215610f4e57610f4e600080fd5b6000610f5a8787610e57565b9450506020610f6b87828801610e8c565b9350506040610f7c87828801610f2a565b9250506060610f8d87828801610e8c565b91505092959194509250565b60006001600160401b03821115610fb257610fb2610cf6565b5060209081020190565b6000610fca610d9884610f99565b83815290506020808201908402830185811115610fe957610fe9600080fd5b835b818110156110295780356001600160401b0381111561100c5761100c600080fd5b8086016110198982610dcb565b8552505060209283019201610feb565b5050509392505050565b600082601f83011261104757611047600080fd5b8135610cc2848260208601610fbc565b60048110610ac957600080fd5b803561030181611057565b6000610140828403121561108557611085600080fd5b611090610140610d38565b9050600061109e8484610e57565b82525060206110af84848301610e8c565b60208301525060408201356001600160401b038111156110d1576110d1600080fd5b6110dd84828501611033565b60408301525060606110f184828501610f2a565b60608301525060808201356001600160401b0381111561111357611113600080fd5b61111f84828501610dcb565b60808301525060a061113384828501610e57565b60a08301525060c061114784828501611064565b60c08301525060e08201356001600160401b0381111561116957611169600080fd5b61117584828501610dcb565b60e08301525061010061118a84828501610e57565b610100830152506101206111a084828501610e57565b6101208301525092915050565b6000602082840312156111c2576111c2600080fd5b81356001600160401b038111156111db576111db600080fd5b610cc28482850161106f565b6000806000606084860312156111ff576111ff600080fd5b600061120b8686610e8c565b935050602061121c86828701610e8c565b925050604061122d86828701610e8c565b9150509250925092565b60005b8381101561125257818101518382015260200161123a565b50506000910152565b6000611269610d9884610d54565b90508281526020810184848401111561128457611284600080fd5b610dc3848285611237565b600082601f8301126112a3576112a3600080fd5b8151610cc284826020860161125b565b6000602082840312156112c8576112c8600080fd5b81516001600160401b038111156112e1576112e1600080fd5b610cc28482850161128f565b805161030181610e83565b60006020828403121561130d5761130d600080fd5b6000610cc284846112ed565b634e487b7160e01b600052601260045260246000fd5b60008261133e5761133e611319565b500690565b805161030181610f22565b6000806040838503121561136457611364600080fd5b600061137085856112ed565b9250506020610eca85828601611343565b6040810161138f8285610e3a565b6103346020830184610cca565b6000602082840312156113b1576113b1600080fd5b6000610cc28484611343565b606081016113cb8286610ce2565b6113d86020830185610e3a565b610cc26040830184610cca565b60a081016113f38288610e3a565b6114006020830187610ce2565b61140d6040830186610e3a565b61141a6060830185610cca565b6114276080830184610e3a565b9695505050505050565b634e487b7160e01b600052602160045260246000fd5b634e487b7160e01b600052603260045260246000fd5b6060810161146b8286610e3a565b6114786020830185610ce2565b610cc26040830184610e3a565b634e487b7160e01b600052601160045260246000fd5b600060001982036114ae576114ae611485565b5060010190565b60006001600160401b038216610301565b610cce816114b5565b6020810161030182846114c6565b604081016114eb8285610e3a565b6103346020830184610ce256fe934c13b4b46cd019a01bb75d649e569483f77416ae3a2eb616d44dd406e67ed4e76d95910c74dbdb8a76b5bb9fe1033fb4a288062f27b597996af2ee14b645dd02dd7bc7dec4dceedda775e58dd541e08a116c6c53815c0bd028192f7b626800a164736f6c6343000814000a",
  "devdoc": {
    "errors": {
      "AccessControlBadConfirmation()": [
        {
          "details": "The caller of a function is not the expected one. NOTE: Don't confuse with {AccessControlUnauthorizedAccount}."
        }
      ],
      "AccessControlUnauthorizedAccount(address,bytes32)": [
        {
          "details": "The `account` is missing a role."
        }
      ],
      "InvalidInitialization()": [
        {
          "details": "The contract is already initialized."
        }
      ],
      "NotInitializing()": [
        {
          "details": "The contract is not initializing."
        }
      ]
    },
    "events": {
      "Initialized(uint64)": {
        "details": "Triggered when the contract has been initialized or reinitialized."
      },
      "RoleAdminChanged(bytes32,bytes32,bytes32)": {
        "details": "Emitted when `newAdminRole` is set as ``role``'s admin role, replacing `previousAdminRole` `DEFAULT_ADMIN_ROLE` is the starting admin for all roles, despite {RoleAdminChanged} not being emitted signaling this."
      },
      "RoleGranted(bytes32,address,address)": {
        "details": "Emitted when `account` is granted `role`. `sender` is the account that originated the contract call, an admin role bearer except when using {AccessControl-_setupRole}."
      },
      "RoleRevoked(bytes32,address,address)": {
        "details": "Emitted when `account` is revoked `role`. `sender` is the account that originated the contract call:   - if using `revokeRole`, it is the admin role bearer   - if using `renounceRole`, it is the role bearer (i.e. `account`)"
      }
    },
    "kind": "dev",
    "methods": {
      "getRoleAdmin(bytes32)": {
        "details": "Returns the admin role that controls `role`. See {grantRole} and {revokeRole}. To change a role's admin, use {_setRoleAdmin}."
      },
      "grantRole(bytes32,address)": {
        "details": "Grants `role` to `account`. If `account` had not been already granted `role`, emits a {RoleGranted} event. Requirements: - the caller must have ``role``'s admin role. May emit a {RoleGranted} event."
      },
      "hasRole(bytes32,address)": {
        "details": "Returns `true` if `account` has been granted `role`."
      },
      "renounceRole(bytes32,address)": {
        "details": "Revokes `role` from the calling account. Roles are often managed via {grantRole} and {revokeRole}: this function's purpose is to provide a mechanism for accounts to lose their privileges if they are compromised (such as when a trusted device is misplaced). If the calling account had been revoked `role`, emits a {RoleRevoked} event. Requirements: - the caller must be `callerConfirmation`. May emit a {RoleRevoked} event."
      },
      "revokeRole(bytes32,address)": {
        "details": "Revokes `role` from `account`. If `account` had been granted `role`, emits a {RoleRevoked} event. Requirements: - the caller must have ``role``'s admin role. May emit a {RoleRevoked} event."
      },
      "supportsInterface(bytes4)": {
        "details": "See {IERC165-supportsInterface}."
      }
    },
    "version": 1
  },
  "userdoc": {
    "kind": "user",
    "methods": {},
    "version": 1
  },
  "storageLayout": {
    "storage": [
      {
        "astId": 950,
        "contract": "contracts/oracle/ComplianceRegistryStub_L1.sol:ComplianceRegistryStub_L1",
        "label": "registryFactory",
        "offset": 0,
        "slot": "0",
        "type": "t_contract(IRegistryFactory)908"
      },
      {
        "astId": 953,
        "contract": "contracts/oracle/ComplianceRegistryStub_L1.sol:ComplianceRegistryStub_L1",
        "label": "registryIndexFactory",
        "offset": 0,
        "slot": "1",
        "type": "t_contract(IRegistryIndexFactory)927"
      },
      {
        "astId": 955,
        "contract": "contracts/oracle/ComplianceRegistryStub_L1.sol:ComplianceRegistryStub_L1",
        "label": "scripting",
        "offset": 0,
        "slot": "2",
        "type": "t_address"
      }
    ],
    "types": {
      "t_address": {
        "encoding": "inplace",
        "label": "address",
        "numberOfBytes": "20"
      },
      "t_contract(IRegistryFactory)908": {
        "encoding": "inplace",
        "label": "contract IRegistryFactory",
        "numberOfBytes": "20"
      },
      "t_contract(IRegistryIndexFactory)927": {
        "encoding": "inplace",
        "label": "contract IRegistryIndexFactory",
        "numberOfBytes": "20"
      }
    }
  }
}