{
  "address": "0x324EcB6AbF6CDfA20F5b931B82d7d1F3F03e1Eec",
  "abi": [
    {
      "inputs": [],
      "stateMutability": "nonpayable",
      "type": "constructor"
    },
    {
      "inputs": [],
      "name": "ComplianceMerkleTreeStub__InvalidVersion",
      "type": "error"
    },
    {
      "inputs": [],
      "name": "ComplianceMerkleTreeStub__RootAlreadyExists",
      "type": "error"
    },
    {
      "inputs": [],
      "name": "ComplianceMerkleTreeStub__RootNotFound",
      "type": "error"
    },
    {
      "inputs": [],
      "name": "EnforcedPause",
      "type": "error"
    },
    {
      "inputs": [],
      "name": "ExpectedPause",
      "type": "error"
    },
    {
      "inputs": [
        {
          "internalType": "address",
          "name": "owner",
          "type": "address"
        }
      ],
      "name": "OwnableInvalidOwner",
      "type": "error"
    },
    {
      "inputs": [
        {
          "internalType": "address",
          "name": "account",
          "type": "address"
        }
      ],
      "name": "OwnableUnauthorizedAccount",
      "type": "error"
    },
    {
      "anonymous": false,
      "inputs": [
        {
          "indexed": true,
          "internalType": "address",
          "name": "previousOwner",
          "type": "address"
        },
        {
          "indexed": true,
          "internalType": "address",
          "name": "newOwner",
          "type": "address"
        }
      ],
      "name": "OwnershipTransferred",
      "type": "event"
    },
    {
      "anonymous": false,
      "inputs": [
        {
          "indexed": false,
          "internalType": "address",
          "name": "account",
          "type": "address"
        }
      ],
      "name": "Paused",
      "type": "event"
    },
    {
      "anonymous": false,
      "inputs": [
        {
          "indexed": false,
          "internalType": "address",
          "name": "account",
          "type": "address"
        }
      ],
      "name": "Unpaused",
      "type": "event"
    },
    {
      "inputs": [
        {
          "internalType": "bytes32[]",
          "name": "proof",
          "type": "bytes32[]"
        },
        {
          "internalType": "bytes",
          "name": "encodedData",
          "type": "bytes"
        }
      ],
      "name": "abiEncode",
      "outputs": [
        {
          "internalType": "bytes",
          "name": "",
          "type": "bytes"
        }
      ],
      "stateMutability": "pure",
      "type": "function"
    },
    {
      "inputs": [
        {
          "internalType": "bytes",
          "name": "encodedData",
          "type": "bytes"
        }
      ],
      "name": "getAccount",
      "outputs": [
        {
          "internalType": "address",
          "name": "",
          "type": "address"
        }
      ],
      "stateMutability": "pure",
      "type": "function"
    },
    {
      "inputs": [
        {
          "internalType": "bytes",
          "name": "encodedData",
          "type": "bytes"
        },
        {
          "internalType": "bool",
          "name": "withRoot",
          "type": "bool"
        }
      ],
      "name": "getData",
      "outputs": [
        {
          "internalType": "address",
          "name": "account",
          "type": "address"
        },
        {
          "internalType": "uint256",
          "name": "label",
          "type": "uint256"
        },
        {
          "internalType": "uint256",
          "name": "score",
          "type": "uint256"
        },
        {
          "internalType": "uint256",
          "name": "version",
          "type": "uint256"
        }
      ],
      "stateMutability": "pure",
      "type": "function"
    },
    {
      "inputs": [
        {
          "internalType": "bytes",
          "name": "encodedData",
          "type": "bytes"
        }
      ],
      "name": "getLabel",
      "outputs": [
        {
          "internalType": "uint256",
          "name": "",
          "type": "uint256"
        }
      ],
      "stateMutability": "pure",
      "type": "function"
    },
    {
      "inputs": [
        {
          "internalType": "bytes",
          "name": "encodedData",
          "type": "bytes"
        }
      ],
      "name": "getRoot",
      "outputs": [
        {
          "internalType": "bytes32",
          "name": "",
          "type": "bytes32"
        },
        {
          "internalType": "bytes",
          "name": "",
          "type": "bytes"
        }
      ],
      "stateMutability": "pure",
      "type": "function"
    },
    {
      "inputs": [
        {
          "internalType": "bytes",
          "name": "encodedData",
          "type": "bytes"
        }
      ],
      "name": "getScore",
      "outputs": [
        {
          "internalType": "uint256",
          "name": "",
          "type": "uint256"
        }
      ],
      "stateMutability": "pure",
      "type": "function"
    },
    {
      "inputs": [
        {
          "internalType": "bytes",
          "name": "encodedData",
          "type": "bytes"
        }
      ],
      "name": "getVersion",
      "outputs": [
        {
          "internalType": "uint256",
          "name": "",
          "type": "uint256"
        }
      ],
      "stateMutability": "pure",
      "type": "function"
    },
    {
      "inputs": [],
      "name": "owner",
      "outputs": [
        {
          "internalType": "address",
          "name": "",
          "type": "address"
        }
      ],
      "stateMutability": "view",
      "type": "function"
    },
    {
      "inputs": [],
      "name": "paused",
      "outputs": [
        {
          "internalType": "bool",
          "name": "",
          "type": "bool"
        }
      ],
      "stateMutability": "view",
      "type": "function"
    },
    {
      "inputs": [],
      "name": "renounceOwnership",
      "outputs": [],
      "stateMutability": "nonpayable",
      "type": "function"
    },
    {
      "inputs": [
        {
          "internalType": "address",
          "name": "newOwner",
          "type": "address"
        }
      ],
      "name": "transferOwnership",
      "outputs": [],
      "stateMutability": "nonpayable",
      "type": "function"
    },
    {
      "inputs": [
        {
          "internalType": "bytes32",
          "name": "_root",
          "type": "bytes32"
        },
        {
          "internalType": "uint256",
          "name": "_version",
          "type": "uint256"
        },
        {
          "internalType": "bool",
          "name": "isAdd",
          "type": "bool"
        }
      ],
      "name": "updateVersionedMerkleTree",
      "outputs": [],
      "stateMutability": "nonpayable",
      "type": "function"
    },
    {
      "inputs": [
        {
          "internalType": "bytes32[]",
          "name": "proof",
          "type": "bytes32[]"
        },
        {
          "internalType": "bytes",
          "name": "encodedData",
          "type": "bytes"
        }
      ],
      "name": "verify",
      "outputs": [
        {
          "internalType": "bool",
          "name": "",
          "type": "bool"
        }
      ],
      "stateMutability": "view",
      "type": "function"
    },
    {
      "inputs": [
        {
          "internalType": "bytes",
          "name": "data",
          "type": "bytes"
        }
      ],
      "name": "verifyHook",
      "outputs": [],
      "stateMutability": "view",
      "type": "function"
    },
    {
      "inputs": [
        {
          "internalType": "bytes32",
          "name": "",
          "type": "bytes32"
        }
      ],
      "name": "versionedMerkleTrees",
      "outputs": [
        {
          "internalType": "uint256",
          "name": "",
          "type": "uint256"
        }
      ],
      "stateMutability": "view",
      "type": "function"
    }
  ],
  "transactionHash": "0x205010551a14a92a6175daa37f958c570fdccfab74619bcab1d21ac51c5a4e3f",
  "args": [],
  "numDeployments": 2,
  "solcInputHash": "294c16303ac6021d69467e743c247926",
  "bytecode": "0x608060405234801561001057600080fd5b5033808061003d576000604051631e4fbdf760e01b815260040161003491906100cc565b60405180910390fd5b6100468161005a565b50506000805460ff60a01b191690556100da565b600080546001600160a01b038381166001600160a01b0319831681178455604051919092169283917f8be0079c531659141344cd1fd0a4f28419497f9722a3daafe3b4186f6b6457e09190a35050565b60006001600160a01b0382165b92915050565b6100c6816100aa565b82525050565b602081016100b782846100bd565b610e76806100e96000396000f3fe608060405234801561001057600080fd5b50600436106100f55760003560e01c806384f8591d11610097578063b906426711610066578063b906426714610209578063d7a0972814610229578063e83218b714610249578063f2fde38b1461025c57600080fd5b806384f8591d146101af5780638da5cb5b146101c25780639dc7e412146101d3578063a2599c5e146101f657600080fd5b806360f0f00f116100d357806360f0f00f1461015f578063630457171461017f578063715018a61461019257806374ae5fe61461019c57600080fd5b80631de7ce49146100fa5780631fb6973b146101235780635c975abb14610144575b600080fd5b61010d6101083660046107cd565b61026f565b60405161011a9190610810565b60405180910390f35b6101366101313660046107cd565b610290565b60405161011a929190610874565b600054600160a01b900460ff165b60405161011a919061089c565b61017261016d3660046107cd565b6102b7565b60405161011a91906108c4565b61010d61018d3660046107cd565b6102d9565b61019a6102fb565b005b6101526101aa36600461098d565b61030f565b61010d6101bd3660046107cd565b6103cf565b6000546001600160a01b0316610172565b6101e66101e1366004610a12565b6103f0565b60405161011a9493929190610a5f565b61019a6102043660046107cd565b610457565b61010d610217366004610a9d565b60016020526000908152604090205481565b61023c61023736600461098d565b6104a6565b60405161011a9190610abe565b61019a610257366004610acf565b6104d2565b61019a61026a366004610b33565b610582565b600080828060200190518101906102869190610b6a565b5095945050505050565b60006060600080848060200190518101906102ab9190610c26565b90969095509350505050565b600080828060200190518101906102ce9190610b6a565b509195945050505050565b600080828060200190518101906102f09190610b6a565b509095945050505050565b6103036105c0565b61030d60006105ed565b565b600080600061031d84610290565b60008281526001602052604081205492945090925081900361035257604051634f9f4f2560e01b815260040160405180910390fd5b600061035f8360006103f0565b93505050508082146103845760405163858a1fb760e01b815260040160405180910390fd5b6000838051906020012060405160200161039e9190610c7a565b6040516020818303038152906040528051906020012090506103c188868361063d565b955050505050505b92915050565b600080828060200190518101906103e69190610b6a565b9695505050505050565b600080600080841561042f57600061040787610290565b9150508080602001905181019061041e9190610b6a565b9297509095509350915061044e9050565b858060200190518101906104439190610b6a565b929650909450925090505b92959194509250565b6000808280602001905181019061046e9190610d04565b9150915061047c828261030f565b6104a15760405162461bcd60e51b815260040161049890610d40565b60405180910390fd5b505050565b606082826040516020016104bb929190610dfe565b604051602081830303815290604052905092915050565b6104da6105c0565b816000036104fb5760405163858a1fb760e01b815260040160405180910390fd5b8015610541576000838152600160205260409020541561052e57604051634642aa7160e11b815260040160405180910390fd5b5060009182526001602052604090912055565b600083815260016020526040812054900361056f57604051634f9f4f2560e01b815260040160405180910390fd5b5050600090815260016020526040812055565b61058a6105c0565b6001600160a01b0381166105b4576000604051631e4fbdf760e01b815260040161049891906108c4565b6105bd816105ed565b50565b6000546001600160a01b0316331461030d573360405163118cdaa760e01b815260040161049891906108c4565b600080546001600160a01b038381166001600160a01b0319831681178455604051919092169283917f8be0079c531659141344cd1fd0a4f28419497f9722a3daafe3b4186f6b6457e09190a35050565b60008261064a8584610653565b14949350505050565b600081815b8451811015610698576106848286838151811061067757610677610e23565b60200260200101516106a0565b91508061069081610e4f565b915050610658565b509392505050565b60008183106106bc5760008281526020849052604090206106cb565b60008381526020839052604090205b9392505050565b634e487b7160e01b600052604160045260246000fd5b601f19601f830116810181811067ffffffffffffffff8211171561070e5761070e6106d2565b6040525050565b600061072060405190565b905061072c82826106e8565b919050565b600067ffffffffffffffff82111561074b5761074b6106d2565b601f19601f83011660200192915050565b82818337506000910152565b600061077b61077684610731565b610715565b90508281526020810184848401111561079657610796600080fd5b61069884828561075c565b600082601f8301126107b5576107b5600080fd5b81356107c5848260208601610768565b949350505050565b6000602082840312156107e2576107e2600080fd5b813567ffffffffffffffff8111156107fc576107fc600080fd5b6107c5848285016107a1565b805b82525050565b602081016103c98284610808565b60005b83811015610839578181015183820152602001610821565b50506000910152565b600061084c825190565b80845260208401935061086381856020860161081e565b601f01601f19169290920192915050565b604081016108828285610808565b81810360208301526107c58184610842565b80151561080a565b602081016103c98284610894565b60006001600160a01b0382166103c9565b61080a816108aa565b602081016103c982846108bb565b600067ffffffffffffffff8211156108ec576108ec6106d2565b5060209081020190565b805b81146105bd57600080fd5b80356103c9816108f6565b600061091c610776846108d2565b8381529050602080820190840283018581111561093b5761093b600080fd5b835b8181101561095f57806109508882610903565b8452506020928301920161093d565b5050509392505050565b600082601f83011261097d5761097d600080fd5b81356107c584826020860161090e565b600080604083850312156109a3576109a3600080fd5b823567ffffffffffffffff8111156109bd576109bd600080fd5b6109c985828601610969565b925050602083013567ffffffffffffffff8111156109e9576109e9600080fd5b6109f5858286016107a1565b9150509250929050565b8015156108f8565b80356103c9816109ff565b60008060408385031215610a2857610a28600080fd5b823567ffffffffffffffff811115610a4257610a42600080fd5b610a4e858286016107a1565b92505060206109f585828601610a07565b60808101610a6d82876108bb565b610a7a6020830186610808565b610a876040830185610808565b610a946060830184610808565b95945050505050565b600060208284031215610ab257610ab2600080fd5b60006107c58484610903565b602080825281016106cb8184610842565b600080600060608486031215610ae757610ae7600080fd5b6000610af38686610903565b9350506020610b0486828701610903565b9250506040610b1586828701610a07565b9150509250925092565b6108f8816108aa565b80356103c981610b1f565b600060208284031215610b4857610b48600080fd5b60006107c58484610b28565b80516103c981610b1f565b80516103c9816108f6565b60008060008060808587031215610b8357610b83600080fd5b6000610b8f8787610b54565b9450506020610ba087828801610b5f565b9350506040610bb187828801610b5f565b9250506060610bc287828801610b5f565b91505092959194509250565b6000610bdc61077684610731565b905082815260208101848484011115610bf757610bf7600080fd5b61069884828561081e565b600082601f830112610c1657610c16600080fd5b81516107c5848260208601610bce565b60008060408385031215610c3c57610c3c600080fd5b6000610c488585610b5f565b925050602083015167ffffffffffffffff811115610c6857610c68600080fd5b6109f585828601610c02565b8061080a565b6000610c868284610c74565b50602001919050565b6000610c9d610776846108d2565b83815290506020808201908402830185811115610cbc57610cbc600080fd5b835b8181101561095f5780610cd18882610b5f565b84525060209283019201610cbe565b600082601f830112610cf457610cf4600080fd5b81516107c5848260208601610c8f565b60008060408385031215610d1a57610d1a600080fd5b825167ffffffffffffffff811115610d3457610d34600080fd5b610c4885828601610ce0565b602080825281016103c981603881527f4d6f636b436f6d706c69616e636556657273696f6e65644d65726b6c6554726560208201527f6553747562486f6f6b3a20496e76616c69642070726f6f660000000000000000604082015260600190565b6000610dad8383610808565b505060200190565b6000610dbf825190565b80845260209384019383018060005b83811015610df3578151610de28882610da1565b975060208301925050600101610dce565b509495945050505050565b60408082528101610e0f8185610db5565b905081810360208301526107c58184610842565b634e487b7160e01b600052603260045260246000fd5b634e487b7160e01b600052601160045260246000fd5b60006000198203610e6257610e62610e39565b506001019056fea164736f6c6343000814000a",
  "devdoc": {
    "errors": {
      "EnforcedPause()": [
        {
          "details": "The operation failed because the contract is paused."
        }
      ],
      "ExpectedPause()": [
        {
          "details": "The operation failed because the contract is not paused."
        }
      ],
      "OwnableInvalidOwner(address)": [
        {
          "details": "The owner is not a valid owner account. (eg. `address(0)`)"
        }
      ],
      "OwnableUnauthorizedAccount(address)": [
        {
          "details": "The caller account is not authorized to perform an operation."
        }
      ]
    },
    "events": {
      "Paused(address)": {
        "details": "Emitted when the pause is triggered by `account`."
      },
      "Unpaused(address)": {
        "details": "Emitted when the pause is lifted by `account`."
      }
    },
    "kind": "dev",
    "methods": {
      "owner()": {
        "details": "Returns the address of the current owner."
      },
      "paused()": {
        "details": "Returns true if the contract is paused, and false otherwise."
      },
      "renounceOwnership()": {
        "details": "Leaves the contract without owner. It will not be possible to call `onlyOwner` functions. Can only be called by the current owner. NOTE: Renouncing ownership will leave the contract without an owner, thereby disabling any functionality that is only available to the owner."
      },
      "transferOwnership(address)": {
        "details": "Transfers ownership of the contract to a new account (`newOwner`). Can only be called by the current owner."
      }
    },
    "version": 1
  },
  "userdoc": {
    "kind": "user",
    "methods": {},
    "version": 1
  },
  "storageLayout": {
    "storage": [
      {
        "astId": 8,
        "contract": "contracts/tests/MockComplianceVersionedMerkleTreeStubHook.sol:MockComplianceVersionedMerkleTreeStubHook",
        "label": "_owner",
        "offset": 0,
        "slot": "0",
        "type": "t_address"
      },
      {
        "astId": 186,
        "contract": "contracts/tests/MockComplianceVersionedMerkleTreeStubHook.sol:MockComplianceVersionedMerkleTreeStubHook",
        "label": "_paused",
        "offset": 20,
        "slot": "0",
        "type": "t_bool"
      },
      {
        "astId": 942,
        "contract": "contracts/tests/MockComplianceVersionedMerkleTreeStubHook.sol:MockComplianceVersionedMerkleTreeStubHook",
        "label": "versionedMerkleTrees",
        "offset": 0,
        "slot": "1",
        "type": "t_mapping(t_bytes32,t_uint256)"
      }
    ],
    "types": {
      "t_address": {
        "encoding": "inplace",
        "label": "address",
        "numberOfBytes": "20"
      },
      "t_bool": {
        "encoding": "inplace",
        "label": "bool",
        "numberOfBytes": "1"
      },
      "t_bytes32": {
        "encoding": "inplace",
        "label": "bytes32",
        "numberOfBytes": "32"
      },
      "t_mapping(t_bytes32,t_uint256)": {
        "encoding": "mapping",
        "key": "t_bytes32",
        "label": "mapping(bytes32 => uint256)",
        "numberOfBytes": "32",
        "value": "t_uint256"
      },
      "t_uint256": {
        "encoding": "inplace",
        "label": "uint256",
        "numberOfBytes": "32"
      }
    }
  }
}