{
  "address": "0x0732325cC6ba056Af5c95133979d6f748DB4dC35",
  "abi": [
    {
      "inputs": [],
      "stateMutability": "nonpayable",
      "type": "constructor"
    },
    {
      "inputs": [],
      "name": "ComplianceMerkleTreeStub__InvalidVersion",
      "type": "error"
    },
    {
      "inputs": [],
      "name": "ComplianceMerkleTreeStub__RootAlreadyExists",
      "type": "error"
    },
    {
      "inputs": [],
      "name": "ComplianceMerkleTreeStub__RootNotFound",
      "type": "error"
    },
    {
      "inputs": [],
      "name": "EnforcedPause",
      "type": "error"
    },
    {
      "inputs": [],
      "name": "ExpectedPause",
      "type": "error"
    },
    {
      "inputs": [
        {
          "internalType": "address",
          "name": "owner",
          "type": "address"
        }
      ],
      "name": "OwnableInvalidOwner",
      "type": "error"
    },
    {
      "inputs": [
        {
          "internalType": "address",
          "name": "account",
          "type": "address"
        }
      ],
      "name": "OwnableUnauthorizedAccount",
      "type": "error"
    },
    {
      "anonymous": false,
      "inputs": [
        {
          "indexed": true,
          "internalType": "address",
          "name": "previousOwner",
          "type": "address"
        },
        {
          "indexed": true,
          "internalType": "address",
          "name": "newOwner",
          "type": "address"
        }
      ],
      "name": "OwnershipTransferred",
      "type": "event"
    },
    {
      "anonymous": false,
      "inputs": [
        {
          "indexed": false,
          "internalType": "address",
          "name": "account",
          "type": "address"
        }
      ],
      "name": "Paused",
      "type": "event"
    },
    {
      "anonymous": false,
      "inputs": [
        {
          "indexed": false,
          "internalType": "address",
          "name": "account",
          "type": "address"
        }
      ],
      "name": "Unpaused",
      "type": "event"
    },
    {
      "inputs": [
        {
          "internalType": "bytes32[]",
          "name": "proof",
          "type": "bytes32[]"
        },
        {
          "internalType": "bytes",
          "name": "encodedData",
          "type": "bytes"
        }
      ],
      "name": "abiEncode",
      "outputs": [
        {
          "internalType": "bytes",
          "name": "",
          "type": "bytes"
        }
      ],
      "stateMutability": "pure",
      "type": "function"
    },
    {
      "inputs": [
        {
          "internalType": "bytes",
          "name": "encodedData",
          "type": "bytes"
        },
        {
          "internalType": "bool",
          "name": "withRoot",
          "type": "bool"
        }
      ],
      "name": "getAccount",
      "outputs": [
        {
          "internalType": "address",
          "name": "account",
          "type": "address"
        }
      ],
      "stateMutability": "pure",
      "type": "function"
    },
    {
      "inputs": [
        {
          "internalType": "bytes",
          "name": "encodedData",
          "type": "bytes"
        },
        {
          "internalType": "bool",
          "name": "withRoot",
          "type": "bool"
        }
      ],
      "name": "getData",
      "outputs": [
        {
          "internalType": "address",
          "name": "account",
          "type": "address"
        },
        {
          "internalType": "uint256",
          "name": "label",
          "type": "uint256"
        },
        {
          "internalType": "uint256",
          "name": "score",
          "type": "uint256"
        },
        {
          "internalType": "uint256",
          "name": "version",
          "type": "uint256"
        }
      ],
      "stateMutability": "pure",
      "type": "function"
    },
    {
      "inputs": [
        {
          "internalType": "bytes",
          "name": "encodedData",
          "type": "bytes"
        },
        {
          "internalType": "bool",
          "name": "withRoot",
          "type": "bool"
        }
      ],
      "name": "getLabel",
      "outputs": [
        {
          "internalType": "uint256",
          "name": "label",
          "type": "uint256"
        }
      ],
      "stateMutability": "pure",
      "type": "function"
    },
    {
      "inputs": [
        {
          "internalType": "bytes",
          "name": "encodedData",
          "type": "bytes"
        }
      ],
      "name": "getRoot",
      "outputs": [
        {
          "internalType": "bytes32",
          "name": "",
          "type": "bytes32"
        },
        {
          "internalType": "bytes",
          "name": "",
          "type": "bytes"
        }
      ],
      "stateMutability": "pure",
      "type": "function"
    },
    {
      "inputs": [
        {
          "internalType": "bytes",
          "name": "encodedData",
          "type": "bytes"
        },
        {
          "internalType": "bool",
          "name": "withRoot",
          "type": "bool"
        }
      ],
      "name": "getScore",
      "outputs": [
        {
          "internalType": "uint256",
          "name": "score",
          "type": "uint256"
        }
      ],
      "stateMutability": "pure",
      "type": "function"
    },
    {
      "inputs": [
        {
          "internalType": "bytes",
          "name": "encodedData",
          "type": "bytes"
        },
        {
          "internalType": "bool",
          "name": "withRoot",
          "type": "bool"
        }
      ],
      "name": "getVersion",
      "outputs": [
        {
          "internalType": "uint256",
          "name": "version",
          "type": "uint256"
        }
      ],
      "stateMutability": "pure",
      "type": "function"
    },
    {
      "inputs": [],
      "name": "owner",
      "outputs": [
        {
          "internalType": "address",
          "name": "",
          "type": "address"
        }
      ],
      "stateMutability": "view",
      "type": "function"
    },
    {
      "inputs": [],
      "name": "paused",
      "outputs": [
        {
          "internalType": "bool",
          "name": "",
          "type": "bool"
        }
      ],
      "stateMutability": "view",
      "type": "function"
    },
    {
      "inputs": [],
      "name": "renounceOwnership",
      "outputs": [],
      "stateMutability": "nonpayable",
      "type": "function"
    },
    {
      "inputs": [
        {
          "internalType": "address",
          "name": "newOwner",
          "type": "address"
        }
      ],
      "name": "transferOwnership",
      "outputs": [],
      "stateMutability": "nonpayable",
      "type": "function"
    },
    {
      "inputs": [
        {
          "internalType": "bytes32",
          "name": "_root",
          "type": "bytes32"
        },
        {
          "internalType": "uint256",
          "name": "_version",
          "type": "uint256"
        },
        {
          "internalType": "bool",
          "name": "isAdd",
          "type": "bool"
        }
      ],
      "name": "updateVersionedMerkleTree",
      "outputs": [],
      "stateMutability": "nonpayable",
      "type": "function"
    },
    {
      "inputs": [
        {
          "internalType": "bytes32[]",
          "name": "proof",
          "type": "bytes32[]"
        },
        {
          "internalType": "bytes",
          "name": "encodedData",
          "type": "bytes"
        }
      ],
      "name": "verify",
      "outputs": [
        {
          "internalType": "bool",
          "name": "",
          "type": "bool"
        }
      ],
      "stateMutability": "view",
      "type": "function"
    },
    {
      "inputs": [
        {
          "internalType": "bytes",
          "name": "data",
          "type": "bytes"
        }
      ],
      "name": "verifyHook",
      "outputs": [],
      "stateMutability": "view",
      "type": "function"
    },
    {
      "inputs": [
        {
          "internalType": "bytes32",
          "name": "",
          "type": "bytes32"
        }
      ],
      "name": "versionedMerkleTrees",
      "outputs": [
        {
          "internalType": "uint256",
          "name": "",
          "type": "uint256"
        }
      ],
      "stateMutability": "view",
      "type": "function"
    }
  ],
  "transactionHash": "0x965465e85c8ca854ce88d522d36c75b87eb3cef2e9ac904b9087bd7fbe49572c",
  "args": [],
  "numDeployments": 3,
  "solcInputHash": "152b05479a204b2d7ddad73644c9946b",
  "bytecode": "0x608060405234801561001057600080fd5b5033808061003d576000604051631e4fbdf760e01b815260040161003491906100cc565b60405180910390fd5b6100468161005a565b50506000805460ff60a01b191690556100da565b600080546001600160a01b038381166001600160a01b0319831681178455604051919092169283917f8be0079c531659141344cd1fd0a4f28419497f9722a3daafe3b4186f6b6457e09190a35050565b60006001600160a01b0382165b92915050565b6100c6816100aa565b82525050565b602081016100b782846100bd565b610f40806100e96000396000f3fe608060405234801561001057600080fd5b50600436106100f55760003560e01c8063a2599c5e11610097578063dd05955211610066578063dd0595521461021f578063e2c0114414610232578063e83218b714610245578063f2fde38b1461025857600080fd5b8063a2599c5e146101b9578063b9064267146101cc578063c14f8b5b146101ec578063d7a09728146101ff57600080fd5b806374ae5fe6116100d357806374ae5fe6146101495780638da5cb5b1461015c5780639131daa1146101765780639dc7e4121461019657600080fd5b80631fb6973b146100fa5780635c975abb14610124578063715018a61461013f575b600080fd5b61010d610108366004610897565b61026b565b60405161011b929190610930565b60405180910390f35b600054600160a01b900460ff165b60405161011b9190610958565b610147610292565b005b610132610157366004610a21565b6102a6565b6000546001600160a01b03165b60405161011b9190610aad565b610189610184366004610ace565b610366565b60405161011b9190610b1b565b6101a96101a4366004610ace565b6103ba565b60405161011b9493929190610b29565b6101476101c7366004610897565b610421565b6101896101da366004610b67565b60016020526000908152604090205481565b6101896101fa366004610ace565b610470565b61021261020d366004610a21565b6104c6565b60405161011b9190610b88565b61016961022d366004610ace565b6104f2565b610189610240366004610ace565b610548565b610147610253366004610b99565b61059c565b610147610266366004610bfd565b61064c565b60006060600080848060200190518101906102869190610c81565b90969095509350505050565b61029a61068a565b6102a460006106b7565b565b60008060006102b48461026b565b6000828152600160205260408120549294509092508190036102e957604051634f9f4f2560e01b815260040160405180910390fd5b60006102f68360006103ba565b935050505080821461031b5760405163858a1fb760e01b815260040160405180910390fd5b600083805190602001206040516020016103359190610cd5565b604051602081830303815290604052805190602001209050610358888683610707565b955050505050505b92915050565b6000811561039c5760006103798461026b565b915050808060200190518101906103909190610cf5565b50935061036092505050565b828060200190518101906103b09190610cf5565b5095945050505050565b60008060008084156103f95760006103d18761026b565b915050808060200190518101906103e89190610cf5565b929750909550935091506104189050565b8580602001905181019061040d9190610cf5565b929650909450925090505b92959194509250565b600080828060200190518101906104389190610dce565b9150915061044682826102a6565b61046b5760405162461bcd60e51b815260040161046290610e0a565b60405180910390fd5b505050565b600081156104a75760006104838461026b565b9150508080602001905181019061049a9190610cf5565b5090935061036092505050565b828060200190518101906104bb9190610cf5565b509095945050505050565b606082826040516020016104db929190610ec8565b604051602081830303815290604052905092915050565b600081156105295760006105058461026b565b9150508080602001905181019061051c9190610cf5565b5091935061036092505050565b8280602001905181019061053d9190610cf5565b509195945050505050565b6000811561057e57600061055b8461026b565b915050808060200190518101906105729190610cf5565b94506103609350505050565b828060200190518101906105929190610cf5565b9695505050505050565b6105a461068a565b816000036105c55760405163858a1fb760e01b815260040160405180910390fd5b801561060b57600083815260016020526040902054156105f857604051634642aa7160e11b815260040160405180910390fd5b5060009182526001602052604090912055565b600083815260016020526040812054900361063957604051634f9f4f2560e01b815260040160405180910390fd5b5050600090815260016020526040812055565b61065461068a565b6001600160a01b03811661067e576000604051631e4fbdf760e01b81526004016104629190610aad565b610687816106b7565b50565b6000546001600160a01b031633146102a4573360405163118cdaa760e01b81526004016104629190610aad565b600080546001600160a01b038381166001600160a01b0319831681178455604051919092169283917f8be0079c531659141344cd1fd0a4f28419497f9722a3daafe3b4186f6b6457e09190a35050565b600082610714858461071d565b14949350505050565b600081815b84518110156107625761074e8286838151811061074157610741610eed565b602002602001015161076a565b91508061075a81610f19565b915050610722565b509392505050565b6000818310610786576000828152602084905260409020610795565b60008381526020839052604090205b9392505050565b634e487b7160e01b600052604160045260246000fd5b601f19601f830116810181811067ffffffffffffffff821117156107d8576107d861079c565b6040525050565b60006107ea60405190565b90506107f682826107b2565b919050565b600067ffffffffffffffff8211156108155761081561079c565b601f19601f83011660200192915050565b82818337506000910152565b6000610845610840846107fb565b6107df565b90508281526020810184848401111561086057610860600080fd5b610762848285610826565b600082601f83011261087f5761087f600080fd5b813561088f848260208601610832565b949350505050565b6000602082840312156108ac576108ac600080fd5b813567ffffffffffffffff8111156108c6576108c6600080fd5b61088f8482850161086b565b805b82525050565b60005b838110156108f55781810151838201526020016108dd565b50506000910152565b6000610908825190565b80845260208401935061091f8185602086016108da565b601f01601f19169290920192915050565b6040810161093e82856108d2565b818103602083015261088f81846108fe565b8015156108d4565b602081016103608284610950565b600067ffffffffffffffff8211156109805761098061079c565b5060209081020190565b805b811461068757600080fd5b80356103608161098a565b60006109b061084084610966565b838152905060208082019084028301858111156109cf576109cf600080fd5b835b818110156109f357806109e48882610997565b845250602092830192016109d1565b5050509392505050565b600082601f830112610a1157610a11600080fd5b813561088f8482602086016109a2565b60008060408385031215610a3757610a37600080fd5b823567ffffffffffffffff811115610a5157610a51600080fd5b610a5d858286016109fd565b925050602083013567ffffffffffffffff811115610a7d57610a7d600080fd5b610a898582860161086b565b9150509250929050565b60006001600160a01b038216610360565b6108d481610a93565b602081016103608284610aa4565b80151561098c565b803561036081610abb565b60008060408385031215610ae457610ae4600080fd5b823567ffffffffffffffff811115610afe57610afe600080fd5b610b0a8582860161086b565b9250506020610a8985828601610ac3565b6020810161036082846108d2565b60808101610b378287610aa4565b610b4460208301866108d2565b610b5160408301856108d2565b610b5e60608301846108d2565b95945050505050565b600060208284031215610b7c57610b7c600080fd5b600061088f8484610997565b6020808252810161079581846108fe565b600080600060608486031215610bb157610bb1600080fd5b6000610bbd8686610997565b9350506020610bce86828701610997565b9250506040610bdf86828701610ac3565b9150509250925092565b61098c81610a93565b803561036081610be9565b600060208284031215610c1257610c12600080fd5b600061088f8484610bf2565b80516103608161098a565b6000610c37610840846107fb565b905082815260208101848484011115610c5257610c52600080fd5b6107628482856108da565b600082601f830112610c7157610c71600080fd5b815161088f848260208601610c29565b60008060408385031215610c9757610c97600080fd5b6000610ca38585610c1e565b925050602083015167ffffffffffffffff811115610cc357610cc3600080fd5b610a8985828601610c5d565b806108d4565b6000610ce18284610ccf565b50602001919050565b805161036081610be9565b60008060008060808587031215610d0e57610d0e600080fd5b6000610d1a8787610cea565b9450506020610d2b87828801610c1e565b9350506040610d3c87828801610c1e565b9250506060610d4d87828801610c1e565b91505092959194509250565b6000610d6761084084610966565b83815290506020808201908402830185811115610d8657610d86600080fd5b835b818110156109f35780610d9b8882610c1e565b84525060209283019201610d88565b600082601f830112610dbe57610dbe600080fd5b815161088f848260208601610d59565b60008060408385031215610de457610de4600080fd5b825167ffffffffffffffff811115610dfe57610dfe600080fd5b610ca385828601610daa565b6020808252810161036081603881527f4d6f636b436f6d706c69616e636556657273696f6e65644d65726b6c6554726560208201527f6553747562486f6f6b3a20496e76616c69642070726f6f660000000000000000604082015260600190565b6000610e7783836108d2565b505060200190565b6000610e89825190565b80845260209384019383018060005b83811015610ebd578151610eac8882610e6b565b975060208301925050600101610e98565b509495945050505050565b60408082528101610ed98185610e7f565b9050818103602083015261088f81846108fe565b634e487b7160e01b600052603260045260246000fd5b634e487b7160e01b600052601160045260246000fd5b60006000198203610f2c57610f2c610f03565b506001019056fea164736f6c6343000814000a",
  "devdoc": {
    "errors": {
      "EnforcedPause()": [
        {
          "details": "The operation failed because the contract is paused."
        }
      ],
      "ExpectedPause()": [
        {
          "details": "The operation failed because the contract is not paused."
        }
      ],
      "OwnableInvalidOwner(address)": [
        {
          "details": "The owner is not a valid owner account. (eg. `address(0)`)"
        }
      ],
      "OwnableUnauthorizedAccount(address)": [
        {
          "details": "The caller account is not authorized to perform an operation."
        }
      ]
    },
    "events": {
      "Paused(address)": {
        "details": "Emitted when the pause is triggered by `account`."
      },
      "Unpaused(address)": {
        "details": "Emitted when the pause is lifted by `account`."
      }
    },
    "kind": "dev",
    "methods": {
      "owner()": {
        "details": "Returns the address of the current owner."
      },
      "paused()": {
        "details": "Returns true if the contract is paused, and false otherwise."
      },
      "renounceOwnership()": {
        "details": "Leaves the contract without owner. It will not be possible to call `onlyOwner` functions. Can only be called by the current owner. NOTE: Renouncing ownership will leave the contract without an owner, thereby disabling any functionality that is only available to the owner."
      },
      "transferOwnership(address)": {
        "details": "Transfers ownership of the contract to a new account (`newOwner`). Can only be called by the current owner."
      }
    },
    "version": 1
  },
  "userdoc": {
    "kind": "user",
    "methods": {},
    "version": 1
  },
  "storageLayout": {
    "storage": [
      {
        "astId": 8,
        "contract": "contracts/tests/MockComplianceVersionedMerkleTreeStubHook.sol:MockComplianceVersionedMerkleTreeStubHook",
        "label": "_owner",
        "offset": 0,
        "slot": "0",
        "type": "t_address"
      },
      {
        "astId": 186,
        "contract": "contracts/tests/MockComplianceVersionedMerkleTreeStubHook.sol:MockComplianceVersionedMerkleTreeStubHook",
        "label": "_paused",
        "offset": 20,
        "slot": "0",
        "type": "t_bool"
      },
      {
        "astId": 950,
        "contract": "contracts/tests/MockComplianceVersionedMerkleTreeStubHook.sol:MockComplianceVersionedMerkleTreeStubHook",
        "label": "versionedMerkleTrees",
        "offset": 0,
        "slot": "1",
        "type": "t_mapping(t_bytes32,t_uint256)"
      }
    ],
    "types": {
      "t_address": {
        "encoding": "inplace",
        "label": "address",
        "numberOfBytes": "20"
      },
      "t_bool": {
        "encoding": "inplace",
        "label": "bool",
        "numberOfBytes": "1"
      },
      "t_bytes32": {
        "encoding": "inplace",
        "label": "bytes32",
        "numberOfBytes": "32"
      },
      "t_mapping(t_bytes32,t_uint256)": {
        "encoding": "mapping",
        "key": "t_bytes32",
        "label": "mapping(bytes32 => uint256)",
        "numberOfBytes": "32",
        "value": "t_uint256"
      },
      "t_uint256": {
        "encoding": "inplace",
        "label": "uint256",
        "numberOfBytes": "32"
      }
    }
  }
}