{
  "address": "0x348c14705AD4B0588266ED4A6a5c0Dd9Df1EE405",
  "abi": [
    {
      "inputs": [
        {
          "internalType": "address",
          "name": "",
          "type": "address"
        }
      ],
      "name": "isBlacklist",
      "outputs": [
        {
          "internalType": "bool",
          "name": "",
          "type": "bool"
        }
      ],
      "stateMutability": "view",
      "type": "function"
    },
    {
      "inputs": [
        {
          "internalType": "address",
          "name": "",
          "type": "address"
        }
      ],
      "name": "isWhitelist",
      "outputs": [
        {
          "internalType": "bool",
          "name": "",
          "type": "bool"
        }
      ],
      "stateMutability": "view",
      "type": "function"
    }
  ],
  "transactionHash": "0x0ae51b4e6f82d4292f9fafbd2eb2ebf85ff4cdafd63fad086e48ea32abdac381",
  "args": [],
  "numDeployments": 1,
  "solcInputHash": "c04ff3a5d6023b31023297fad06af492",
  "bytecode": "0x608060405234801561001057600080fd5b5060dc8061001f6000396000f3fe6080604052348015600f57600080fd5b506004361060325760003560e01c8063333e99db146037578063c683630d14605c575b600080fd5b60486042366004609d565b50600090565b6040516053919060c2565b60405180910390f35b60486067366004609d565b50600190565b60006001600160a01b0382165b92915050565b608781606d565b8114609157600080fd5b50565b8035607a816080565b60006020828403121560b05760b0600080fd5b600060ba84846094565b949350505050565b811515815260208101607a56fea164736f6c6343000814000a",
  "devdoc": {
    "kind": "dev",
    "methods": {},
    "version": 1
  },
  "userdoc": {
    "kind": "user",
    "methods": {},
    "version": 1
  },
  "storageLayout": {
    "storage": [],
    "types": null
  }
}