{
  "address": "0x40B5459E4Aec46dcf4A09D1FE8e849CE37513d66",
  "abi": [
    {
      "inputs": [
        {
          "internalType": "address",
          "name": "admin",
          "type": "address"
        },
        {
          "internalType": "uint256",
          "name": "base",
          "type": "uint256"
        }
      ],
      "stateMutability": "nonpayable",
      "type": "constructor"
    },
    {
      "inputs": [],
      "name": "AccessControlBadConfirmation",
      "type": "error"
    },
    {
      "inputs": [
        {
          "internalType": "address",
          "name": "account",
          "type": "address"
        },
        {
          "internalType": "bytes32",
          "name": "neededRole",
          "type": "bytes32"
        }
      ],
      "name": "AccessControlUnauthorizedAccount",
      "type": "error"
    },
    {
      "inputs": [],
      "name": "Create2EmptyBytecode",
      "type": "error"
    },
    {
      "inputs": [],
      "name": "Create2FailedDeployment",
      "type": "error"
    },
    {
      "inputs": [
        {
          "internalType": "uint256",
          "name": "balance",
          "type": "uint256"
        },
        {
          "internalType": "uint256",
          "name": "needed",
          "type": "uint256"
        }
      ],
      "name": "Create2InsufficientBalance",
      "type": "error"
    },
    {
      "anonymous": false,
      "inputs": [
        {
          "indexed": true,
          "internalType": "bytes32",
          "name": "role",
          "type": "bytes32"
        },
        {
          "indexed": true,
          "internalType": "bytes32",
          "name": "previousAdminRole",
          "type": "bytes32"
        },
        {
          "indexed": true,
          "internalType": "bytes32",
          "name": "newAdminRole",
          "type": "bytes32"
        }
      ],
      "name": "RoleAdminChanged",
      "type": "event"
    },
    {
      "anonymous": false,
      "inputs": [
        {
          "indexed": true,
          "internalType": "bytes32",
          "name": "role",
          "type": "bytes32"
        },
        {
          "indexed": true,
          "internalType": "address",
          "name": "account",
          "type": "address"
        },
        {
          "indexed": true,
          "internalType": "address",
          "name": "sender",
          "type": "address"
        }
      ],
      "name": "RoleGranted",
      "type": "event"
    },
    {
      "anonymous": false,
      "inputs": [
        {
          "indexed": true,
          "internalType": "bytes32",
          "name": "role",
          "type": "bytes32"
        },
        {
          "indexed": true,
          "internalType": "address",
          "name": "account",
          "type": "address"
        },
        {
          "indexed": true,
          "internalType": "address",
          "name": "sender",
          "type": "address"
        }
      ],
      "name": "RoleRevoked",
      "type": "event"
    },
    {
      "inputs": [],
      "name": "ADMIN_ROLE",
      "outputs": [
        {
          "internalType": "bytes32",
          "name": "",
          "type": "bytes32"
        }
      ],
      "stateMutability": "view",
      "type": "function"
    },
    {
      "inputs": [],
      "name": "COMPLIANCE_REGISTRY_STUB_ROLE",
      "outputs": [
        {
          "internalType": "bytes32",
          "name": "",
          "type": "bytes32"
        }
      ],
      "stateMutability": "view",
      "type": "function"
    },
    {
      "inputs": [],
      "name": "DEFAULT_ADMIN_ROLE",
      "outputs": [
        {
          "internalType": "bytes32",
          "name": "",
          "type": "bytes32"
        }
      ],
      "stateMutability": "view",
      "type": "function"
    },
    {
      "inputs": [
        {
          "internalType": "uint256",
          "name": "index",
          "type": "uint256"
        },
        {
          "internalType": "address",
          "name": "_stub",
          "type": "address"
        },
        {
          "internalType": "bool",
          "name": "_isWhitelist",
          "type": "bool"
        }
      ],
      "name": "deploy",
      "outputs": [
        {
          "internalType": "address",
          "name": "",
          "type": "address"
        }
      ],
      "stateMutability": "nonpayable",
      "type": "function"
    },
    {
      "inputs": [
        {
          "internalType": "uint256",
          "name": "index",
          "type": "uint256"
        },
        {
          "internalType": "bool",
          "name": "_isWhitelist",
          "type": "bool"
        }
      ],
      "name": "get",
      "outputs": [
        {
          "internalType": "address",
          "name": "",
          "type": "address"
        },
        {
          "internalType": "bool",
          "name": "",
          "type": "bool"
        }
      ],
      "stateMutability": "view",
      "type": "function"
    },
    {
      "inputs": [
        {
          "internalType": "bytes32",
          "name": "role",
          "type": "bytes32"
        }
      ],
      "name": "getRoleAdmin",
      "outputs": [
        {
          "internalType": "bytes32",
          "name": "",
          "type": "bytes32"
        }
      ],
      "stateMutability": "view",
      "type": "function"
    },
    {
      "inputs": [
        {
          "internalType": "bytes32",
          "name": "role",
          "type": "bytes32"
        },
        {
          "internalType": "address",
          "name": "account",
          "type": "address"
        }
      ],
      "name": "grantRole",
      "outputs": [],
      "stateMutability": "nonpayable",
      "type": "function"
    },
    {
      "inputs": [
        {
          "internalType": "bytes32",
          "name": "role",
          "type": "bytes32"
        },
        {
          "internalType": "address",
          "name": "account",
          "type": "address"
        }
      ],
      "name": "hasRole",
      "outputs": [
        {
          "internalType": "bool",
          "name": "",
          "type": "bool"
        }
      ],
      "stateMutability": "view",
      "type": "function"
    },
    {
      "inputs": [
        {
          "internalType": "bytes32",
          "name": "role",
          "type": "bytes32"
        },
        {
          "internalType": "address",
          "name": "callerConfirmation",
          "type": "address"
        }
      ],
      "name": "renounceRole",
      "outputs": [],
      "stateMutability": "nonpayable",
      "type": "function"
    },
    {
      "inputs": [
        {
          "internalType": "bytes32",
          "name": "role",
          "type": "bytes32"
        },
        {
          "internalType": "address",
          "name": "account",
          "type": "address"
        }
      ],
      "name": "revokeRole",
      "outputs": [],
      "stateMutability": "nonpayable",
      "type": "function"
    },
    {
      "inputs": [
        {
          "internalType": "bytes4",
          "name": "interfaceId",
          "type": "bytes4"
        }
      ],
      "name": "supportsInterface",
      "outputs": [
        {
          "internalType": "bool",
          "name": "",
          "type": "bool"
        }
      ],
      "stateMutability": "view",
      "type": "function"
    }
  ],
  "transactionHash": "0x24881892bd7b9d7e54092a162fac100ac36ada073d13f3a3a5a49e6b28ffe10e",
  "args": [
    "0xdfcb98d66336084326Bf69a0e55Ed15c2Ae24008",
    "96985831766657317612962350023332248276105290045634360593715924097290344331705"
  ],
  "numDeployments": 1,
  "solcInputHash": "e2646cb5ba315e76f3dea997d130f596",
  "bytecode": "0x60806040523480156200001157600080fd5b5060405162002a8438038062002a84833981016040819052620000349162000247565b6200004f60008051602062002a648339815191528362000100565b506200008b7ffaff885d0c08aaa824d1e15e24546ea49e586972365d88082dd68e9f3fca1ae660008051602062002a64833981519152620001af565b6040805180820182526001600160a01b0384168082526020918201849052600180546001600160a01b03191682179055600284905560009081527f09bf525e463116699876caa3bd1c139c3db97314f5888c842c310313df44a3ac909152205460ff16620000f857600080fd5b50506200028a565b6000828152602081815260408083206001600160a01b038516845290915281205460ff16620001a5576000838152602081815260408083206001600160a01b03861684529091529020805460ff191660011790556200015c3390565b6001600160a01b0316826001600160a01b0316847f2f8788117e7eff1d82e926ec794901d17c78024a50270940304540a733656f0d60405160405180910390a4506001620001a9565b5060005b92915050565b600082815260208190526040808220600101805490849055905190918391839186917fbd79b86ffe0ab8e8776151514217cd7cacd52c909f66475c3af44e129f0b00ff9190a4505050565b60006001600160a01b038216620001a9565b6200021781620001fa565b81146200022357600080fd5b50565b8051620001a9816200020c565b8062000217565b8051620001a98162000233565b600080604083850312156200025f576200025f600080fd5b60006200026d858562000226565b925050602062000280858286016200023a565b9150509250929050565b6127ca806200029a6000396000f3fe608060405234801561001057600080fd5b50600436106100a95760003560e01c806375b238fc1161007157806375b238fc1461014f57806391d1485414610176578063a217fddf14610189578063ce97870a14610191578063d547741f146101b2578063ef14981b146101c557600080fd5b806301ffc9a7146100ae578063248a9ca3146100d75780632d5421ba146101075780632f2ff15d1461012757806336568abe1461013c575b600080fd5b6100c16100bc366004610727565b6101ec565b6040516100ce919061075a565b60405180910390f35b6100fa6100e5366004610779565b60009081526020819052604090206001015490565b6040516100ce91906107a0565b61011a6101153660046107e6565b610223565b6040516100ce919061083f565b61013a61013536600461084d565b610339565b005b61013a61014a36600461084d565b610364565b6100fa7ffccdaf605b6a548a6761df480c8f02168106d2c75426fdd37e8f3e89e7fdb34a81565b6100c161018436600461084d565b61039c565b6100fa600081565b6101a461019f36600461088a565b6103c5565b6040516100ce9291906108bd565b61013a6101c036600461084d565b610421565b6100fa7ffaff885d0c08aaa824d1e15e24546ea49e586972365d88082dd68e9f3fca1ae681565b60006001600160e01b03198216637965db0b60e01b148061021d57506301ffc9a760e01b6001600160e01b03198316145b92915050565b60007ffaff885d0c08aaa824d1e15e24546ea49e586972365d88082dd68e9f3fca1ae661024f81610446565b600254604051600091610267918891906020016108d8565b604051602081830303815290604052805190602001209050600061028a85610453565b9050600061029f8383805190602001206104e5565b9050803b600081900361032b576102b8600085856104f9565b5060015460405163485cc95560e01b81526001600160a01b038481169263485cc955926102ed92909116908c906004016108fe565b600060405180830381600087803b15801561030757600080fd5b505af115801561031b573d6000803e3d6000fd5b5050505081955050505050610331565b50935050505b509392505050565b60008281526020819052604090206001015461035481610446565b61035e838361057d565b50505050565b6001600160a01b038116331461038d5760405163334bd91960e11b815260040160405180910390fd5b610397828261060f565b505050565b6000918252602082815260408084206001600160a01b0393909316845291905290205460ff1690565b600254604051600091829182916103e1918791906020016108d8565b60405160208183030381529060405280519060200120905060006104048561067a565b9050600061041283836104e5565b97883b15975095505050505050565b60008281526020819052604090206001015461043c81610446565b61035e838361060f565b6104508133610693565b50565b60608161049f57604051610469602082016106eb565b601f1982820381018352601f90910116604081905261048b919060200161095f565b60405160208183030381529060405261021d565b6040516104ae602082016106f8565b601f1982820381018352601f9091011660408190526104d0919060200161095f565b60405160208183030381529060405292915050565b60006104f28383306106c2565b9392505050565b60008347101561052957478460405163392efb2b60e21b815260040161052092919061096b565b60405180910390fd5b815160000361054b57604051631328927760e21b815260040160405180910390fd5b8282516020840186f590506001600160a01b0381166104f257604051633a0ba96160e11b815260040160405180910390fd5b6000610589838361039c565b610607576000838152602081815260408083206001600160a01b03861684529091529020805460ff191660011790556105bf3390565b6001600160a01b0316826001600160a01b0316847f2f8788117e7eff1d82e926ec794901d17c78024a50270940304540a733656f0d60405160405180910390a450600161021d565b50600061021d565b600061061b838361039c565b15610607576000838152602081815260408083206001600160a01b0386168085529252808320805460ff1916905551339286917ff6391f5c32d9c69d2a47ea670b442974b53935d1edc7fd64eb21e047a839171b9190a450600161021d565b600061068582610453565b805190602001209050919050565b61069d828261039c565b6106be57808260405163e2517d3f60e01b8152600401610520929190610986565b5050565b6000604051836040820152846020820152828152600b810160ff81536055902095945050505050565b610f138061099583390190565b610f16806118a883390190565b6001600160e01b031981165b811461045057600080fd5b803561021d81610705565b60006020828403121561073c5761073c600080fd5b6000610748848461071c565b949350505050565b8015155b82525050565b6020810161021d8284610750565b80610711565b803561021d81610768565b60006020828403121561078e5761078e600080fd5b6000610748848461076e565b80610754565b6020810161021d828461079a565b60006001600160a01b03821661021d565b610711816107ae565b803561021d816107bf565b801515610711565b803561021d816107d3565b6000806000606084860312156107fe576107fe600080fd5b600061080a868661076e565b935050602061081b868287016107c8565b925050604061082c868287016107db565b9150509250925092565b610754816107ae565b6020810161021d8284610836565b6000806040838503121561086357610863600080fd5b600061086f858561076e565b9250506020610880858286016107c8565b9150509250929050565b600080604083850312156108a0576108a0600080fd5b60006108ac858561076e565b9250506020610880858286016107db565b604081016108cb8285610836565b6104f26020830184610750565b60006108e4828561079a565b6020820191506108f4828461079a565b5060200192915050565b6040810161090c8285610836565b6104f26020830184610836565b60005b8381101561093457818101518382015260200161091c565b50506000910152565b6000610947825190565b610955818560208601610919565b9290920192915050565b60006104f2828461093d565b60408101610979828561079a565b6104f2602083018461079a565b60408101610979828561083656fe60806040526004805460ff1916905534801561001a57600080fd5b50610ee98061002a6000396000f3fe608060405234801561001057600080fd5b506004361061010b5760003560e01c806336568abe116100a257806391d148541161007157806391d148541461025d578063a217fddf14610270578063a641c95d14610278578063d547741f1461028b578063ef14981b1461029e57600080fd5b806336568abe14610203578063485cc955146102165780636d73dc991461022957806375b238fc1461023657600080fd5b8063248a9ca3116100de578063248a9ca31461018a5780632a95ae36146101ba5780632c289dcf146101dd5780632f2ff15d146101f057600080fd5b806301ffc9a71461011057806306d57de114610139578063197621ce1461014e5780631a88bc661461016e575b600080fd5b61012361011e366004610821565b6102b3565b6040516101309190610854565b60405180910390f35b61014c610147366004610bb8565b6102ea565b005b61016161015c366004610bf2565b6103b2565b6040516101309190610c35565b60015460025461017c919082565b604051610130929190610c49565b6101ad610198366004610c64565b60009081526020819052604090206001015490565b6040516101309190610c85565b6101236101c8366004610c64565b60036020526000908152604090205460ff1681565b6101236101eb366004610c93565b6103e6565b61014c6101fe366004610cb4565b61040f565b61014c610211366004610cb4565b61043a565b61014c610224366004610cf1565b61046d565b6001546002541015610123565b6101ad7fc65cb4995d6fc41c7db842b9726f58b89759332adaed7c94d4d438b6df976cd881565b61012361026b366004610cb4565b6105f4565b6101ad600081565b6101ad610286366004610c93565b61061d565b61014c610299366004610cb4565b61064d565b6101ad600080516020610ebd83398151915281565b60006001600160e01b03198216637965db0b60e01b14806102e457506301ffc9a760e01b6001600160e01b03198316145b92915050565b600080516020610ebd83398151915261030281610672565b60005b8260400151518110156103ad5760008360400151828151811061032a5761032a610d13565b60200260200101519050600061033f826103b2565b9050600061034c8261061d565b90506001600160a01b0382161580610372575060008181526003602052604090205460ff165b1561037f5750505061039b565b6000908152600360205260409020805460ff1916600117905550505b806103a581610d3f565b915050610305565b505050565b600080828060200190518101906103c99190610dd5565b9050808060200190518101906103df9190610e1a565b9392505050565b6000600360006103f58461061d565b815260208101919091526040016000205460ff1692915050565b60008281526020819052604090206001015461042a81610672565b610434838361067f565b50505050565b6001600160a01b03811633146104635760405163334bd91960e11b815260040160405180910390fd5b6103ad8282610711565b7ff0c57e16840df040f15088dc2f81fe391c3923bec73e23a9662efc9c229c6a008054600160401b810460ff1615906001600160401b03166000811580156104b25750825b90506000826001600160401b031660011480156104ce5750303b155b9050811580156104dc575080155b156104fa5760405163f92ee8a960e01b815260040160405180910390fd5b845467ffffffffffffffff19166001178555831561052457845460ff60401b1916600160401b1785555b61054e7fc65cb4995d6fc41c7db842b9726f58b89759332adaed7c94d4d438b6df976cd88861067f565b50610567600080516020610ebd8339815191528761067f565b506105a0600080516020610ebd8339815191527fc65cb4995d6fc41c7db842b9726f58b89759332adaed7c94d4d438b6df976cd861077c565b83156105eb57845460ff60401b191685556040517fc7f505b2f371ae2175ee4913f4499e1f2633a7b5936321eed1cdaeb6115181d2906105e290600190610e55565b60405180910390a15b50505050505050565b6000918252602082815260408084206001600160a01b0393909316845291905290205460ff1690565b6000816040516020016106309190610e8b565b604051602081830303815290604052805190602001209050919050565b60008281526020819052604090206001015461066881610672565b6104348383610711565b61067c81336107c7565b50565b600061068b83836105f4565b610709576000838152602081815260408083206001600160a01b03861684529091529020805460ff191660011790556106c13390565b6001600160a01b0316826001600160a01b0316847f2f8788117e7eff1d82e926ec794901d17c78024a50270940304540a733656f0d60405160405180910390a45060016102e4565b5060006102e4565b600061071d83836105f4565b15610709576000838152602081815260408083206001600160a01b0386168085529252808320805460ff1916905551339286917ff6391f5c32d9c69d2a47ea670b442974b53935d1edc7fd64eb21e047a839171b9190a45060016102e4565b600082815260208190526040808220600101805490849055905190918391839186917fbd79b86ffe0ab8e8776151514217cd7cacd52c909f66475c3af44e129f0b00ff9190a4505050565b6107d182826105f4565b6107fb57808260405163e2517d3f60e01b81526004016107f2929190610eae565b60405180910390fd5b5050565b6001600160e01b031981165b811461067c57600080fd5b80356102e4816107ff565b60006020828403121561083657610836600080fd5b60006108428484610816565b949350505050565b8015155b82525050565b602081016102e4828461084a565b634e487b7160e01b600052604160045260246000fd5b601f19601f83011681018181106001600160401b038211171561089d5761089d610862565b6040525050565b60006108af60405190565b90506108bb8282610878565b919050565b8061080b565b80356102e4816108c0565b60006001600160a01b0382166102e4565b61080b816108d1565b80356102e4816108e2565b60006001600160401b0382111561090f5761090f610862565b5060209081020190565b60006001600160401b0382111561093257610932610862565b601f19601f83011660200192915050565b82818337506000910152565b600061096261095d84610919565b6108a4565b90508281526020810184848401111561097d5761097d600080fd5b610988848285610943565b509392505050565b600082601f8301126109a4576109a4600080fd5b813561084284826020860161094f565b60006109c261095d846108f6565b838152905060208082019084028301858111156109e1576109e1600080fd5b835b81811015610a215780356001600160401b03811115610a0457610a04600080fd5b808601610a118982610990565b85525050602092830192016109e3565b5050509392505050565b600082601f830112610a3f57610a3f600080fd5b81356108428482602086016109b4565b80151561080b565b80356102e481610a4f565b6004811061067c57600080fd5b80356102e481610a62565b60006101408284031215610a9057610a90600080fd5b610a9b6101406108a4565b90506000610aa984846108c6565b8252506020610aba848483016108eb565b60208301525060408201356001600160401b03811115610adc57610adc600080fd5b610ae884828501610a2b565b6040830152506060610afc84828501610a57565b60608301525060808201356001600160401b03811115610b1e57610b1e600080fd5b610b2a84828501610990565b60808301525060a0610b3e848285016108c6565b60a08301525060c0610b5284828501610a6f565b60c08301525060e08201356001600160401b03811115610b7457610b74600080fd5b610b8084828501610990565b60e083015250610100610b95848285016108c6565b61010083015250610120610bab848285016108c6565b6101208301525092915050565b600060208284031215610bcd57610bcd600080fd5b81356001600160401b03811115610be657610be6600080fd5b61084284828501610a7a565b600060208284031215610c0757610c07600080fd5b81356001600160401b03811115610c2057610c20600080fd5b61084284828501610990565b61084e816108d1565b602081016102e48284610c2c565b8061084e565b60408101610c578285610c43565b6103df6020830184610c43565b600060208284031215610c7957610c79600080fd5b600061084284846108c6565b602081016102e48284610c43565b600060208284031215610ca857610ca8600080fd5b600061084284846108eb565b60008060408385031215610cca57610cca600080fd5b6000610cd685856108c6565b9250506020610ce7858286016108eb565b9150509250929050565b60008060408385031215610d0757610d07600080fd5b6000610cd685856108eb565b634e487b7160e01b600052603260045260246000fd5b634e487b7160e01b600052601160045260246000fd5b60006000198203610d5257610d52610d29565b5060010190565b60005b83811015610d74578181015183820152602001610d5c565b50506000910152565b6000610d8b61095d84610919565b905082815260208101848484011115610da657610da6600080fd5b610988848285610d59565b600082601f830112610dc557610dc5600080fd5b8151610842848260208601610d7d565b600060208284031215610dea57610dea600080fd5b81516001600160401b03811115610e0357610e03600080fd5b61084284828501610db1565b80516102e4816108e2565b600060208284031215610e2f57610e2f600080fd5b60006108428484610e0f565b60006001600160401b0382166102e4565b61084e81610e3b565b602081016102e48284610e4c565b60006102e48260601b90565b60006102e482610e63565b61084e610e86826108d1565b610e6f565b6000610e978284610e7a565b621692d560ea1b60148301908152916017016103df565b60408101610c578285610c2c56fec08ca0c89b9e943c8b9dcb9510274b54fcefeb3db9d7beba42dcfb6d3bf3e52ca164736f6c6343000814000a60806040526004805460ff1916600117905534801561001d57600080fd5b50610ee98061002d6000396000f3fe608060405234801561001057600080fd5b506004361061010b5760003560e01c806336568abe116100a257806391d148541161007157806391d148541461025d578063a217fddf14610270578063a641c95d14610278578063d547741f1461028b578063ef14981b1461029e57600080fd5b806336568abe14610203578063485cc955146102165780636d73dc991461022957806375b238fc1461023657600080fd5b8063248a9ca3116100de578063248a9ca31461018a5780632a95ae36146101ba5780632c289dcf146101dd5780632f2ff15d146101f057600080fd5b806301ffc9a71461011057806306d57de114610139578063197621ce1461014e5780631a88bc661461016e575b600080fd5b61012361011e366004610821565b6102b3565b6040516101309190610854565b60405180910390f35b61014c610147366004610bb8565b6102ea565b005b61016161015c366004610bf2565b6103b2565b6040516101309190610c35565b60015460025461017c919082565b604051610130929190610c49565b6101ad610198366004610c64565b60009081526020819052604090206001015490565b6040516101309190610c85565b6101236101c8366004610c64565b60036020526000908152604090205460ff1681565b6101236101eb366004610c93565b6103e6565b61014c6101fe366004610cb4565b61040f565b61014c610211366004610cb4565b61043a565b61014c610224366004610cf1565b61046d565b6001546002541015610123565b6101ad7fc65cb4995d6fc41c7db842b9726f58b89759332adaed7c94d4d438b6df976cd881565b61012361026b366004610cb4565b6105f4565b6101ad600081565b6101ad610286366004610c93565b61061d565b61014c610299366004610cb4565b61064d565b6101ad600080516020610ebd83398151915281565b60006001600160e01b03198216637965db0b60e01b14806102e457506301ffc9a760e01b6001600160e01b03198316145b92915050565b600080516020610ebd83398151915261030281610672565b60005b8260400151518110156103ad5760008360400151828151811061032a5761032a610d13565b60200260200101519050600061033f826103b2565b9050600061034c8261061d565b90506001600160a01b0382161580610372575060008181526003602052604090205460ff165b1561037f5750505061039b565b6000908152600360205260409020805460ff1916600117905550505b806103a581610d3f565b915050610305565b505050565b600080828060200190518101906103c99190610dd5565b9050808060200190518101906103df9190610e1a565b9392505050565b6000600360006103f58461061d565b815260208101919091526040016000205460ff1692915050565b60008281526020819052604090206001015461042a81610672565b610434838361067f565b50505050565b6001600160a01b03811633146104635760405163334bd91960e11b815260040160405180910390fd5b6103ad8282610711565b7ff0c57e16840df040f15088dc2f81fe391c3923bec73e23a9662efc9c229c6a008054600160401b810460ff1615906001600160401b03166000811580156104b25750825b90506000826001600160401b031660011480156104ce5750303b155b9050811580156104dc575080155b156104fa5760405163f92ee8a960e01b815260040160405180910390fd5b845467ffffffffffffffff19166001178555831561052457845460ff60401b1916600160401b1785555b61054e7fc65cb4995d6fc41c7db842b9726f58b89759332adaed7c94d4d438b6df976cd88861067f565b50610567600080516020610ebd8339815191528761067f565b506105a0600080516020610ebd8339815191527fc65cb4995d6fc41c7db842b9726f58b89759332adaed7c94d4d438b6df976cd861077c565b83156105eb57845460ff60401b191685556040517fc7f505b2f371ae2175ee4913f4499e1f2633a7b5936321eed1cdaeb6115181d2906105e290600190610e55565b60405180910390a15b50505050505050565b6000918252602082815260408084206001600160a01b0393909316845291905290205460ff1690565b6000816040516020016106309190610e8b565b604051602081830303815290604052805190602001209050919050565b60008281526020819052604090206001015461066881610672565b6104348383610711565b61067c81336107c7565b50565b600061068b83836105f4565b610709576000838152602081815260408083206001600160a01b03861684529091529020805460ff191660011790556106c13390565b6001600160a01b0316826001600160a01b0316847f2f8788117e7eff1d82e926ec794901d17c78024a50270940304540a733656f0d60405160405180910390a45060016102e4565b5060006102e4565b600061071d83836105f4565b15610709576000838152602081815260408083206001600160a01b0386168085529252808320805460ff1916905551339286917ff6391f5c32d9c69d2a47ea670b442974b53935d1edc7fd64eb21e047a839171b9190a45060016102e4565b600082815260208190526040808220600101805490849055905190918391839186917fbd79b86ffe0ab8e8776151514217cd7cacd52c909f66475c3af44e129f0b00ff9190a4505050565b6107d182826105f4565b6107fb57808260405163e2517d3f60e01b81526004016107f2929190610eae565b60405180910390fd5b5050565b6001600160e01b031981165b811461067c57600080fd5b80356102e4816107ff565b60006020828403121561083657610836600080fd5b60006108428484610816565b949350505050565b8015155b82525050565b602081016102e4828461084a565b634e487b7160e01b600052604160045260246000fd5b601f19601f83011681018181106001600160401b038211171561089d5761089d610862565b6040525050565b60006108af60405190565b90506108bb8282610878565b919050565b8061080b565b80356102e4816108c0565b60006001600160a01b0382166102e4565b61080b816108d1565b80356102e4816108e2565b60006001600160401b0382111561090f5761090f610862565b5060209081020190565b60006001600160401b0382111561093257610932610862565b601f19601f83011660200192915050565b82818337506000910152565b600061096261095d84610919565b6108a4565b90508281526020810184848401111561097d5761097d600080fd5b610988848285610943565b509392505050565b600082601f8301126109a4576109a4600080fd5b813561084284826020860161094f565b60006109c261095d846108f6565b838152905060208082019084028301858111156109e1576109e1600080fd5b835b81811015610a215780356001600160401b03811115610a0457610a04600080fd5b808601610a118982610990565b85525050602092830192016109e3565b5050509392505050565b600082601f830112610a3f57610a3f600080fd5b81356108428482602086016109b4565b80151561080b565b80356102e481610a4f565b6004811061067c57600080fd5b80356102e481610a62565b60006101408284031215610a9057610a90600080fd5b610a9b6101406108a4565b90506000610aa984846108c6565b8252506020610aba848483016108eb565b60208301525060408201356001600160401b03811115610adc57610adc600080fd5b610ae884828501610a2b565b6040830152506060610afc84828501610a57565b60608301525060808201356001600160401b03811115610b1e57610b1e600080fd5b610b2a84828501610990565b60808301525060a0610b3e848285016108c6565b60a08301525060c0610b5284828501610a6f565b60c08301525060e08201356001600160401b03811115610b7457610b74600080fd5b610b8084828501610990565b60e083015250610100610b95848285016108c6565b61010083015250610120610bab848285016108c6565b6101208301525092915050565b600060208284031215610bcd57610bcd600080fd5b81356001600160401b03811115610be657610be6600080fd5b61084284828501610a7a565b600060208284031215610c0757610c07600080fd5b81356001600160401b03811115610c2057610c20600080fd5b61084284828501610990565b61084e816108d1565b602081016102e48284610c2c565b8061084e565b60408101610c578285610c43565b6103df6020830184610c43565b600060208284031215610c7957610c79600080fd5b600061084284846108c6565b602081016102e48284610c43565b600060208284031215610ca857610ca8600080fd5b600061084284846108eb565b60008060408385031215610cca57610cca600080fd5b6000610cd685856108c6565b9250506020610ce7858286016108eb565b9150509250929050565b60008060408385031215610d0757610d07600080fd5b6000610cd685856108eb565b634e487b7160e01b600052603260045260246000fd5b634e487b7160e01b600052601160045260246000fd5b60006000198203610d5257610d52610d29565b5060010190565b60005b83811015610d74578181015183820152602001610d5c565b50506000910152565b6000610d8b61095d84610919565b905082815260208101848484011115610da657610da6600080fd5b610988848285610d59565b600082601f830112610dc557610dc5600080fd5b8151610842848260208601610d7d565b600060208284031215610dea57610dea600080fd5b81516001600160401b03811115610e0357610e03600080fd5b61084284828501610db1565b80516102e4816108e2565b600060208284031215610e2f57610e2f600080fd5b60006108428484610e0f565b60006001600160401b0382166102e4565b61084e81610e3b565b602081016102e48284610e4c565b60006102e48260601b90565b60006102e482610e63565b61084e610e86826108d1565b610e6f565b6000610e978284610e7a565b621692d560ea1b60148301908152916017016103df565b60408101610c578285610c2c56fec08ca0c89b9e943c8b9dcb9510274b54fcefeb3db9d7beba42dcfb6d3bf3e52ca164736f6c6343000814000aa164736f6c6343000814000afccdaf605b6a548a6761df480c8f02168106d2c75426fdd37e8f3e89e7fdb34a",
  "devdoc": {
    "errors": {
      "AccessControlBadConfirmation()": [
        {
          "details": "The caller of a function is not the expected one. NOTE: Don't confuse with {AccessControlUnauthorizedAccount}."
        }
      ],
      "AccessControlUnauthorizedAccount(address,bytes32)": [
        {
          "details": "The `account` is missing a role."
        }
      ],
      "Create2EmptyBytecode()": [
        {
          "details": "There's no code to deploy."
        }
      ],
      "Create2FailedDeployment()": [
        {
          "details": "The deployment failed."
        }
      ],
      "Create2InsufficientBalance(uint256,uint256)": [
        {
          "details": "Not enough balance for performing a CREATE2 deploy."
        }
      ]
    },
    "events": {
      "RoleAdminChanged(bytes32,bytes32,bytes32)": {
        "details": "Emitted when `newAdminRole` is set as ``role``'s admin role, replacing `previousAdminRole` `DEFAULT_ADMIN_ROLE` is the starting admin for all roles, despite {RoleAdminChanged} not being emitted signaling this."
      },
      "RoleGranted(bytes32,address,address)": {
        "details": "Emitted when `account` is granted `role`. `sender` is the account that originated the contract call, an admin role bearer except when using {AccessControl-_setupRole}."
      },
      "RoleRevoked(bytes32,address,address)": {
        "details": "Emitted when `account` is revoked `role`. `sender` is the account that originated the contract call:   - if using `revokeRole`, it is the admin role bearer   - if using `renounceRole`, it is the role bearer (i.e. `account`)"
      }
    },
    "kind": "dev",
    "methods": {
      "getRoleAdmin(bytes32)": {
        "details": "Returns the admin role that controls `role`. See {grantRole} and {revokeRole}. To change a role's admin, use {_setRoleAdmin}."
      },
      "grantRole(bytes32,address)": {
        "details": "Grants `role` to `account`. If `account` had not been already granted `role`, emits a {RoleGranted} event. Requirements: - the caller must have ``role``'s admin role. May emit a {RoleGranted} event."
      },
      "hasRole(bytes32,address)": {
        "details": "Returns `true` if `account` has been granted `role`."
      },
      "renounceRole(bytes32,address)": {
        "details": "Revokes `role` from the calling account. Roles are often managed via {grantRole} and {revokeRole}: this function's purpose is to provide a mechanism for accounts to lose their privileges if they are compromised (such as when a trusted device is misplaced). If the calling account had been revoked `role`, emits a {RoleRevoked} event. Requirements: - the caller must be `callerConfirmation`. May emit a {RoleRevoked} event."
      },
      "revokeRole(bytes32,address)": {
        "details": "Revokes `role` from `account`. If `account` had been granted `role`, emits a {RoleRevoked} event. Requirements: - the caller must have ``role``'s admin role. May emit a {RoleRevoked} event."
      },
      "supportsInterface(bytes4)": {
        "details": "See {IERC165-supportsInterface}."
      }
    },
    "version": 1
  },
  "userdoc": {
    "kind": "user",
    "methods": {},
    "version": 1
  },
  "storageLayout": {
    "storage": [
      {
        "astId": 729,
        "contract": "contracts/oracle/RegistryFactory.sol:RegistryFactory",
        "label": "_roles",
        "offset": 0,
        "slot": "0",
        "type": "t_mapping(t_bytes32,t_struct(RoleData)724_storage)"
      },
      {
        "astId": 2772,
        "contract": "contracts/oracle/RegistryFactory.sol:RegistryFactory",
        "label": "slot",
        "offset": 0,
        "slot": "1",
        "type": "t_struct(Slot)2769_storage"
      }
    ],
    "types": {
      "t_address": {
        "encoding": "inplace",
        "label": "address",
        "numberOfBytes": "20"
      },
      "t_bool": {
        "encoding": "inplace",
        "label": "bool",
        "numberOfBytes": "1"
      },
      "t_bytes32": {
        "encoding": "inplace",
        "label": "bytes32",
        "numberOfBytes": "32"
      },
      "t_mapping(t_address,t_bool)": {
        "encoding": "mapping",
        "key": "t_address",
        "label": "mapping(address => bool)",
        "numberOfBytes": "32",
        "value": "t_bool"
      },
      "t_mapping(t_bytes32,t_struct(RoleData)724_storage)": {
        "encoding": "mapping",
        "key": "t_bytes32",
        "label": "mapping(bytes32 => struct AccessControl.RoleData)",
        "numberOfBytes": "32",
        "value": "t_struct(RoleData)724_storage"
      },
      "t_struct(RoleData)724_storage": {
        "encoding": "inplace",
        "label": "struct AccessControl.RoleData",
        "members": [
          {
            "astId": 721,
            "contract": "contracts/oracle/RegistryFactory.sol:RegistryFactory",
            "label": "hasRole",
            "offset": 0,
            "slot": "0",
            "type": "t_mapping(t_address,t_bool)"
          },
          {
            "astId": 723,
            "contract": "contracts/oracle/RegistryFactory.sol:RegistryFactory",
            "label": "adminRole",
            "offset": 0,
            "slot": "1",
            "type": "t_bytes32"
          }
        ],
        "numberOfBytes": "64"
      },
      "t_struct(Slot)2769_storage": {
        "encoding": "inplace",
        "label": "struct RegistryFactory.Slot",
        "members": [
          {
            "astId": 2766,
            "contract": "contracts/oracle/RegistryFactory.sol:RegistryFactory",
            "label": "admin",
            "offset": 0,
            "slot": "0",
            "type": "t_address"
          },
          {
            "astId": 2768,
            "contract": "contracts/oracle/RegistryFactory.sol:RegistryFactory",
            "label": "base",
            "offset": 0,
            "slot": "1",
            "type": "t_uint256"
          }
        ],
        "numberOfBytes": "64"
      },
      "t_uint256": {
        "encoding": "inplace",
        "label": "uint256",
        "numberOfBytes": "32"
      }
    }
  }
}