{
  "address": "0xFC6Eb6BD38c0F02d3C717DbEbE73123DCC9c0F2a",
  "abi": [
    {
      "inputs": [
        {
          "internalType": "bool",
          "name": "_isWhitelistRegistry",
          "type": "bool"
        },
        {
          "internalType": "address",
          "name": "_networkRegistry",
          "type": "address"
        }
      ],
      "stateMutability": "nonpayable",
      "type": "constructor"
    },
    {
      "anonymous": false,
      "inputs": [
        {
          "indexed": false,
          "internalType": "bool",
          "name": "isWhitelistRegistry",
          "type": "bool"
        },
        {
          "indexed": false,
          "internalType": "bytes",
          "name": "data",
          "type": "bytes"
        },
        {
          "indexed": false,
          "internalType": "bytes32",
          "name": "networkHash",
          "type": "bytes32"
        }
      ],
      "name": "AddProposalToAnotherNetworkList",
      "type": "event"
    },
    {
      "anonymous": false,
      "inputs": [
        {
          "indexed": true,
          "internalType": "bytes32",
          "name": "role",
          "type": "bytes32"
        },
        {
          "indexed": true,
          "internalType": "bytes32",
          "name": "previousAdminRole",
          "type": "bytes32"
        },
        {
          "indexed": true,
          "internalType": "bytes32",
          "name": "newAdminRole",
          "type": "bytes32"
        }
      ],
      "name": "RoleAdminChanged",
      "type": "event"
    },
    {
      "anonymous": false,
      "inputs": [
        {
          "indexed": true,
          "internalType": "bytes32",
          "name": "role",
          "type": "bytes32"
        },
        {
          "indexed": true,
          "internalType": "address",
          "name": "account",
          "type": "address"
        },
        {
          "indexed": true,
          "internalType": "address",
          "name": "sender",
          "type": "address"
        }
      ],
      "name": "RoleGranted",
      "type": "event"
    },
    {
      "anonymous": false,
      "inputs": [
        {
          "indexed": true,
          "internalType": "bytes32",
          "name": "role",
          "type": "bytes32"
        },
        {
          "indexed": true,
          "internalType": "address",
          "name": "account",
          "type": "address"
        },
        {
          "indexed": true,
          "internalType": "address",
          "name": "sender",
          "type": "address"
        }
      ],
      "name": "RoleRevoked",
      "type": "event"
    },
    {
      "inputs": [],
      "name": "ADMIN_ROLE",
      "outputs": [
        {
          "internalType": "bytes32",
          "name": "",
          "type": "bytes32"
        }
      ],
      "stateMutability": "view",
      "type": "function"
    },
    {
      "inputs": [],
      "name": "COMPLIANCE_REGISTRY_STUB_ROLE",
      "outputs": [
        {
          "internalType": "bytes32",
          "name": "",
          "type": "bytes32"
        }
      ],
      "stateMutability": "view",
      "type": "function"
    },
    {
      "inputs": [],
      "name": "DEFAULT_ADMIN_ROLE",
      "outputs": [
        {
          "internalType": "bytes32",
          "name": "",
          "type": "bytes32"
        }
      ],
      "stateMutability": "view",
      "type": "function"
    },
    {
      "inputs": [
        {
          "components": [
            {
              "internalType": "bytes32",
              "name": "id",
              "type": "bytes32"
            },
            {
              "internalType": "address",
              "name": "author",
              "type": "address"
            },
            {
              "internalType": "bytes[]",
              "name": "targets",
              "type": "bytes[]"
            },
            {
              "internalType": "bool",
              "name": "isWhitelist",
              "type": "bool"
            },
            {
              "internalType": "string",
              "name": "description",
              "type": "string"
            },
            {
              "internalType": "uint256",
              "name": "timestamp",
              "type": "uint256"
            },
            {
              "internalType": "enum ProposalCommon.ProposalStatus",
              "name": "status",
              "type": "uint8"
            },
            {
              "internalType": "bytes",
              "name": "signature",
              "type": "bytes"
            },
            {
              "internalType": "uint256",
              "name": "voters",
              "type": "uint256"
            },
            {
              "internalType": "uint256",
              "name": "activeNodes",
              "type": "uint256"
            }
          ],
          "internalType": "struct ProposalCommon.Proposal",
          "name": "proposal",
          "type": "tuple"
        }
      ],
      "name": "addProposalToList",
      "outputs": [],
      "stateMutability": "nonpayable",
      "type": "function"
    },
    {
      "inputs": [
        {
          "internalType": "address",
          "name": "account",
          "type": "address"
        }
      ],
      "name": "checkAddress",
      "outputs": [
        {
          "internalType": "bool",
          "name": "",
          "type": "bool"
        }
      ],
      "stateMutability": "view",
      "type": "function"
    },
    {
      "inputs": [
        {
          "internalType": "bytes32",
          "name": "",
          "type": "bytes32"
        }
      ],
      "name": "complianceList",
      "outputs": [
        {
          "internalType": "bytes32",
          "name": "proposalId",
          "type": "bytes32"
        },
        {
          "internalType": "address",
          "name": "target",
          "type": "address"
        },
        {
          "internalType": "address",
          "name": "author",
          "type": "address"
        },
        {
          "internalType": "string",
          "name": "description",
          "type": "string"
        },
        {
          "internalType": "bool",
          "name": "isInList",
          "type": "bool"
        }
      ],
      "stateMutability": "view",
      "type": "function"
    },
    {
      "inputs": [
        {
          "internalType": "bytes",
          "name": "data",
          "type": "bytes"
        }
      ],
      "name": "decodeBytes",
      "outputs": [
        {
          "internalType": "address",
          "name": "",
          "type": "address"
        },
        {
          "internalType": "bytes32",
          "name": "",
          "type": "bytes32"
        }
      ],
      "stateMutability": "view",
      "type": "function"
    },
    {
      "inputs": [
        {
          "internalType": "address",
          "name": "target",
          "type": "address"
        }
      ],
      "name": "getAddressKey",
      "outputs": [
        {
          "internalType": "bytes32",
          "name": "",
          "type": "bytes32"
        }
      ],
      "stateMutability": "pure",
      "type": "function"
    },
    {
      "inputs": [
        {
          "internalType": "bytes32",
          "name": "role",
          "type": "bytes32"
        }
      ],
      "name": "getRoleAdmin",
      "outputs": [
        {
          "internalType": "bytes32",
          "name": "",
          "type": "bytes32"
        }
      ],
      "stateMutability": "view",
      "type": "function"
    },
    {
      "inputs": [
        {
          "internalType": "bytes32",
          "name": "role",
          "type": "bytes32"
        },
        {
          "internalType": "address",
          "name": "account",
          "type": "address"
        }
      ],
      "name": "grantRole",
      "outputs": [],
      "stateMutability": "nonpayable",
      "type": "function"
    },
    {
      "inputs": [
        {
          "internalType": "bytes32",
          "name": "role",
          "type": "bytes32"
        },
        {
          "internalType": "address",
          "name": "account",
          "type": "address"
        }
      ],
      "name": "hasRole",
      "outputs": [
        {
          "internalType": "bool",
          "name": "",
          "type": "bool"
        }
      ],
      "stateMutability": "view",
      "type": "function"
    },
    {
      "inputs": [],
      "name": "isWhitelistRegistry",
      "outputs": [
        {
          "internalType": "bool",
          "name": "",
          "type": "bool"
        }
      ],
      "stateMutability": "view",
      "type": "function"
    },
    {
      "inputs": [],
      "name": "networkRegistry",
      "outputs": [
        {
          "internalType": "contract INetworkSupportedRegistry",
          "name": "",
          "type": "address"
        }
      ],
      "stateMutability": "view",
      "type": "function"
    },
    {
      "inputs": [
        {
          "internalType": "bytes32",
          "name": "role",
          "type": "bytes32"
        },
        {
          "internalType": "address",
          "name": "account",
          "type": "address"
        }
      ],
      "name": "renounceRole",
      "outputs": [],
      "stateMutability": "nonpayable",
      "type": "function"
    },
    {
      "inputs": [
        {
          "internalType": "bytes32",
          "name": "role",
          "type": "bytes32"
        },
        {
          "internalType": "address",
          "name": "account",
          "type": "address"
        }
      ],
      "name": "revokeRole",
      "outputs": [],
      "stateMutability": "nonpayable",
      "type": "function"
    },
    {
      "inputs": [
        {
          "internalType": "bytes4",
          "name": "interfaceId",
          "type": "bytes4"
        }
      ],
      "name": "supportsInterface",
      "outputs": [
        {
          "internalType": "bool",
          "name": "",
          "type": "bool"
        }
      ],
      "stateMutability": "view",
      "type": "function"
    }
  ],
  "transactionHash": "0x541d65f71d8bd11147fcde1db47a6bbcee0153a0c1251316159063e422b0255d",
  "args": [
    true,
    "0x63e0594cED2a631704D173cD503fc87daFDbbE55"
  ],
  "numDeployments": 2,
  "solcInputHash": "ecc64e6be28de4c6545072be52b86451",
  "bytecode": "0x60806040523480156200001157600080fd5b506040516200174238038062001742833981016040819052620000349162000219565b6200004f6000805160206200172283398151915233620000c1565b6200008a7f0b3e7944028b9137b341d05bbbc77e68d5b96e4d5186467e8afc61f9897ee55160008051602062001722833981519152620000d1565b6001805460ff191692151592909217909155600380546001600160a01b0319166001600160a01b039092169190911790556200025c565b620000cd82826200011c565b5050565b600082815260208190526040808220600101805490849055905190918391839186917fbd79b86ffe0ab8e8776151514217cd7cacd52c909f66475c3af44e129f0b00ff9190a4505050565b620001288282620001a4565b620000cd576000828152602081815260408083206001600160a01b03851684529091529020805460ff19166001179055620001603390565b6001600160a01b0316816001600160a01b0316837f2f8788117e7eff1d82e926ec794901d17c78024a50270940304540a733656f0d60405160405180910390a45050565b6000828152602081815260408083206001600160a01b038516845290915290205460ff165b92915050565b8015155b8114620001df57600080fd5b50565b8051620001c981620001cf565b60006001600160a01b038216620001c9565b620001d381620001ef565b8051620001c98162000201565b60008060408385031215620002315762000231600080fd5b60006200023f8585620001e2565b925050602062000252858286016200020c565b9150509250929050565b6114b6806200026c6000396000f3fe608060405234801561001057600080fd5b50600436106101005760003560e01c806336568abe11610097578063a641c95d11610066578063a641c95d14610240578063d547741f14610253578063e45f40be14610266578063ef14981b1461028657600080fd5b806336568abe146101eb57806375b238fc146101fe57806391d1485414610225578063a217fddf1461023857600080fd5b806310096ca4116100d357806310096ca414610163578063197621ce14610187578063248a9ca3146101a85780632f2ff15d146101d857600080fd5b806301ffc9a71461010557806302522cd31461012e57806306d57de11461013b5780630ddcfe8e14610150575b600080fd5b610118610113366004610a1e565b6102ad565b6040516101259190610a51565b60405180910390f35b6001546101189060ff1681565b61014e610149366004610dbc565b6102e4565b005b61011861015e366004610df7565b61049f565b610176610171366004610e18565b6104cb565b604051610125959493929190610e9e565b61019a610195366004610ef1565b610593565b604051610125929190610f2c565b6101cb6101b6366004610e18565b60009081526020819052604090206001015490565b6040516101259190610f47565b61014e6101e6366004610f55565b610655565b61014e6101f9366004610f55565b61067b565b6101cb7fa49807205ce4d355092ef5a8a18f56e8913cf4a201fbe287825b095693c2177581565b610118610233366004610f55565b6106ba565b6101cb600081565b6101cb61024e366004610df7565b6106e3565b61014e610261366004610f55565b610713565b600354610279906001600160a01b031681565b6040516101259190610fd4565b6101cb7f0b3e7944028b9137b341d05bbbc77e68d5b96e4d5186467e8afc61f9897ee55181565b60006001600160e01b03198216637965db0b60e01b14806102de57506301ffc9a760e01b6001600160e01b03198316145b92915050565b7f0b3e7944028b9137b341d05bbbc77e68d5b96e4d5186467e8afc61f9897ee55161030f8133610739565b60005b82604001515181101561049a5760008360400151828151811061033757610337610fe2565b6020026020010151905060008061034d83610593565b91509150600061035c836106e3565b60008181526002602052604090206004015490915060ff16156103825750505050610488565b6001600160a01b0383166103d4576001546040517f350b0c44b10d50caae2cf501fa202cd33b1887500d0fa784c7a33c938c9c3481916103cb9160ff9091169087908690610ff8565b60405180910390a15b6040805160a081018252885181526001600160a01b038086166020808401918252808c015183168486019081526080808e015160608701908152600191870182905260008981526002948590529790972086518155935190840180549186166001600160a01b03199283161790559051918301805492909416911617909155915190919060038201906104679082611101565b50608091909101516004909101805460ff1916911515919091179055505050505b80610492816111db565b915050610312565b505050565b6000600260006104ae846106e3565b815260208101919091526040016000206004015460ff1692915050565b6002602081905260009182526040909120805460018201549282015460038301805492946001600160a01b03908116949216926105079061103d565b80601f01602080910402602001604051908101604052809291908181526020018280546105339061103d565b80156105805780601f1061055557610100808354040283529160200191610580565b820191906000526020600020905b81548152906001019060200180831161056357829003601f168201915b5050506004909301549192505060ff1685565b600080600080848060200190518101906105ad9190611258565b60035460405163973cb0a160e01b81529294509092506001600160a01b03169063973cb0a1906105e1908490600401610f47565b602060405180830381865afa1580156105fe573d6000803e3d6000fd5b505050506040513d601f19601f8201168201806040525081019061062291906112b0565b156106495760008280602001905181019061063d91906112dc565b96919550909350505050565b60009590945092505050565b6000828152602081905260409020600101546106718133610739565b61049a838361079d565b6001600160a01b03811633146106ac5760405162461bcd60e51b81526004016106a3906112fd565b60405180910390fd5b6106b68282610821565b5050565b6000918252602082815260408084206001600160a01b0393909316845291905290205460ff1690565b6000816040516020016106f69190611378565b604051602081830303815290604052805190602001209050919050565b60008281526020819052604090206001015461072f8133610739565b61049a8383610821565b61074382826106ba565b6106b65761075b816001600160a01b03166014610886565b610766836020610886565b6040516020016107779291906113bd565b60408051601f198184030181529082905262461bcd60e51b82526106a391600401611415565b6107a782826106ba565b6106b6576000828152602081815260408083206001600160a01b03851684529091529020805460ff191660011790556107dd3390565b6001600160a01b0316816001600160a01b0316837f2f8788117e7eff1d82e926ec794901d17c78024a50270940304540a733656f0d60405160405180910390a45050565b61082b82826106ba565b156106b6576000828152602081815260408083206001600160a01b0385168085529252808320805460ff1916905551339285917ff6391f5c32d9c69d2a47ea670b442974b53935d1edc7fd64eb21e047a839171b9190a45050565b60606000610895836002611426565b6108a0906002611445565b67ffffffffffffffff8111156108b8576108b8610a5f565b6040519080825280601f01601f1916602001820160405280156108e2576020820181803683370190505b509050600360fc1b816000815181106108fd576108fd610fe2565b60200101906001600160f81b031916908160001a905350600f60fb1b8160018151811061092c5761092c610fe2565b60200101906001600160f81b031916908160001a9053506000610950846002611426565b61095b906001611445565b90505b60018111156109d3576f181899199a1a9b1b9c1cb0b131b232b360811b85600f166010811061098f5761098f610fe2565b1a60f81b8282815181106109a5576109a5610fe2565b60200101906001600160f81b031916908160001a90535060049490941c936109cc81611458565b905061095e565b5083156109f25760405162461bcd60e51b81526004016106a39061146f565b9392505050565b6001600160e01b031981165b8114610a1057600080fd5b50565b80356102de816109f9565b600060208284031215610a3357610a33600080fd5b6000610a3f8484610a13565b949350505050565b8015155b82525050565b602081016102de8284610a47565b634e487b7160e01b600052604160045260246000fd5b601f19601f830116810181811067ffffffffffffffff82111715610a9b57610a9b610a5f565b6040525050565b6000610aad60405190565b9050610ab98282610a75565b919050565b80610a05565b80356102de81610abe565b60006001600160a01b0382166102de565b610a0581610acf565b80356102de81610ae0565b600067ffffffffffffffff821115610b0e57610b0e610a5f565b5060209081020190565b600067ffffffffffffffff821115610b3257610b32610a5f565b601f19601f83011660200192915050565b82818337506000910152565b6000610b62610b5d84610b18565b610aa2565b905082815260208101848484011115610b7d57610b7d600080fd5b610b88848285610b43565b509392505050565b600082601f830112610ba457610ba4600080fd5b8135610a3f848260208601610b4f565b6000610bc2610b5d84610af4565b83815290506020808201908402830185811115610be157610be1600080fd5b835b81811015610c2257803567ffffffffffffffff811115610c0557610c05600080fd5b808601610c128982610b90565b8552505060209283019201610be3565b5050509392505050565b600082601f830112610c4057610c40600080fd5b8135610a3f848260208601610bb4565b801515610a05565b80356102de81610c50565b60048110610a1057600080fd5b80356102de81610c63565b60006101408284031215610c9157610c91600080fd5b610c9c610140610aa2565b90506000610caa8484610ac4565b8252506020610cbb84848301610ae9565b602083015250604082013567ffffffffffffffff811115610cde57610cde600080fd5b610cea84828501610c2c565b6040830152506060610cfe84828501610c58565b606083015250608082013567ffffffffffffffff811115610d2157610d21600080fd5b610d2d84828501610b90565b60808301525060a0610d4184828501610ac4565b60a08301525060c0610d5584828501610c70565b60c08301525060e082013567ffffffffffffffff811115610d7857610d78600080fd5b610d8484828501610b90565b60e083015250610100610d9984828501610ac4565b61010083015250610120610daf84828501610ac4565b6101208301525092915050565b600060208284031215610dd157610dd1600080fd5b813567ffffffffffffffff811115610deb57610deb600080fd5b610a3f84828501610c7b565b600060208284031215610e0c57610e0c600080fd5b6000610a3f8484610ae9565b600060208284031215610e2d57610e2d600080fd5b6000610a3f8484610ac4565b80610a4b565b610a4b81610acf565b60005b83811015610e63578181015183820152602001610e4b565b50506000910152565b6000610e76825190565b808452602084019350610e8d818560208601610e48565b601f01601f19169290920192915050565b60a08101610eac8288610e39565b610eb96020830187610e3f565b610ec66040830186610e3f565b8181036060830152610ed88185610e6c565b9050610ee76080830184610a47565b9695505050505050565b600060208284031215610f0657610f06600080fd5b813567ffffffffffffffff811115610f2057610f20600080fd5b610a3f84828501610b90565b60408101610f3a8285610e3f565b6109f26020830184610e39565b602081016102de8284610e39565b60008060408385031215610f6b57610f6b600080fd5b6000610f778585610ac4565b9250506020610f8885828601610ae9565b9150509250929050565b60006102de6001600160a01b038316610fa9565b90565b6001600160a01b031690565b60006102de82610f92565b60006102de82610fb5565b610a4b81610fc0565b602081016102de8284610fcb565b634e487b7160e01b600052603260045260246000fd5b606081016110068286610a47565b81810360208301526110188185610e6c565b9050610a3f6040830184610e39565b634e487b7160e01b600052602260045260246000fd5b60028104600182168061105157607f821691505b60208210810361106357611063611027565b50919050565b60006102de610fa68381565b61107e83611069565b815460001960089490940293841b1916921b91909117905550565b600061049a818484611075565b818110156106b6576110b9600082611099565b6001016110a6565b601f82111561049a576000818152602090206020601f850104810160208510156110e85750805b6110fa6020601f8601048301826110a6565b5050505050565b815167ffffffffffffffff81111561111b5761111b610a5f565b611125825461103d565b6111308282856110c1565b6020601f831160018114611164576000841561114c5750858201515b600019600886021c19811660028602178655506111bd565b600085815260208120601f198616915b828110156111945788850151825560209485019460019092019101611174565b868310156111b05784890151600019601f89166008021c191682555b6001600288020188555050505b505050505050565b634e487b7160e01b600052601160045260246000fd5b600060001982036111ee576111ee6111c5565b5060010190565b6000611203610b5d84610b18565b90508281526020810184848401111561121e5761121e600080fd5b610b88848285610e48565b600082601f83011261123d5761123d600080fd5b8151610a3f8482602086016111f5565b80516102de81610abe565b6000806040838503121561126e5761126e600080fd5b825167ffffffffffffffff81111561128857611288600080fd5b61129485828601611229565b9250506020610f888582860161124d565b80516102de81610c50565b6000602082840312156112c5576112c5600080fd5b6000610a3f84846112a5565b80516102de81610ae0565b6000602082840312156112f1576112f1600080fd5b6000610a3f84846112d1565b602080825281016102de81602f81527f416363657373436f6e74726f6c3a2063616e206f6e6c792072656e6f756e636560208201526e103937b632b9903337b91039b2b63360891b604082015260600190565b60006102de8260601b90565b60006102de82611350565b610a4b61137382610acf565b61135c565b60006113848284611367565b621692d560ea1b60148301908152916017016109f2565b60006113a5825190565b6113b3818560208601610e48565b9290920192915050565b7f416363657373436f6e74726f6c3a206163636f756e7420000000000000000000815260170160006113ef828561139b565b7001034b99036b4b9b9b4b733903937b6329607d1b81526011019150610a3f828461139b565b602080825281016109f28184610e6c565b81810280821583820485141761143e5761143e6111c5565b5092915050565b808201808211156102de576102de6111c5565b600081611467576114676111c5565b506000190190565b60208082528181019081527f537472696e67733a20686578206c656e67746820696e73756666696369656e746040830152606082016102de56fea164736f6c6343000814000aa49807205ce4d355092ef5a8a18f56e8913cf4a201fbe287825b095693c21775",
  "devdoc": {
    "events": {
      "RoleAdminChanged(bytes32,bytes32,bytes32)": {
        "details": "Emitted when `newAdminRole` is set as ``role``'s admin role, replacing `previousAdminRole` `DEFAULT_ADMIN_ROLE` is the starting admin for all roles, despite {RoleAdminChanged} not being emitted signaling this. _Available since v3.1._"
      },
      "RoleGranted(bytes32,address,address)": {
        "details": "Emitted when `account` is granted `role`. `sender` is the account that originated the contract call, an admin role bearer except when using {AccessControl-_setupRole}."
      },
      "RoleRevoked(bytes32,address,address)": {
        "details": "Emitted when `account` is revoked `role`. `sender` is the account that originated the contract call:   - if using `revokeRole`, it is the admin role bearer   - if using `renounceRole`, it is the role bearer (i.e. `account`)"
      }
    },
    "kind": "dev",
    "methods": {
      "getRoleAdmin(bytes32)": {
        "details": "Returns the admin role that controls `role`. See {grantRole} and {revokeRole}. To change a role's admin, use {_setRoleAdmin}."
      },
      "grantRole(bytes32,address)": {
        "details": "Grants `role` to `account`. If `account` had not been already granted `role`, emits a {RoleGranted} event. Requirements: - the caller must have ``role``'s admin role."
      },
      "hasRole(bytes32,address)": {
        "details": "Returns `true` if `account` has been granted `role`."
      },
      "renounceRole(bytes32,address)": {
        "details": "Revokes `role` from the calling account. Roles are often managed via {grantRole} and {revokeRole}: this function's purpose is to provide a mechanism for accounts to lose their privileges if they are compromised (such as when a trusted device is misplaced). If the calling account had been revoked `role`, emits a {RoleRevoked} event. Requirements: - the caller must be `account`."
      },
      "revokeRole(bytes32,address)": {
        "details": "Revokes `role` from `account`. If `account` had been granted `role`, emits a {RoleRevoked} event. Requirements: - the caller must have ``role``'s admin role."
      },
      "supportsInterface(bytes4)": {
        "details": "See {IERC165-supportsInterface}."
      }
    },
    "version": 1
  },
  "userdoc": {
    "kind": "user",
    "methods": {},
    "version": 1
  },
  "storageLayout": {
    "storage": [
      {
        "astId": 24,
        "contract": "contracts/oracle/ComplianceRegistry.sol:ComplianceRegistry",
        "label": "_roles",
        "offset": 0,
        "slot": "0",
        "type": "t_mapping(t_bytes32,t_struct(RoleData)19_storage)"
      },
      {
        "astId": 1570,
        "contract": "contracts/oracle/ComplianceRegistry.sol:ComplianceRegistry",
        "label": "isWhitelistRegistry",
        "offset": 0,
        "slot": "1",
        "type": "t_bool"
      },
      {
        "astId": 1575,
        "contract": "contracts/oracle/ComplianceRegistry.sol:ComplianceRegistry",
        "label": "complianceList",
        "offset": 0,
        "slot": "2",
        "type": "t_mapping(t_bytes32,t_struct(Compliance)1278_storage)"
      },
      {
        "astId": 1578,
        "contract": "contracts/oracle/ComplianceRegistry.sol:ComplianceRegistry",
        "label": "networkRegistry",
        "offset": 0,
        "slot": "3",
        "type": "t_contract(INetworkSupportedRegistry)1422"
      }
    ],
    "types": {
      "t_address": {
        "encoding": "inplace",
        "label": "address",
        "numberOfBytes": "20"
      },
      "t_bool": {
        "encoding": "inplace",
        "label": "bool",
        "numberOfBytes": "1"
      },
      "t_bytes32": {
        "encoding": "inplace",
        "label": "bytes32",
        "numberOfBytes": "32"
      },
      "t_contract(INetworkSupportedRegistry)1422": {
        "encoding": "inplace",
        "label": "contract INetworkSupportedRegistry",
        "numberOfBytes": "20"
      },
      "t_mapping(t_address,t_bool)": {
        "encoding": "mapping",
        "key": "t_address",
        "label": "mapping(address => bool)",
        "numberOfBytes": "32",
        "value": "t_bool"
      },
      "t_mapping(t_bytes32,t_struct(Compliance)1278_storage)": {
        "encoding": "mapping",
        "key": "t_bytes32",
        "label": "mapping(bytes32 => struct IComplianceEntry.Compliance)",
        "numberOfBytes": "32",
        "value": "t_struct(Compliance)1278_storage"
      },
      "t_mapping(t_bytes32,t_struct(RoleData)19_storage)": {
        "encoding": "mapping",
        "key": "t_bytes32",
        "label": "mapping(bytes32 => struct AccessControl.RoleData)",
        "numberOfBytes": "32",
        "value": "t_struct(RoleData)19_storage"
      },
      "t_string_storage": {
        "encoding": "bytes",
        "label": "string",
        "numberOfBytes": "32"
      },
      "t_struct(Compliance)1278_storage": {
        "encoding": "inplace",
        "label": "struct IComplianceEntry.Compliance",
        "members": [
          {
            "astId": 1269,
            "contract": "contracts/oracle/ComplianceRegistry.sol:ComplianceRegistry",
            "label": "proposalId",
            "offset": 0,
            "slot": "0",
            "type": "t_bytes32"
          },
          {
            "astId": 1271,
            "contract": "contracts/oracle/ComplianceRegistry.sol:ComplianceRegistry",
            "label": "target",
            "offset": 0,
            "slot": "1",
            "type": "t_address"
          },
          {
            "astId": 1273,
            "contract": "contracts/oracle/ComplianceRegistry.sol:ComplianceRegistry",
            "label": "author",
            "offset": 0,
            "slot": "2",
            "type": "t_address"
          },
          {
            "astId": 1275,
            "contract": "contracts/oracle/ComplianceRegistry.sol:ComplianceRegistry",
            "label": "description",
            "offset": 0,
            "slot": "3",
            "type": "t_string_storage"
          },
          {
            "astId": 1277,
            "contract": "contracts/oracle/ComplianceRegistry.sol:ComplianceRegistry",
            "label": "isInList",
            "offset": 0,
            "slot": "4",
            "type": "t_bool"
          }
        ],
        "numberOfBytes": "160"
      },
      "t_struct(RoleData)19_storage": {
        "encoding": "inplace",
        "label": "struct AccessControl.RoleData",
        "members": [
          {
            "astId": 16,
            "contract": "contracts/oracle/ComplianceRegistry.sol:ComplianceRegistry",
            "label": "members",
            "offset": 0,
            "slot": "0",
            "type": "t_mapping(t_address,t_bool)"
          },
          {
            "astId": 18,
            "contract": "contracts/oracle/ComplianceRegistry.sol:ComplianceRegistry",
            "label": "adminRole",
            "offset": 0,
            "slot": "1",
            "type": "t_bytes32"
          }
        ],
        "numberOfBytes": "64"
      }
    }
  }
}