{
  "address": "0x6d4015b1bAa5a459D8105c7Cf8C9b49C6C122fC5",
  "abi": [
    {
      "inputs": [
        {
          "internalType": "uint256",
          "name": "base",
          "type": "uint256"
        },
        {
          "internalType": "address",
          "name": "admin",
          "type": "address"
        },
        {
          "internalType": "address",
          "name": "registryFactory",
          "type": "address"
        }
      ],
      "stateMutability": "nonpayable",
      "type": "constructor"
    },
    {
      "inputs": [],
      "name": "AccessControlBadConfirmation",
      "type": "error"
    },
    {
      "inputs": [
        {
          "internalType": "address",
          "name": "account",
          "type": "address"
        },
        {
          "internalType": "bytes32",
          "name": "neededRole",
          "type": "bytes32"
        }
      ],
      "name": "AccessControlUnauthorizedAccount",
      "type": "error"
    },
    {
      "inputs": [],
      "name": "Create2EmptyBytecode",
      "type": "error"
    },
    {
      "inputs": [],
      "name": "Create2FailedDeployment",
      "type": "error"
    },
    {
      "inputs": [
        {
          "internalType": "uint256",
          "name": "balance",
          "type": "uint256"
        },
        {
          "internalType": "uint256",
          "name": "needed",
          "type": "uint256"
        }
      ],
      "name": "Create2InsufficientBalance",
      "type": "error"
    },
    {
      "anonymous": false,
      "inputs": [
        {
          "indexed": true,
          "internalType": "bytes32",
          "name": "role",
          "type": "bytes32"
        },
        {
          "indexed": true,
          "internalType": "bytes32",
          "name": "previousAdminRole",
          "type": "bytes32"
        },
        {
          "indexed": true,
          "internalType": "bytes32",
          "name": "newAdminRole",
          "type": "bytes32"
        }
      ],
      "name": "RoleAdminChanged",
      "type": "event"
    },
    {
      "anonymous": false,
      "inputs": [
        {
          "indexed": true,
          "internalType": "bytes32",
          "name": "role",
          "type": "bytes32"
        },
        {
          "indexed": true,
          "internalType": "address",
          "name": "account",
          "type": "address"
        },
        {
          "indexed": true,
          "internalType": "address",
          "name": "sender",
          "type": "address"
        }
      ],
      "name": "RoleGranted",
      "type": "event"
    },
    {
      "anonymous": false,
      "inputs": [
        {
          "indexed": true,
          "internalType": "bytes32",
          "name": "role",
          "type": "bytes32"
        },
        {
          "indexed": true,
          "internalType": "address",
          "name": "account",
          "type": "address"
        },
        {
          "indexed": true,
          "internalType": "address",
          "name": "sender",
          "type": "address"
        }
      ],
      "name": "RoleRevoked",
      "type": "event"
    },
    {
      "inputs": [],
      "name": "ADMIN_ROLE",
      "outputs": [
        {
          "internalType": "bytes32",
          "name": "",
          "type": "bytes32"
        }
      ],
      "stateMutability": "view",
      "type": "function"
    },
    {
      "inputs": [],
      "name": "DEFAULT_ADMIN_ROLE",
      "outputs": [
        {
          "internalType": "bytes32",
          "name": "",
          "type": "bytes32"
        }
      ],
      "stateMutability": "view",
      "type": "function"
    },
    {
      "inputs": [
        {
          "internalType": "uint256",
          "name": "pivot",
          "type": "uint256"
        },
        {
          "internalType": "address",
          "name": "stub",
          "type": "address"
        }
      ],
      "name": "deploy",
      "outputs": [
        {
          "internalType": "address",
          "name": "",
          "type": "address"
        }
      ],
      "stateMutability": "nonpayable",
      "type": "function"
    },
    {
      "inputs": [
        {
          "internalType": "uint256",
          "name": "pivot",
          "type": "uint256"
        }
      ],
      "name": "get",
      "outputs": [
        {
          "internalType": "address",
          "name": "",
          "type": "address"
        },
        {
          "internalType": "bool",
          "name": "",
          "type": "bool"
        }
      ],
      "stateMutability": "view",
      "type": "function"
    },
    {
      "inputs": [
        {
          "internalType": "bytes32",
          "name": "role",
          "type": "bytes32"
        }
      ],
      "name": "getRoleAdmin",
      "outputs": [
        {
          "internalType": "bytes32",
          "name": "",
          "type": "bytes32"
        }
      ],
      "stateMutability": "view",
      "type": "function"
    },
    {
      "inputs": [
        {
          "internalType": "bytes32",
          "name": "role",
          "type": "bytes32"
        },
        {
          "internalType": "address",
          "name": "account",
          "type": "address"
        }
      ],
      "name": "grantRole",
      "outputs": [],
      "stateMutability": "nonpayable",
      "type": "function"
    },
    {
      "inputs": [
        {
          "internalType": "bytes32",
          "name": "role",
          "type": "bytes32"
        },
        {
          "internalType": "address",
          "name": "account",
          "type": "address"
        }
      ],
      "name": "hasRole",
      "outputs": [
        {
          "internalType": "bool",
          "name": "",
          "type": "bool"
        }
      ],
      "stateMutability": "view",
      "type": "function"
    },
    {
      "inputs": [
        {
          "internalType": "bytes32",
          "name": "role",
          "type": "bytes32"
        },
        {
          "internalType": "address",
          "name": "callerConfirmation",
          "type": "address"
        }
      ],
      "name": "renounceRole",
      "outputs": [],
      "stateMutability": "nonpayable",
      "type": "function"
    },
    {
      "inputs": [
        {
          "internalType": "bytes32",
          "name": "role",
          "type": "bytes32"
        },
        {
          "internalType": "address",
          "name": "account",
          "type": "address"
        }
      ],
      "name": "revokeRole",
      "outputs": [],
      "stateMutability": "nonpayable",
      "type": "function"
    },
    {
      "inputs": [
        {
          "internalType": "bytes4",
          "name": "interfaceId",
          "type": "bytes4"
        }
      ],
      "name": "supportsInterface",
      "outputs": [
        {
          "internalType": "bool",
          "name": "",
          "type": "bool"
        }
      ],
      "stateMutability": "view",
      "type": "function"
    }
  ],
  "transactionHash": "0x7d6a8d331b62e90d23a533917e1a265ebe62ecd2f2cc0129bf3b410c7888da55",
  "args": [
    "2191227981256181971500982669175236669202474041630582909478476962651597094464",
    "0x84749A15Ece648b8e77cdCc48Fc4BA6FDF630497",
    "0x4742642c334715C8152F936BF6B86491aE68a6cC"
  ],
  "numDeployments": 1,
  "solcInputHash": "e7d68ebad2904fa6e23ddd0ccbcc91f1",
  "bytecode": "0x608060405234801561001057600080fd5b50604051620016a1380380620016a1833981016040819052610031916101d5565b61005b7ffa6717d9964f30f81b82c017eaf8cbaafe98bd1250c96a0f2f400edf6d0f5e06836100e9565b50604080516060810182526001600160a01b038481168083529084166020808401829052928401879052600180546001600160a01b03199081168417909155600280549091169091179055600386905560009081527e8f898478d4d400fc7769ffd91ab0f9313c6509688c03c5e71378df47d258e3909152205460ff166100e157600080fd5b505050610225565b6000828152602081815260408083206001600160a01b038516845290915281205460ff1661018b576000838152602081815260408083206001600160a01b03861684529091529020805460ff191660011790556101433390565b6001600160a01b0316826001600160a01b0316847f2f8788117e7eff1d82e926ec794901d17c78024a50270940304540a733656f0d60405160405180910390a450600161018f565b5060005b92915050565b805b81146101a257600080fd5b50565b805161018f81610195565b60006001600160a01b03821661018f565b610197816101b0565b805161018f816101c1565b6000806000606084860312156101ed576101ed600080fd5b60006101f986866101a5565b935050602061020a868287016101ca565b925050604061021b868287016101ca565b9150509250925092565b61146c80620002356000396000f3fe608060405234801561001057600080fd5b506004361061009e5760003560e01c806391d148541161006657806391d148541461014b5780639507d39a1461015e578063a217fddf1461017f578063d547741f14610187578063df02995d1461019a57600080fd5b806301ffc9a7146100a3578063248a9ca3146100cc5780632f2ff15d146100fc57806336568abe1461011157806375b238fc14610124575b600080fd5b6100b66100b1366004610699565b6101ba565b6040516100c391906106cc565b60405180910390f35b6100ef6100da3660046106eb565b60009081526020819052604090206001015490565b6040516100c39190610712565b61010f61010a366004610745565b6101f1565b005b61010f61011f366004610745565b61021c565b6100ef7ffa6717d9964f30f81b82c017eaf8cbaafe98bd1250c96a0f2f400edf6d0f5e0681565b6100b6610159366004610745565b610254565b61017161016c3660046106eb565b61027d565b6040516100c392919061078b565b6100ef600081565b61010f610195366004610745565b6102b3565b6101ad6101a8366004610745565b6102d8565b6040516100c391906107a6565b60006001600160e01b03198216637965db0b60e01b14806101eb57506301ffc9a760e01b6001600160e01b03198316145b92915050565b60008281526020819052604090206001015461020c816103c7565b61021683836103d4565b50505050565b6001600160a01b03811633146102455760405163334bd91960e11b815260040160405180910390fd5b61024f8282610466565b505050565b6000918252602082815260408084206001600160a01b0393909316845291905290205460ff1690565b600080600061028b846104d1565b9050600061029761051c565b905060006102a58383610532565b96873b159650945050505050565b6000828152602081905260409020600101546102ce816103c7565b6102168383610466565b60007ffa6717d9964f30f81b82c017eaf8cbaafe98bd1250c96a0f2f400edf6d0f5e06610304816103c7565b600061030f856104d1565b9050600061031b610546565b90506000610330838380519060200120610532565b9050803b60008190036103ba576103496000858561058e565b5060025460405163485cc95560e01b81526001600160a01b038085169263485cc9559261037c928c9216906004016107b4565b600060405180830381600087803b15801561039657600080fd5b505af11580156103aa573d6000803e3d6000fd5b50505050819550505050506103c0565b50935050505b5092915050565b6103d18133610612565b50565b60006103e08383610254565b61045e576000838152602081815260408083206001600160a01b03861684529091529020805460ff191660011790556104163390565b6001600160a01b0316826001600160a01b0316847f2f8788117e7eff1d82e926ec794901d17c78024a50270940304540a733656f0d60405160405180910390a45060016101eb565b5060006101eb565b60006104728383610254565b1561045e576000838152602081815260408083206001600160a01b0386168085529252808320805460ff1916905551339286917ff6391f5c32d9c69d2a47ea670b442974b53935d1edc7fd64eb21e047a839171b9190a45060016101eb565b6001546002546003546040516000936104ff9386936001600160a01b039283169392909116916020016107f7565b604051602081830303815290604052805190602001209050919050565b6000610526610546565b80519060200120905090565b600061053f838330610641565b9392505050565b6060604051806020016105589061066a565b601f1982820381018352601f90910116604081905261057a9190602001610885565b604051602081830303815290604052905090565b6000834710156105be57478460405163392efb2b60e21b81526004016105b5929190610891565b60405180910390fd5b81516000036105e057604051631328927760e21b815260040160405180910390fd5b8282516020840186f590506001600160a01b03811661053f57604051633a0ba96160e11b815260040160405180910390fd5b61061c8282610254565b61063d57808260405163e2517d3f60e01b81526004016105b59291906108ac565b5050565b6000604051836040820152846020820152828152600b810160ff81536055902095945050505050565b610ba5806108bb83390190565b6001600160e01b031981165b81146103d157600080fd5b80356101eb81610677565b6000602082840312156106ae576106ae600080fd5b60006106ba848461068e565b949350505050565b8015155b82525050565b602081016101eb82846106c2565b80610683565b80356101eb816106da565b60006020828403121561070057610700600080fd5b60006106ba84846106e0565b806106c6565b602081016101eb828461070c565b60006001600160a01b0382166101eb565b61068381610720565b80356101eb81610731565b6000806040838503121561075b5761075b600080fd5b600061076785856106e0565b92505060206107788582860161073a565b9150509250929050565b6106c681610720565b604081016107998285610782565b61053f60208301846106c2565b602081016101eb8284610782565b604081016107c28285610782565b61053f6020830184610782565b60006101eb8260601b90565b60006101eb826107cf565b6106c66107f282610720565b6107db565b6000610803828761070c565b60208201915061081382866107e6565b60148201915061082382856107e6565b601482019150610833828461070c565b50602001949350505050565b60005b8381101561085a578181015183820152602001610842565b50506000910152565b600061086d825190565b61087b81856020860161083f565b9290920192915050565b600061053f8284610863565b6040810161089f828561070c565b61053f602083018461070c565b6040810161089f828561078256fe608060405234801561001057600080fd5b50610b85806100206000396000f3fe608060405234801561001057600080fd5b50600436106100ea5760003560e01c806393e59dc11161008c578063bce32fa511610066578063bce32fa5146101db578063d547741f146101ee578063ef14981b14610201578063f86c5f891461022857600080fd5b806393e59dc1146101a9578063a217fddf146101c5578063a4b5fa56146101cd57600080fd5b806336568abe116100c857806336568abe1461015d578063485cc955146101705780634a80e2731461018357806391d148541461019657600080fd5b806301ffc9a7146100ef578063248a9ca3146101185780632f2ff15d14610148575b600080fd5b6101026100fd366004610860565b610248565b60405161010f9190610893565b60405180910390f35b61013b6101263660046108b2565b60009081526020819052604090206001015490565b60405161010f91906108d9565b61015b61015636600461090c565b61027f565b005b61015b61016b36600461090c565b6102aa565b61015b61017e366004610949565b6102e2565b61015b61019136600461097e565b610470565b6101026101a436600461090c565b610557565b6003546004546101b7919082565b60405161010f9291906109b1565b61013b600081565b6001546002546101b7919082565b6101026101e936600461097e565b610580565b61015b6101fc36600461090c565b6106d7565b61013b7f95ae2dbc037bfb090829e279355ba0308ebb01d5207f5693c4092d02ff27f1ae81565b60055461023b906001600160a01b031681565b60405161010f91906109f2565b60006001600160e01b03198216637965db0b60e01b148061027957506301ffc9a760e01b6001600160e01b03198316145b92915050565b60008281526020819052604090206001015461029a816106fc565b6102a48383610709565b50505050565b6001600160a01b03811633146102d35760405163334bd91960e11b815260040160405180910390fd5b6102dd828261079b565b505050565b7ff0c57e16840df040f15088dc2f81fe391c3923bec73e23a9662efc9c229c6a008054600160401b810460ff16159067ffffffffffffffff166000811580156103285750825b905060008267ffffffffffffffff1660011480156103455750303b155b905081158015610353575080155b156103715760405163f92ee8a960e01b815260040160405180910390fd5b845467ffffffffffffffff19166001178555831561039b57845460ff60401b1916600160401b1785555b6103c57f95ae2dbc037bfb090829e279355ba0308ebb01d5207f5693c4092d02ff27f1ae88610709565b506040805180820182526107d08082526000602092830181905260018290556002819055835180850190945281845292909101829052600355600455600580546001600160a01b0319166001600160a01b038816179055831561046757845460ff60401b191685556040517fc7f505b2f371ae2175ee4913f4499e1f2633a7b5936321eed1cdaeb6115181d29061045e90600190610a1b565b60405180910390a15b50505050505050565b7f95ae2dbc037bfb090829e279355ba0308ebb01d5207f5693c4092d02ff27f1ae61049a816106fc565b6001546002546000916104ac91610a55565b905082156104e0576003546004546104c49190610a55565b6004805491925060006104d683610a69565b91905055506104f6565b600280549060006104f083610a69565b91905055505b60405163a6408bcd60e01b8152339063a6408bcd9061051f908490309088908a90600401610a8c565b600060405180830381600087803b15801561053957600080fd5b505af115801561054d573d6000803e3d6000fd5b5050505050505050565b6000918252602082815260408084206001600160a01b0393909316845291905290205460ff1690565b6002546001546000919083156105995750506004546003545b60005b6105a68284610a55565b81116106cb5760055460405163310090cf60e01b815260009182916001600160a01b039091169063310090cf906105e590869030908c90600401610aca565b6040805180830381865afa158015610601573d6000803e3d6000fd5b505050506040513d601f19601f820116820180604052508101906106259190610b08565b9150915080156106365750506106b9565b604051631846d2f560e31b81526001600160a01b0383169063c23697a890610662908b90600401610b3b565b602060405180830381865afa15801561067f573d6000803e3d6000fd5b505050506040513d601f19601f820116820180604052508101906106a39190610b49565b156106b657600195505050505050610279565b50505b806106c381610a69565b91505061059c565b50600095945050505050565b6000828152602081905260409020600101546106f2816106fc565b6102a4838361079b565b6107068133610806565b50565b60006107158383610557565b610793576000838152602081815260408083206001600160a01b03861684529091529020805460ff1916600117905561074b3390565b6001600160a01b0316826001600160a01b0316847f2f8788117e7eff1d82e926ec794901d17c78024a50270940304540a733656f0d60405160405180910390a4506001610279565b506000610279565b60006107a78383610557565b15610793576000838152602081815260408083206001600160a01b0386168085529252808320805460ff1916905551339286917ff6391f5c32d9c69d2a47ea670b442974b53935d1edc7fd64eb21e047a839171b9190a4506001610279565b6108108282610557565b61083a57808260405163e2517d3f60e01b8152600401610831929190610b6a565b60405180910390fd5b5050565b6001600160e01b031981165b811461070657600080fd5b80356102798161083e565b60006020828403121561087557610875600080fd5b60006108818484610855565b949350505050565b8015155b82525050565b602081016102798284610889565b8061084a565b8035610279816108a1565b6000602082840312156108c7576108c7600080fd5b600061088184846108a7565b8061088d565b6020810161027982846108d3565b60006001600160a01b038216610279565b61084a816108e7565b8035610279816108f8565b6000806040838503121561092257610922600080fd5b600061092e85856108a7565b925050602061093f85828601610901565b9150509250929050565b6000806040838503121561095f5761095f600080fd5b600061092e8585610901565b80151561084a565b80356102798161096b565b6000806040838503121561099457610994600080fd5b60006109a08585610901565b925050602061093f85828601610973565b604081016109bf82856108d3565b6109cc60208301846108d3565b9392505050565b6000610279826108e7565b6000610279826109d3565b61088d816109de565b6020810161027982846109e9565b600067ffffffffffffffff8216610279565b61088d81610a00565b602081016102798284610a12565b634e487b7160e01b600052601260045260246000fd5b634e487b7160e01b600052601160045260246000fd5b600082610a6457610a64610a29565b500490565b60006000198203610a7c57610a7c610a3f565b5060010190565b61088d816108e7565b60808101610a9a82876108d3565b610aa76020830186610a83565b610ab46040830185610889565b610ac16060830184610a83565b95945050505050565b60608101610ad882866108d3565b610ae56020830185610a83565b6108816040830184610889565b8051610279816108f8565b80516102798161096b565b60008060408385031215610b1e57610b1e600080fd5b6000610b2a8585610af2565b925050602061093f85828601610afd565b602081016102798284610a83565b600060208284031215610b5e57610b5e600080fd5b60006108818484610afd565b604081016109bf8285610a8356fea164736f6c6343000814000aa164736f6c6343000814000a",
  "devdoc": {
    "errors": {
      "AccessControlBadConfirmation()": [
        {
          "details": "The caller of a function is not the expected one. NOTE: Don't confuse with {AccessControlUnauthorizedAccount}."
        }
      ],
      "AccessControlUnauthorizedAccount(address,bytes32)": [
        {
          "details": "The `account` is missing a role."
        }
      ],
      "Create2EmptyBytecode()": [
        {
          "details": "There's no code to deploy."
        }
      ],
      "Create2FailedDeployment()": [
        {
          "details": "The deployment failed."
        }
      ],
      "Create2InsufficientBalance(uint256,uint256)": [
        {
          "details": "Not enough balance for performing a CREATE2 deploy."
        }
      ]
    },
    "events": {
      "RoleAdminChanged(bytes32,bytes32,bytes32)": {
        "details": "Emitted when `newAdminRole` is set as ``role``'s admin role, replacing `previousAdminRole` `DEFAULT_ADMIN_ROLE` is the starting admin for all roles, despite {RoleAdminChanged} not being emitted signaling this."
      },
      "RoleGranted(bytes32,address,address)": {
        "details": "Emitted when `account` is granted `role`. `sender` is the account that originated the contract call, an admin role bearer except when using {AccessControl-_setupRole}."
      },
      "RoleRevoked(bytes32,address,address)": {
        "details": "Emitted when `account` is revoked `role`. `sender` is the account that originated the contract call:   - if using `revokeRole`, it is the admin role bearer   - if using `renounceRole`, it is the role bearer (i.e. `account`)"
      }
    },
    "kind": "dev",
    "methods": {
      "getRoleAdmin(bytes32)": {
        "details": "Returns the admin role that controls `role`. See {grantRole} and {revokeRole}. To change a role's admin, use {_setRoleAdmin}."
      },
      "grantRole(bytes32,address)": {
        "details": "Grants `role` to `account`. If `account` had not been already granted `role`, emits a {RoleGranted} event. Requirements: - the caller must have ``role``'s admin role. May emit a {RoleGranted} event."
      },
      "hasRole(bytes32,address)": {
        "details": "Returns `true` if `account` has been granted `role`."
      },
      "renounceRole(bytes32,address)": {
        "details": "Revokes `role` from the calling account. Roles are often managed via {grantRole} and {revokeRole}: this function's purpose is to provide a mechanism for accounts to lose their privileges if they are compromised (such as when a trusted device is misplaced). If the calling account had been revoked `role`, emits a {RoleRevoked} event. Requirements: - the caller must be `callerConfirmation`. May emit a {RoleRevoked} event."
      },
      "revokeRole(bytes32,address)": {
        "details": "Revokes `role` from `account`. If `account` had been granted `role`, emits a {RoleRevoked} event. Requirements: - the caller must have ``role``'s admin role. May emit a {RoleRevoked} event."
      },
      "supportsInterface(bytes4)": {
        "details": "See {IERC165-supportsInterface}."
      }
    },
    "version": 1
  },
  "userdoc": {
    "kind": "user",
    "methods": {},
    "version": 1
  },
  "storageLayout": {
    "storage": [
      {
        "astId": 3025,
        "contract": "contracts/oracle/RegistryIndexFactory.sol:RegistryIndexFactory",
        "label": "_roles",
        "offset": 0,
        "slot": "0",
        "type": "t_mapping(t_bytes32,t_struct(RoleData)3020_storage)"
      },
      {
        "astId": 10204,
        "contract": "contracts/oracle/RegistryIndexFactory.sol:RegistryIndexFactory",
        "label": "slot",
        "offset": 0,
        "slot": "1",
        "type": "t_struct(Slot)10201_storage"
      }
    ],
    "types": {
      "t_address": {
        "encoding": "inplace",
        "label": "address",
        "numberOfBytes": "20"
      },
      "t_bool": {
        "encoding": "inplace",
        "label": "bool",
        "numberOfBytes": "1"
      },
      "t_bytes32": {
        "encoding": "inplace",
        "label": "bytes32",
        "numberOfBytes": "32"
      },
      "t_mapping(t_address,t_bool)": {
        "encoding": "mapping",
        "key": "t_address",
        "label": "mapping(address => bool)",
        "numberOfBytes": "32",
        "value": "t_bool"
      },
      "t_mapping(t_bytes32,t_struct(RoleData)3020_storage)": {
        "encoding": "mapping",
        "key": "t_bytes32",
        "label": "mapping(bytes32 => struct AccessControl.RoleData)",
        "numberOfBytes": "32",
        "value": "t_struct(RoleData)3020_storage"
      },
      "t_struct(RoleData)3020_storage": {
        "encoding": "inplace",
        "label": "struct AccessControl.RoleData",
        "members": [
          {
            "astId": 3017,
            "contract": "contracts/oracle/RegistryIndexFactory.sol:RegistryIndexFactory",
            "label": "hasRole",
            "offset": 0,
            "slot": "0",
            "type": "t_mapping(t_address,t_bool)"
          },
          {
            "astId": 3019,
            "contract": "contracts/oracle/RegistryIndexFactory.sol:RegistryIndexFactory",
            "label": "adminRole",
            "offset": 0,
            "slot": "1",
            "type": "t_bytes32"
          }
        ],
        "numberOfBytes": "64"
      },
      "t_struct(Slot)10201_storage": {
        "encoding": "inplace",
        "label": "struct RegistryIndexFactory.Slot",
        "members": [
          {
            "astId": 10196,
            "contract": "contracts/oracle/RegistryIndexFactory.sol:RegistryIndexFactory",
            "label": "admin",
            "offset": 0,
            "slot": "0",
            "type": "t_address"
          },
          {
            "astId": 10198,
            "contract": "contracts/oracle/RegistryIndexFactory.sol:RegistryIndexFactory",
            "label": "registryFactory",
            "offset": 0,
            "slot": "1",
            "type": "t_address"
          },
          {
            "astId": 10200,
            "contract": "contracts/oracle/RegistryIndexFactory.sol:RegistryIndexFactory",
            "label": "base",
            "offset": 0,
            "slot": "2",
            "type": "t_uint256"
          }
        ],
        "numberOfBytes": "96"
      },
      "t_uint256": {
        "encoding": "inplace",
        "label": "uint256",
        "numberOfBytes": "32"
      }
    }
  }
}