{
  "address": "0x4742642c334715C8152F936BF6B86491aE68a6cC",
  "abi": [
    {
      "inputs": [
        {
          "internalType": "address",
          "name": "admin",
          "type": "address"
        },
        {
          "internalType": "uint256",
          "name": "base",
          "type": "uint256"
        }
      ],
      "stateMutability": "nonpayable",
      "type": "constructor"
    },
    {
      "inputs": [],
      "name": "AccessControlBadConfirmation",
      "type": "error"
    },
    {
      "inputs": [
        {
          "internalType": "address",
          "name": "account",
          "type": "address"
        },
        {
          "internalType": "bytes32",
          "name": "neededRole",
          "type": "bytes32"
        }
      ],
      "name": "AccessControlUnauthorizedAccount",
      "type": "error"
    },
    {
      "inputs": [],
      "name": "Create2EmptyBytecode",
      "type": "error"
    },
    {
      "inputs": [],
      "name": "Create2FailedDeployment",
      "type": "error"
    },
    {
      "inputs": [
        {
          "internalType": "uint256",
          "name": "balance",
          "type": "uint256"
        },
        {
          "internalType": "uint256",
          "name": "needed",
          "type": "uint256"
        }
      ],
      "name": "Create2InsufficientBalance",
      "type": "error"
    },
    {
      "anonymous": false,
      "inputs": [
        {
          "indexed": true,
          "internalType": "bytes32",
          "name": "role",
          "type": "bytes32"
        },
        {
          "indexed": true,
          "internalType": "bytes32",
          "name": "previousAdminRole",
          "type": "bytes32"
        },
        {
          "indexed": true,
          "internalType": "bytes32",
          "name": "newAdminRole",
          "type": "bytes32"
        }
      ],
      "name": "RoleAdminChanged",
      "type": "event"
    },
    {
      "anonymous": false,
      "inputs": [
        {
          "indexed": true,
          "internalType": "bytes32",
          "name": "role",
          "type": "bytes32"
        },
        {
          "indexed": true,
          "internalType": "address",
          "name": "account",
          "type": "address"
        },
        {
          "indexed": true,
          "internalType": "address",
          "name": "sender",
          "type": "address"
        }
      ],
      "name": "RoleGranted",
      "type": "event"
    },
    {
      "anonymous": false,
      "inputs": [
        {
          "indexed": true,
          "internalType": "bytes32",
          "name": "role",
          "type": "bytes32"
        },
        {
          "indexed": true,
          "internalType": "address",
          "name": "account",
          "type": "address"
        },
        {
          "indexed": true,
          "internalType": "address",
          "name": "sender",
          "type": "address"
        }
      ],
      "name": "RoleRevoked",
      "type": "event"
    },
    {
      "inputs": [],
      "name": "ADMIN_ROLE",
      "outputs": [
        {
          "internalType": "bytes32",
          "name": "",
          "type": "bytes32"
        }
      ],
      "stateMutability": "view",
      "type": "function"
    },
    {
      "inputs": [],
      "name": "DEFAULT_ADMIN_ROLE",
      "outputs": [
        {
          "internalType": "bytes32",
          "name": "",
          "type": "bytes32"
        }
      ],
      "stateMutability": "view",
      "type": "function"
    },
    {
      "inputs": [
        {
          "internalType": "uint256",
          "name": "pivot",
          "type": "uint256"
        },
        {
          "internalType": "address",
          "name": "index",
          "type": "address"
        },
        {
          "internalType": "address",
          "name": "stub",
          "type": "address"
        },
        {
          "internalType": "bool",
          "name": "useWhitelist",
          "type": "bool"
        }
      ],
      "name": "deploy",
      "outputs": [
        {
          "internalType": "address",
          "name": "",
          "type": "address"
        }
      ],
      "stateMutability": "nonpayable",
      "type": "function"
    },
    {
      "inputs": [
        {
          "internalType": "uint256",
          "name": "pivot",
          "type": "uint256"
        },
        {
          "internalType": "address",
          "name": "index",
          "type": "address"
        },
        {
          "internalType": "bool",
          "name": "useWhitelist",
          "type": "bool"
        }
      ],
      "name": "get",
      "outputs": [
        {
          "internalType": "address",
          "name": "",
          "type": "address"
        },
        {
          "internalType": "bool",
          "name": "",
          "type": "bool"
        }
      ],
      "stateMutability": "view",
      "type": "function"
    },
    {
      "inputs": [
        {
          "internalType": "bytes32",
          "name": "role",
          "type": "bytes32"
        }
      ],
      "name": "getRoleAdmin",
      "outputs": [
        {
          "internalType": "bytes32",
          "name": "",
          "type": "bytes32"
        }
      ],
      "stateMutability": "view",
      "type": "function"
    },
    {
      "inputs": [
        {
          "internalType": "bytes32",
          "name": "role",
          "type": "bytes32"
        },
        {
          "internalType": "address",
          "name": "account",
          "type": "address"
        }
      ],
      "name": "grantRole",
      "outputs": [],
      "stateMutability": "nonpayable",
      "type": "function"
    },
    {
      "inputs": [
        {
          "internalType": "bytes32",
          "name": "role",
          "type": "bytes32"
        },
        {
          "internalType": "address",
          "name": "account",
          "type": "address"
        }
      ],
      "name": "hasRole",
      "outputs": [
        {
          "internalType": "bool",
          "name": "",
          "type": "bool"
        }
      ],
      "stateMutability": "view",
      "type": "function"
    },
    {
      "inputs": [
        {
          "internalType": "bytes32",
          "name": "role",
          "type": "bytes32"
        },
        {
          "internalType": "address",
          "name": "callerConfirmation",
          "type": "address"
        }
      ],
      "name": "renounceRole",
      "outputs": [],
      "stateMutability": "nonpayable",
      "type": "function"
    },
    {
      "inputs": [
        {
          "internalType": "bytes32",
          "name": "role",
          "type": "bytes32"
        },
        {
          "internalType": "address",
          "name": "account",
          "type": "address"
        }
      ],
      "name": "revokeRole",
      "outputs": [],
      "stateMutability": "nonpayable",
      "type": "function"
    },
    {
      "inputs": [
        {
          "internalType": "bytes4",
          "name": "interfaceId",
          "type": "bytes4"
        }
      ],
      "name": "supportsInterface",
      "outputs": [
        {
          "internalType": "bool",
          "name": "",
          "type": "bool"
        }
      ],
      "stateMutability": "view",
      "type": "function"
    }
  ],
  "transactionHash": "0xee0ffed77961cea3aed2567c6904b5e5f5b3978900a00ade7d4fb7f9af103670",
  "args": [
    "0x84749A15Ece648b8e77cdCc48Fc4BA6FDF630497",
    "57097903025212666396462534777400717570687827254356470905399825569574536123374"
  ],
  "numDeployments": 1,
  "solcInputHash": "e7d68ebad2904fa6e23ddd0ccbcc91f1",
  "bytecode": "0x60806040523480156200001157600080fd5b5060405162001d7e38038062001d7e8339810160408190526200003491620001d2565b620000607ffccdaf605b6a548a6761df480c8f02168106d2c75426fdd37e8f3e89e7fdb34a83620000d6565b506040805180820182526001600160a01b0384168082526020918201849052600180546001600160a01b03191682179055600284905560009081527f09bf525e463116699876caa3bd1c139c3db97314f5888c842c310313df44a3ac909152205460ff16620000ce57600080fd5b505062000215565b6000828152602081815260408083206001600160a01b038516845290915281205460ff166200017b576000838152602081815260408083206001600160a01b03861684529091529020805460ff19166001179055620001323390565b6001600160a01b0316826001600160a01b0316847f2f8788117e7eff1d82e926ec794901d17c78024a50270940304540a733656f0d60405160405180910390a45060016200017f565b5060005b92915050565b60006001600160a01b0382166200017f565b620001a28162000185565b8114620001ae57600080fd5b50565b80516200017f8162000197565b80620001a2565b80516200017f81620001be565b60008060408385031215620001ea57620001ea600080fd5b6000620001f88585620001b1565b92505060206200020b85828601620001c5565b9150509250929050565b611b5980620002256000396000f3fe608060405234801561001057600080fd5b506004361061009e5760003560e01c806375b238fc1161006657806375b238fc1461014557806391d148541461016c578063a217fddf1461017f578063d547741f14610187578063f25640ac1461019a57600080fd5b806301ffc9a7146100a3578063248a9ca3146100cc5780632f2ff15d146100fc578063310090cf1461011157806336568abe14610132575b600080fd5b6100b66100b13660046106ef565b6101ba565b6040516100c39190610722565b60405180910390f35b6100ef6100da366004610741565b60009081526020819052604090206001015490565b6040516100c39190610768565b61010f61010a36600461079b565b6101f1565b005b61012461011f3660046107eb565b61021c565b6040516100c3929190610844565b61010f61014036600461079b565b610257565b6100ef7ffccdaf605b6a548a6761df480c8f02168106d2c75426fdd37e8f3e89e7fdb34a81565b6100b661017a36600461079b565b61028f565b6100ef600081565b61010f61019536600461079b565b6102b8565b6101ad6101a836600461085f565b6102dd565b6040516100c391906108c3565b60006001600160e01b03198216637965db0b60e01b14806101eb57506301ffc9a760e01b6001600160e01b03198316145b92915050565b60008281526020819052604090206001015461020c816103cb565b61021683836103d8565b50505050565b600080600061022c86868661046a565b90506000610239856104b4565b9050600061024783836104cd565b98893b1598509650505050505050565b6001600160a01b03811633146102805760405163334bd91960e11b815260040160405180910390fd5b61028a82826104da565b505050565b6000918252602082815260408084206001600160a01b0393909316845291905290205460ff1690565b6000828152602081905260409020600101546102d3816103cb565b61021683836104da565b60007ffccdaf605b6a548a6761df480c8f02168106d2c75426fdd37e8f3e89e7fdb34a610309816103cb565b600061031687878661046a565b9050600061032385610545565b905060006103388383805190602001206104cd565b9050803b60008190036103bc57610351600085856105d7565b5060405163189acdbd60e31b81526001600160a01b0383169063c4d66de89061037e908b906004016108c3565b600060405180830381600087803b15801561039857600080fd5b505af11580156103ac573d6000803e3d6000fd5b50505050819550505050506103c2565b50935050505b50949350505050565b6103d5813361065b565b50565b60006103e4838361028f565b610462576000838152602081815260408083206001600160a01b03861684529091529020805460ff1916600117905561041a3390565b6001600160a01b0316826001600160a01b0316847f2f8788117e7eff1d82e926ec794901d17c78024a50270940304540a733656f0d60405160405180910390a45060016101eb565b5060006101eb565b6001546002546040516000926104949287926001600160a01b03909216918791879160200161091b565b6040516020818303038152906040528051906020012090505b9392505050565b60006104bf82610545565b805190602001209050919050565b60006104ad83833061068a565b60006104e6838361028f565b15610462576000838152602081815260408083206001600160a01b0386168085529252808320805460ff1916905551339286917ff6391f5c32d9c69d2a47ea670b442974b53935d1edc7fd64eb21e047a839171b9190a45060016101eb565b6060816105915760405161055b602082016106b3565b601f1982820381018352601f90910116604081905261057d91906020016109ba565b6040516020818303038152906040526101eb565b6040516105a0602082016106c0565b601f1982820381018352601f9091011660408190526105c291906020016109ba565b60405160208183030381529060405292915050565b60008347101561060757478460405163392efb2b60e21b81526004016105fe9291906109c6565b60405180910390fd5b815160000361062957604051631328927760e21b815260040160405180910390fd5b8282516020840186f590506001600160a01b0381166104ad57604051633a0ba96160e11b815260040160405180910390fd5b610665828261028f565b61068657808260405163e2517d3f60e01b81526004016105fe9291906109e1565b5050565b6000604051836040820152846020820152828152600b810160ff81536055902095945050505050565b6108ad806109f083390190565b6108b08061129d83390190565b6001600160e01b031981165b81146103d557600080fd5b80356101eb816106cd565b60006020828403121561070457610704600080fd5b600061071084846106e4565b949350505050565b8015155b82525050565b602081016101eb8284610718565b806106d9565b80356101eb81610730565b60006020828403121561075657610756600080fd5b60006107108484610736565b8061071c565b602081016101eb8284610762565b60006001600160a01b0382166101eb565b6106d981610776565b80356101eb81610787565b600080604083850312156107b1576107b1600080fd5b60006107bd8585610736565b92505060206107ce85828601610790565b9150509250929050565b8015156106d9565b80356101eb816107d8565b60008060006060848603121561080357610803600080fd5b600061080f8686610736565b935050602061082086828701610790565b9250506040610831868287016107e0565b9150509250925092565b61071c81610776565b60408101610852828561083b565b6104ad6020830184610718565b6000806000806080858703121561087857610878600080fd5b60006108848787610736565b945050602061089587828801610790565b93505060406108a687828801610790565b92505060606108b7878288016107e0565b91505092959194509250565b602081016101eb828461083b565b60006101eb8260601b90565b60006101eb826108d1565b61071c6108f482610776565b6108dd565b60006101eb8260f81b90565b60006101eb826108f9565b61071c811515610905565b60006109278288610762565b60208201915061093782876108e8565b60148201915061094782866108e8565b6014820191506109578285610910565b6001820191506109678284610762565b5060200195945050505050565b60005b8381101561098f578181015183820152602001610977565b50506000910152565b60006109a2825190565b6109b0818560208601610974565b9290920192915050565b60006104ad8284610998565b604081016109d48285610762565b6104ad6020830184610762565b604081016109d4828561083b56fe60806040526002805460ff1916905534801561001a57600080fd5b506108838061002a6000396000f3fe608060405234801561001057600080fd5b50600436106100f55760003560e01c80639e39db7311610097578063c4d66de811610066578063c4d66de814610219578063d547741f1461022c578063ef14981b1461023f578063fc735e991461026657600080fd5b80639e39db73146101c8578063a217fddf146101db578063bc529c43146101e3578063c23697a81461020657600080fd5b80632f2ff15d116100d35780632f2ff15d1461016657806336568abe1461017b5780633d595e581461018e57806391d14854146101b557600080fd5b806301ffc9a7146100fa57806306e96bfb14610123578063248a9ca314610143575b600080fd5b61010d6101083660046106ca565b610271565b60405161011a91906106fd565b60405180910390f35b610136610131366004610730565b6102a8565b60405161011a9190610757565b610136610151366004610776565b60009081526020819052604090206001015490565b610179610174366004610797565b6102fa565b005b610179610189366004610797565b610325565b6101367f7dffafba3121190bb2e00518620aaf688ac6a2eb4c048cb615d4f9a55b971d8181565b61010d6101c3366004610797565b61035d565b6101796101d6366004610730565b610386565b610136600081565b61010d6101f1366004610776565b60016020526000908152604090205460ff1681565b61010d610214366004610730565b6103e1565b610179610227366004610730565b61040a565b61017961023a366004610797565b610541565b6101367f4e920c68646ac67e93cb49bd06825ad577b3adee190549dfaa186e078163d1e281565b60025460ff1661010d565b60006001600160e01b03198216637965db0b60e01b14806102a257506301ffc9a760e01b6001600160e01b03198316145b92915050565b6000817f7dffafba3121190bb2e00518620aaf688ac6a2eb4c048cb615d4f9a55b971d816040516020016102dd9291906107fc565b604051602081830303815290604052805190602001209050919050565b60008281526020819052604090206001015461031581610566565b61031f8383610573565b50505050565b6001600160a01b038116331461034e5760405163334bd91960e11b815260040160405180910390fd5b6103588282610605565b505050565b6000918252602082815260408084206001600160a01b0393909316845291905290205460ff1690565b7f4e920c68646ac67e93cb49bd06825ad577b3adee190549dfaa186e078163d1e26103b081610566565b60018060006103be856102a8565b81526020810191909152604001600020805460ff19169115159190911790555050565b6000600160006103f0846102a8565b815260208101919091526040016000205460ff1692915050565b7ff0c57e16840df040f15088dc2f81fe391c3923bec73e23a9662efc9c229c6a008054600160401b810460ff16159067ffffffffffffffff166000811580156104505750825b905060008267ffffffffffffffff16600114801561046d5750303b155b90508115801561047b575080155b156104995760405163f92ee8a960e01b815260040160405180910390fd5b845467ffffffffffffffff1916600117855583156104c357845460ff60401b1916600160401b1785555b6104ed7f4e920c68646ac67e93cb49bd06825ad577b3adee190549dfaa186e078163d1e287610573565b50831561053957845460ff60401b191685556040517fc7f505b2f371ae2175ee4913f4499e1f2633a7b5936321eed1cdaeb6115181d2906105309060019061083d565b60405180910390a15b505050505050565b60008281526020819052604090206001015461055c81610566565b61031f8383610605565b6105708133610670565b50565b600061057f838361035d565b6105fd576000838152602081815260408083206001600160a01b03861684529091529020805460ff191660011790556105b53390565b6001600160a01b0316826001600160a01b0316847f2f8788117e7eff1d82e926ec794901d17c78024a50270940304540a733656f0d60405160405180910390a45060016102a2565b5060006102a2565b6000610611838361035d565b156105fd576000838152602081815260408083206001600160a01b0386168085529252808320805460ff1916905551339286917ff6391f5c32d9c69d2a47ea670b442974b53935d1edc7fd64eb21e047a839171b9190a45060016102a2565b61067a828261035d565b6106a457808260405163e2517d3f60e01b815260040161069b929190610854565b60405180910390fd5b5050565b6001600160e01b031981165b811461057057600080fd5b80356102a2816106a8565b6000602082840312156106df576106df600080fd5b60006106eb84846106bf565b949350505050565b8015155b82525050565b602081016102a282846106f3565b60006001600160a01b0382166102a2565b6106b48161070b565b80356102a28161071c565b60006020828403121561074557610745600080fd5b60006106eb8484610725565b806106f7565b602081016102a28284610751565b806106b4565b80356102a281610765565b60006020828403121561078b5761078b600080fd5b60006106eb848461076b565b600080604083850312156107ad576107ad600080fd5b60006107b9858561076b565b92505060206107ca85828601610725565b9150509250929050565b60006102a28260601b90565b60006102a2826107d4565b6106f76107f78261070b565b6107e0565b600061080882856107eb565b6014820191506108188284610751565b5060200192915050565b600067ffffffffffffffff82166102a2565b6106f781610822565b602081016102a28284610834565b6106f78161070b565b60408101610862828561084b565b61086f6020830184610751565b939250505056fea164736f6c6343000814000a60806040526002805460ff1916600117905534801561001d57600080fd5b506108838061002d6000396000f3fe608060405234801561001057600080fd5b50600436106100f55760003560e01c80639e39db7311610097578063c4d66de811610066578063c4d66de814610219578063d547741f1461022c578063ef14981b1461023f578063fc735e991461026657600080fd5b80639e39db73146101c8578063a217fddf146101db578063bc529c43146101e3578063c23697a81461020657600080fd5b80632f2ff15d116100d35780632f2ff15d1461016657806336568abe1461017b5780633d595e581461018e57806391d14854146101b557600080fd5b806301ffc9a7146100fa57806306e96bfb14610123578063248a9ca314610143575b600080fd5b61010d6101083660046106ca565b610271565b60405161011a91906106fd565b60405180910390f35b610136610131366004610730565b6102a8565b60405161011a9190610757565b610136610151366004610776565b60009081526020819052604090206001015490565b610179610174366004610797565b6102fa565b005b610179610189366004610797565b610325565b6101367f7dffafba3121190bb2e00518620aaf688ac6a2eb4c048cb615d4f9a55b971d8181565b61010d6101c3366004610797565b61035d565b6101796101d6366004610730565b610386565b610136600081565b61010d6101f1366004610776565b60016020526000908152604090205460ff1681565b61010d610214366004610730565b6103e1565b610179610227366004610730565b61040a565b61017961023a366004610797565b610541565b6101367f4e920c68646ac67e93cb49bd06825ad577b3adee190549dfaa186e078163d1e281565b60025460ff1661010d565b60006001600160e01b03198216637965db0b60e01b14806102a257506301ffc9a760e01b6001600160e01b03198316145b92915050565b6000817f7dffafba3121190bb2e00518620aaf688ac6a2eb4c048cb615d4f9a55b971d816040516020016102dd9291906107fc565b604051602081830303815290604052805190602001209050919050565b60008281526020819052604090206001015461031581610566565b61031f8383610573565b50505050565b6001600160a01b038116331461034e5760405163334bd91960e11b815260040160405180910390fd5b6103588282610605565b505050565b6000918252602082815260408084206001600160a01b0393909316845291905290205460ff1690565b7f4e920c68646ac67e93cb49bd06825ad577b3adee190549dfaa186e078163d1e26103b081610566565b60018060006103be856102a8565b81526020810191909152604001600020805460ff19169115159190911790555050565b6000600160006103f0846102a8565b815260208101919091526040016000205460ff1692915050565b7ff0c57e16840df040f15088dc2f81fe391c3923bec73e23a9662efc9c229c6a008054600160401b810460ff16159067ffffffffffffffff166000811580156104505750825b905060008267ffffffffffffffff16600114801561046d5750303b155b90508115801561047b575080155b156104995760405163f92ee8a960e01b815260040160405180910390fd5b845467ffffffffffffffff1916600117855583156104c357845460ff60401b1916600160401b1785555b6104ed7f4e920c68646ac67e93cb49bd06825ad577b3adee190549dfaa186e078163d1e287610573565b50831561053957845460ff60401b191685556040517fc7f505b2f371ae2175ee4913f4499e1f2633a7b5936321eed1cdaeb6115181d2906105309060019061083d565b60405180910390a15b505050505050565b60008281526020819052604090206001015461055c81610566565b61031f8383610605565b6105708133610670565b50565b600061057f838361035d565b6105fd576000838152602081815260408083206001600160a01b03861684529091529020805460ff191660011790556105b53390565b6001600160a01b0316826001600160a01b0316847f2f8788117e7eff1d82e926ec794901d17c78024a50270940304540a733656f0d60405160405180910390a45060016102a2565b5060006102a2565b6000610611838361035d565b156105fd576000838152602081815260408083206001600160a01b0386168085529252808320805460ff1916905551339286917ff6391f5c32d9c69d2a47ea670b442974b53935d1edc7fd64eb21e047a839171b9190a45060016102a2565b61067a828261035d565b6106a457808260405163e2517d3f60e01b815260040161069b929190610854565b60405180910390fd5b5050565b6001600160e01b031981165b811461057057600080fd5b80356102a2816106a8565b6000602082840312156106df576106df600080fd5b60006106eb84846106bf565b949350505050565b8015155b82525050565b602081016102a282846106f3565b60006001600160a01b0382166102a2565b6106b48161070b565b80356102a28161071c565b60006020828403121561074557610745600080fd5b60006106eb8484610725565b806106f7565b602081016102a28284610751565b806106b4565b80356102a281610765565b60006020828403121561078b5761078b600080fd5b60006106eb848461076b565b600080604083850312156107ad576107ad600080fd5b60006107b9858561076b565b92505060206107ca85828601610725565b9150509250929050565b60006102a28260601b90565b60006102a2826107d4565b6106f76107f78261070b565b6107e0565b600061080882856107eb565b6014820191506108188284610751565b5060200192915050565b600067ffffffffffffffff82166102a2565b6106f781610822565b602081016102a28284610834565b6106f78161070b565b60408101610862828561084b565b61086f6020830184610751565b939250505056fea164736f6c6343000814000aa164736f6c6343000814000a",
  "devdoc": {
    "errors": {
      "AccessControlBadConfirmation()": [
        {
          "details": "The caller of a function is not the expected one. NOTE: Don't confuse with {AccessControlUnauthorizedAccount}."
        }
      ],
      "AccessControlUnauthorizedAccount(address,bytes32)": [
        {
          "details": "The `account` is missing a role."
        }
      ],
      "Create2EmptyBytecode()": [
        {
          "details": "There's no code to deploy."
        }
      ],
      "Create2FailedDeployment()": [
        {
          "details": "The deployment failed."
        }
      ],
      "Create2InsufficientBalance(uint256,uint256)": [
        {
          "details": "Not enough balance for performing a CREATE2 deploy."
        }
      ]
    },
    "events": {
      "RoleAdminChanged(bytes32,bytes32,bytes32)": {
        "details": "Emitted when `newAdminRole` is set as ``role``'s admin role, replacing `previousAdminRole` `DEFAULT_ADMIN_ROLE` is the starting admin for all roles, despite {RoleAdminChanged} not being emitted signaling this."
      },
      "RoleGranted(bytes32,address,address)": {
        "details": "Emitted when `account` is granted `role`. `sender` is the account that originated the contract call, an admin role bearer except when using {AccessControl-_setupRole}."
      },
      "RoleRevoked(bytes32,address,address)": {
        "details": "Emitted when `account` is revoked `role`. `sender` is the account that originated the contract call:   - if using `revokeRole`, it is the admin role bearer   - if using `renounceRole`, it is the role bearer (i.e. `account`)"
      }
    },
    "kind": "dev",
    "methods": {
      "getRoleAdmin(bytes32)": {
        "details": "Returns the admin role that controls `role`. See {grantRole} and {revokeRole}. To change a role's admin, use {_setRoleAdmin}."
      },
      "grantRole(bytes32,address)": {
        "details": "Grants `role` to `account`. If `account` had not been already granted `role`, emits a {RoleGranted} event. Requirements: - the caller must have ``role``'s admin role. May emit a {RoleGranted} event."
      },
      "hasRole(bytes32,address)": {
        "details": "Returns `true` if `account` has been granted `role`."
      },
      "renounceRole(bytes32,address)": {
        "details": "Revokes `role` from the calling account. Roles are often managed via {grantRole} and {revokeRole}: this function's purpose is to provide a mechanism for accounts to lose their privileges if they are compromised (such as when a trusted device is misplaced). If the calling account had been revoked `role`, emits a {RoleRevoked} event. Requirements: - the caller must be `callerConfirmation`. May emit a {RoleRevoked} event."
      },
      "revokeRole(bytes32,address)": {
        "details": "Revokes `role` from `account`. If `account` had been granted `role`, emits a {RoleRevoked} event. Requirements: - the caller must have ``role``'s admin role. May emit a {RoleRevoked} event."
      },
      "supportsInterface(bytes4)": {
        "details": "See {IERC165-supportsInterface}."
      }
    },
    "version": 1
  },
  "userdoc": {
    "kind": "user",
    "methods": {},
    "version": 1
  },
  "storageLayout": {
    "storage": [
      {
        "astId": 3025,
        "contract": "contracts/oracle/RegistryFactory.sol:RegistryFactory",
        "label": "_roles",
        "offset": 0,
        "slot": "0",
        "type": "t_mapping(t_bytes32,t_struct(RoleData)3020_storage)"
      },
      {
        "astId": 9966,
        "contract": "contracts/oracle/RegistryFactory.sol:RegistryFactory",
        "label": "slot",
        "offset": 0,
        "slot": "1",
        "type": "t_struct(Slot)9963_storage"
      }
    ],
    "types": {
      "t_address": {
        "encoding": "inplace",
        "label": "address",
        "numberOfBytes": "20"
      },
      "t_bool": {
        "encoding": "inplace",
        "label": "bool",
        "numberOfBytes": "1"
      },
      "t_bytes32": {
        "encoding": "inplace",
        "label": "bytes32",
        "numberOfBytes": "32"
      },
      "t_mapping(t_address,t_bool)": {
        "encoding": "mapping",
        "key": "t_address",
        "label": "mapping(address => bool)",
        "numberOfBytes": "32",
        "value": "t_bool"
      },
      "t_mapping(t_bytes32,t_struct(RoleData)3020_storage)": {
        "encoding": "mapping",
        "key": "t_bytes32",
        "label": "mapping(bytes32 => struct AccessControl.RoleData)",
        "numberOfBytes": "32",
        "value": "t_struct(RoleData)3020_storage"
      },
      "t_struct(RoleData)3020_storage": {
        "encoding": "inplace",
        "label": "struct AccessControl.RoleData",
        "members": [
          {
            "astId": 3017,
            "contract": "contracts/oracle/RegistryFactory.sol:RegistryFactory",
            "label": "hasRole",
            "offset": 0,
            "slot": "0",
            "type": "t_mapping(t_address,t_bool)"
          },
          {
            "astId": 3019,
            "contract": "contracts/oracle/RegistryFactory.sol:RegistryFactory",
            "label": "adminRole",
            "offset": 0,
            "slot": "1",
            "type": "t_bytes32"
          }
        ],
        "numberOfBytes": "64"
      },
      "t_struct(Slot)9963_storage": {
        "encoding": "inplace",
        "label": "struct RegistryFactory.Slot",
        "members": [
          {
            "astId": 9960,
            "contract": "contracts/oracle/RegistryFactory.sol:RegistryFactory",
            "label": "admin",
            "offset": 0,
            "slot": "0",
            "type": "t_address"
          },
          {
            "astId": 9962,
            "contract": "contracts/oracle/RegistryFactory.sol:RegistryFactory",
            "label": "base",
            "offset": 0,
            "slot": "1",
            "type": "t_uint256"
          }
        ],
        "numberOfBytes": "64"
      },
      "t_uint256": {
        "encoding": "inplace",
        "label": "uint256",
        "numberOfBytes": "32"
      }
    }
  }
}